{"abi":[{"constant":true,"inputs":[{"internalType":"uint256","name":"id","type":"uint256"}],"name":"getGameById","outputs":[{"internalType":"uint8","name":"winningValue","type":"uint8"},{"internalType":"uint256","name":"restBalance","type":"uint256"},{"internalType":"uint256","name":"gameBalance","type":"uint256"}],"payable":false,"stateMutability":"view","type":"function"},{"constant":false,"inputs":[{"internalType":"bytes32","name":"hashValue","type":"bytes32"}],"name":"setUserBetAndHash","outputs":[],"payable":true,"stateMutability":"payable","type":"function"},{"constant":true,"inputs":[],"name":"manager","outputs":[{"internalType":"address","name":"","type":"address"}],"payable":false,"stateMutability":"view","type":"function"},{"constant":false,"inputs":[{"internalType":"uint8","name":"userValue","type":"uint8"},{"internalType":"uint256","name":"_gameId","type":"uint256"}],"name":"receiveMoney","outputs":[{"internalType":"bool","name":"","type":"bool"}],"payable":true,"stateMutability":"payable","type":"function"},{"constant":false,"inputs":[{"internalType":"uint8","name":"dice","type":"uint8"}],"name":"newGame","outputs":[],"payable":false,"stateMutability":"nonpayable","type":"function"},{"constant":true,"inputs":[],"name":"minimumBet","outputs":[{"internalType":"uint256","name":"","type":"uint256"}],"payable":false,"stateMutability":"view","type":"function"},{"constant":false,"inputs":[{"internalType":"uint8","name":"dice","type":"uint8"}],"name":"startGame","outputs":[],"payable":false,"stateMutability":"nonpayable","type":"function"},{"inputs":[{"internalType":"uint256","name":"_minimumBet","type":"uint256"}],"payable":false,"stateMutability":"nonpayable","type":"constructor"}],"devdoc":{"methods":{}},"evm":{"assembly":"    /* \"diceGame.sol\":26:4082  contract DiceGame {... */\n  mstore(0x40, 0x80)\n    /* \"diceGame.sol\":797:925  constructor(uint _minimumBet) public {... */\n  callvalue\n    /* \"--CODEGEN--\":8:17   */\n  dup1\n    /* \"--CODEGEN--\":5:7   */\n  iszero\n  tag_1\n  jumpi\n    /* \"--CODEGEN--\":30:31   */\n  0x00\n    /* \"--CODEGEN--\":27:28   */\n  dup1\n    /* \"--CODEGEN--\":20:32   */\n  revert\n    /* \"--CODEGEN--\":5:7   */\ntag_1:\n    /* \"diceGame.sol\":797:925  constructor(uint _minimumBet) public {... */\n  pop\n  mload(0x40)\n  sub(codesize, bytecodeSize)\n  dup1\n  bytecodeSize\n  dup4\n  codecopy\n  dup2\n  dup2\n  add\n  0x40\n  mstore\n    /* \"--CODEGEN--\":13:15   */\n  0x20\n    /* \"--CODEGEN--\":8:11   */\n  dup2\n    /* \"--CODEGEN--\":5:16   */\n  lt\n    /* \"--CODEGEN--\":2:4   */\n  iszero\n  tag_2\n  jumpi\n    /* \"--CODEGEN--\":29:30   */\n  0x00\n    /* \"--CODEGEN--\":26:27   */\n  dup1\n    /* \"--CODEGEN--\":19:31   */\n  revert\n    /* \"--CODEGEN--\":2:4   */\ntag_2:\n    /* \"diceGame.sol\":797:925  constructor(uint _minimumBet) public {... */\n  dup2\n  add\n  swap1\n  dup1\n  dup1\n  mload\n  swap1\n  0x20\n  add\n  swap1\n  swap3\n  swap2\n  swap1\n  pop\n  pop\n  pop\n    /* \"diceGame.sol\":854:864  msg.sender */\n  caller\n    /* \"diceGame.sol\":844:851  manager */\n  0x00\n  dup1\n    /* \"diceGame.sol\":844:864  manager = msg.sender */\n  0x0100\n  exp\n  dup2\n  sload\n  dup2\n  0xffffffffffffffffffffffffffffffffffffffff\n  mul\n  not\n  and\n  swap1\n  dup4\n  0xffffffffffffffffffffffffffffffffffffffff\n  and\n  mul\n  or\n  swap1\n  sstore\n  pop\n    /* \"diceGame.sol\":887:898  _minimumBet */\n  dup1\n    /* \"diceGame.sol\":874:884  minimumBet */\n  0x01\n    /* \"diceGame.sol\":874:898  minimumBet = _minimumBet */\n  dup2\n  swap1\n  sstore\n  pop\n    /* \"diceGame.sol\":917:918  0 */\n  0x00\n    /* \"diceGame.sol\":908:914  gameId */\n  0x02\n    /* \"diceGame.sol\":908:918  gameId = 0 */\n  dup2\n  swap1\n  sstore\n  pop\n    /* \"diceGame.sol\":797:925  constructor(uint _minimumBet) public {... */\n  pop\n    /* \"diceGame.sol\":26:4082  contract DiceGame {... */\n  dataSize(sub_0)\n  dup1\n  dataOffset(sub_0)\n  0x00\n  codecopy\n  0x00\n  return\nstop\n\nsub_0: assembly {\n        /* \"diceGame.sol\":26:4082  contract DiceGame {... */\n      mstore(0x40, 0x80)\n      jumpi(tag_1, lt(calldatasize, 0x04))\n      shr(0xe0, calldataload(0x00))\n      dup1\n      0x886dc4d3\n      gt\n      tag_9\n      jumpi\n      dup1\n      0x886dc4d3\n      eq\n      tag_5\n      jumpi\n      dup1\n      0xbbf344ce\n      eq\n      tag_6\n      jumpi\n      dup1\n      0xc38a8afd\n      eq\n      tag_7\n      jumpi\n      dup1\n      0xe6ab6079\n      eq\n      tag_8\n      jumpi\n      jump(tag_1)\n    tag_9:\n      dup1\n      0x09660513\n      eq\n      tag_2\n      jumpi\n      dup1\n      0x0d0aa44a\n      eq\n      tag_3\n      jumpi\n      dup1\n      0x481c6a75\n      eq\n      tag_4\n      jumpi\n    tag_1:\n      0x00\n      dup1\n      revert\n        /* \"diceGame.sol\":3717:3963  function getGameById(uint id) public view returns(uint8 winningValue, uint restBalance, uint gameBalance) {... */\n    tag_2:\n      callvalue\n        /* \"--CODEGEN--\":8:17   */\n      dup1\n        /* \"--CODEGEN--\":5:7   */\n      iszero\n      tag_10\n      jumpi\n        /* \"--CODEGEN--\":30:31   */\n      0x00\n        /* \"--CODEGEN--\":27:28   */\n      dup1\n        /* \"--CODEGEN--\":20:32   */\n      revert\n        /* \"--CODEGEN--\":5:7   */\n    tag_10:\n        /* \"diceGame.sol\":3717:3963  function getGameById(uint id) public view returns(uint8 winningValue, uint restBalance, uint gameBalance) {... */\n      pop\n      tag_11\n      0x04\n      dup1\n      calldatasize\n      sub\n        /* \"--CODEGEN--\":13:15   */\n      0x20\n        /* \"--CODEGEN--\":8:11   */\n      dup2\n        /* \"--CODEGEN--\":5:16   */\n      lt\n        /* \"--CODEGEN--\":2:4   */\n      iszero\n      tag_12\n      jumpi\n        /* \"--CODEGEN--\":29:30   */\n      0x00\n        /* \"--CODEGEN--\":26:27   */\n      dup1\n        /* \"--CODEGEN--\":19:31   */\n      revert\n        /* \"--CODEGEN--\":2:4   */\n    tag_12:\n        /* \"diceGame.sol\":3717:3963  function getGameById(uint id) public view returns(uint8 winningValue, uint restBalance, uint gameBalance) {... */\n      dup2\n      add\n      swap1\n      dup1\n      dup1\n      calldataload\n      swap1\n      0x20\n      add\n      swap1\n      swap3\n      swap2\n      swap1\n      pop\n      pop\n      pop\n      tag_13\n      jump\t// in\n    tag_11:\n      mload(0x40)\n      dup1\n      dup5\n      0xff\n      and\n      0xff\n      and\n      dup2\n      mstore\n      0x20\n      add\n      dup4\n      dup2\n      mstore\n      0x20\n      add\n      dup3\n      dup2\n      mstore\n      0x20\n      add\n      swap4\n      pop\n      pop\n      pop\n      pop\n      mload(0x40)\n      dup1\n      swap2\n      sub\n      swap1\n      return\n        /* \"diceGame.sol\":935:1534  function setUserBetAndHash(bytes32 hashValue) public payable {... */\n    tag_3:\n      tag_14\n      0x04\n      dup1\n      calldatasize\n      sub\n        /* \"--CODEGEN--\":13:15   */\n      0x20\n        /* \"--CODEGEN--\":8:11   */\n      dup2\n        /* \"--CODEGEN--\":5:16   */\n      lt\n        /* \"--CODEGEN--\":2:4   */\n      iszero\n      tag_15\n      jumpi\n        /* \"--CODEGEN--\":29:30   */\n      0x00\n        /* \"--CODEGEN--\":26:27   */\n      dup1\n        /* \"--CODEGEN--\":19:31   */\n      revert\n        /* \"--CODEGEN--\":2:4   */\n    tag_15:\n        /* \"diceGame.sol\":935:1534  function setUserBetAndHash(bytes32 hashValue) public payable {... */\n      dup2\n      add\n      swap1\n      dup1\n      dup1\n      calldataload\n      swap1\n      0x20\n      add\n      swap1\n      swap3\n      swap2\n      swap1\n      pop\n      pop\n      pop\n      tag_16\n      jump\t// in\n    tag_14:\n      stop\n        /* \"diceGame.sol\":50:72  address public manager */\n    tag_4:\n      callvalue\n        /* \"--CODEGEN--\":8:17   */\n      dup1\n        /* \"--CODEGEN--\":5:7   */\n      iszero\n      tag_17\n      jumpi\n        /* \"--CODEGEN--\":30:31   */\n      0x00\n        /* \"--CODEGEN--\":27:28   */\n      dup1\n        /* \"--CODEGEN--\":20:32   */\n      revert\n        /* \"--CODEGEN--\":5:7   */\n    tag_17:\n        /* \"diceGame.sol\":50:72  address public manager */\n      pop\n      tag_18\n      tag_19\n      jump\t// in\n    tag_18:\n      mload(0x40)\n      dup1\n      dup3\n      0xffffffffffffffffffffffffffffffffffffffff\n      and\n      0xffffffffffffffffffffffffffffffffffffffff\n      and\n      dup2\n      mstore\n      0x20\n      add\n      swap2\n      pop\n      pop\n      mload(0x40)\n      dup1\n      swap2\n      sub\n      swap1\n      return\n        /* \"diceGame.sol\":2135:2576  function receiveMoney(uint8 userValue, uint _gameId) public payable returns (bool) {... */\n    tag_5:\n      tag_20\n      0x04\n      dup1\n      calldatasize\n      sub\n        /* \"--CODEGEN--\":13:15   */\n      0x40\n        /* \"--CODEGEN--\":8:11   */\n      dup2\n        /* \"--CODEGEN--\":5:16   */\n      lt\n        /* \"--CODEGEN--\":2:4   */\n      iszero\n      tag_21\n      jumpi\n        /* \"--CODEGEN--\":29:30   */\n      0x00\n        /* \"--CODEGEN--\":26:27   */\n      dup1\n        /* \"--CODEGEN--\":19:31   */\n      revert\n        /* \"--CODEGEN--\":2:4   */\n    tag_21:\n        /* \"diceGame.sol\":2135:2576  function receiveMoney(uint8 userValue, uint _gameId) public payable returns (bool) {... */\n      dup2\n      add\n      swap1\n      dup1\n      dup1\n      calldataload\n      0xff\n      and\n      swap1\n      0x20\n      add\n      swap1\n      swap3\n      swap2\n      swap1\n      dup1\n      calldataload\n      swap1\n      0x20\n      add\n      swap1\n      swap3\n      swap2\n      swap1\n      pop\n      pop\n      pop\n      tag_22\n      jump\t// in\n    tag_20:\n      mload(0x40)\n      dup1\n      dup3\n      iszero\n      iszero\n      iszero\n      iszero\n      dup2\n      mstore\n      0x20\n      add\n      swap2\n      pop\n      pop\n      mload(0x40)\n      dup1\n      swap2\n      sub\n      swap1\n      return\n        /* \"diceGame.sol\":3531:3707  function newGame(uint8 dice) public isManager {... */\n    tag_6:\n      callvalue\n        /* \"--CODEGEN--\":8:17   */\n      dup1\n        /* \"--CODEGEN--\":5:7   */\n      iszero\n      tag_23\n      jumpi\n        /* \"--CODEGEN--\":30:31   */\n      0x00\n        /* \"--CODEGEN--\":27:28   */\n      dup1\n        /* \"--CODEGEN--\":20:32   */\n      revert\n        /* \"--CODEGEN--\":5:7   */\n    tag_23:\n        /* \"diceGame.sol\":3531:3707  function newGame(uint8 dice) public isManager {... */\n      pop\n      tag_24\n      0x04\n      dup1\n      calldatasize\n      sub\n        /* \"--CODEGEN--\":13:15   */\n      0x20\n        /* \"--CODEGEN--\":8:11   */\n      dup2\n        /* \"--CODEGEN--\":5:16   */\n      lt\n        /* \"--CODEGEN--\":2:4   */\n      iszero\n      tag_25\n      jumpi\n        /* \"--CODEGEN--\":29:30   */\n      0x00\n        /* \"--CODEGEN--\":26:27   */\n      dup1\n        /* \"--CODEGEN--\":19:31   */\n      revert\n        /* \"--CODEGEN--\":2:4   */\n    tag_25:\n        /* \"diceGame.sol\":3531:3707  function newGame(uint8 dice) public isManager {... */\n      dup2\n      add\n      swap1\n      dup1\n      dup1\n      calldataload\n      0xff\n      and\n      swap1\n      0x20\n      add\n      swap1\n      swap3\n      swap2\n      swap1\n      pop\n      pop\n      pop\n      tag_26\n      jump\t// in\n    tag_24:\n      stop\n        /* \"diceGame.sol\":78:100  uint public minimumBet */\n    tag_7:\n      callvalue\n        /* \"--CODEGEN--\":8:17   */\n      dup1\n        /* \"--CODEGEN--\":5:7   */\n      iszero\n      tag_27\n      jumpi\n        /* \"--CODEGEN--\":30:31   */\n      0x00\n        /* \"--CODEGEN--\":27:28   */\n      dup1\n        /* \"--CODEGEN--\":20:32   */\n      revert\n        /* \"--CODEGEN--\":5:7   */\n    tag_27:\n        /* \"diceGame.sol\":78:100  uint public minimumBet */\n      pop\n      tag_28\n      tag_29\n      jump\t// in\n    tag_28:\n      mload(0x40)\n      dup1\n      dup3\n      dup2\n      mstore\n      0x20\n      add\n      swap2\n      pop\n      pop\n      mload(0x40)\n      dup1\n      swap2\n      sub\n      swap1\n      return\n        /* \"diceGame.sol\":3353:3521  function startGame(uint8 dice) public isManager {... */\n    tag_8:\n      callvalue\n        /* \"--CODEGEN--\":8:17   */\n      dup1\n        /* \"--CODEGEN--\":5:7   */\n      iszero\n      tag_30\n      jumpi\n        /* \"--CODEGEN--\":30:31   */\n      0x00\n        /* \"--CODEGEN--\":27:28   */\n      dup1\n        /* \"--CODEGEN--\":20:32   */\n      revert\n        /* \"--CODEGEN--\":5:7   */\n    tag_30:\n        /* \"diceGame.sol\":3353:3521  function startGame(uint8 dice) public isManager {... */\n      pop\n      tag_31\n      0x04\n      dup1\n      calldatasize\n      sub\n        /* \"--CODEGEN--\":13:15   */\n      0x20\n        /* \"--CODEGEN--\":8:11   */\n      dup2\n        /* \"--CODEGEN--\":5:16   */\n      lt\n        /* \"--CODEGEN--\":2:4   */\n      iszero\n      tag_32\n      jumpi\n        /* \"--CODEGEN--\":29:30   */\n      0x00\n        /* \"--CODEGEN--\":26:27   */\n      dup1\n        /* \"--CODEGEN--\":19:31   */\n      revert\n        /* \"--CODEGEN--\":2:4   */\n    tag_32:\n        /* \"diceGame.sol\":3353:3521  function startGame(uint8 dice) public isManager {... */\n      dup2\n      add\n      swap1\n      dup1\n      dup1\n      calldataload\n      0xff\n      and\n      swap1\n      0x20\n      add\n      swap1\n      swap3\n      swap2\n      swap1\n      pop\n      pop\n      pop\n      tag_33\n      jump\t// in\n    tag_31:\n      stop\n        /* \"diceGame.sol\":3717:3963  function getGameById(uint id) public view returns(uint8 winningValue, uint restBalance, uint gameBalance) {... */\n    tag_13:\n        /* \"diceGame.sol\":3767:3785  uint8 winningValue */\n      0x00\n        /* \"diceGame.sol\":3787:3803  uint restBalance */\n      dup1\n        /* \"diceGame.sol\":3805:3821  uint gameBalance */\n      0x00\n        /* \"diceGame.sol\":3854:3859  games */\n      0x04\n        /* \"diceGame.sol\":3854:3863  games[id] */\n      0x00\n        /* \"diceGame.sol\":3860:3862  id */\n      dup6\n        /* \"diceGame.sol\":3854:3863  games[id] */\n      dup2\n      mstore\n      0x20\n      add\n      swap1\n      dup2\n      mstore\n      0x20\n      add\n      0x00\n      keccak256\n        /* \"diceGame.sol\":3854:3876  games[id].winningValue */\n      0x02\n      add\n      0x00\n      swap1\n      sload\n      swap1\n      0x0100\n      exp\n      swap1\n      div\n      0xff\n      and\n        /* \"diceGame.sol\":3890:3895  games */\n      0x04\n        /* \"diceGame.sol\":3890:3899  games[id] */\n      0x00\n        /* \"diceGame.sol\":3896:3898  id */\n      dup7\n        /* \"diceGame.sol\":3890:3899  games[id] */\n      dup2\n      mstore\n      0x20\n      add\n      swap1\n      dup2\n      mstore\n      0x20\n      add\n      0x00\n      keccak256\n        /* \"diceGame.sol\":3890:3911  games[id].restBalance */\n      0x05\n      add\n      sload\n        /* \"diceGame.sol\":3925:3930  games */\n      0x04\n        /* \"diceGame.sol\":3925:3934  games[id] */\n      0x00\n        /* \"diceGame.sol\":3931:3933  id */\n      dup8\n        /* \"diceGame.sol\":3925:3934  games[id] */\n      dup2\n      mstore\n      0x20\n      add\n      swap1\n      dup2\n      mstore\n      0x20\n      add\n      0x00\n      keccak256\n        /* \"diceGame.sol\":3925:3946  games[id].gameBalance */\n      0x06\n      add\n      sload\n        /* \"diceGame.sol\":3833:3956  return (... */\n      swap3\n      pop\n      swap3\n      pop\n      swap3\n      pop\n        /* \"diceGame.sol\":3717:3963  function getGameById(uint id) public view returns(uint8 winningValue, uint restBalance, uint gameBalance) {... */\n      swap2\n      swap4\n      swap1\n      swap3\n      pop\n      jump\t// out\n        /* \"diceGame.sol\":935:1534  function setUserBetAndHash(bytes32 hashValue) public payable {... */\n    tag_16:\n        /* \"diceGame.sol\":1006:1027  address senderAddress */\n      0x00\n        /* \"diceGame.sol\":1030:1040  msg.sender */\n      caller\n        /* \"diceGame.sol\":1006:1040  address senderAddress = msg.sender */\n      swap1\n      pop\n        /* \"diceGame.sol\":1075:1082  manager */\n      0x00\n      dup1\n      swap1\n      sload\n      swap1\n      0x0100\n      exp\n      swap1\n      div\n      0xffffffffffffffffffffffffffffffffffffffff\n      and\n        /* \"diceGame.sol\":1058:1082  senderAddress != manager */\n      0xffffffffffffffffffffffffffffffffffffffff\n      and\n        /* \"diceGame.sol\":1058:1071  senderAddress */\n      dup2\n        /* \"diceGame.sol\":1058:1082  senderAddress != manager */\n      0xffffffffffffffffffffffffffffffffffffffff\n      and\n      eq\n      iszero\n        /* \"diceGame.sol\":1050:1113  require(senderAddress != manager, \"Manager cannot bet a value\") */\n      tag_36\n      jumpi\n      mload(0x40)\n      0x08c379a000000000000000000000000000000000000000000000000000000000\n      dup2\n      mstore\n      0x04\n      add\n      dup1\n      dup1\n      0x20\n      add\n      dup3\n      dup2\n      sub\n      dup3\n      mstore\n      0x1a\n      dup2\n      mstore\n      0x20\n      add\n      dup1\n      0x4d616e616765722063616e6e6f742062657420612076616c7565000000000000\n      dup2\n      mstore\n      pop\n      0x20\n      add\n      swap2\n      pop\n      pop\n      mload(0x40)\n      dup1\n      swap2\n      sub\n      swap1\n      revert\n    tag_36:\n        /* \"diceGame.sol\":1181:1182  0 */\n      0x00\n        /* \"diceGame.sol\":1131:1182  games[gameId].players[senderAddress].hashValue == 0 */\n      dup1\n      shl\n        /* \"diceGame.sol\":1131:1136  games */\n      0x04\n        /* \"diceGame.sol\":1131:1144  games[gameId] */\n      0x00\n        /* \"diceGame.sol\":1137:1143  gameId */\n      sload(0x02)\n        /* \"diceGame.sol\":1131:1144  games[gameId] */\n      dup2\n      mstore\n      0x20\n      add\n      swap1\n      dup2\n      mstore\n      0x20\n      add\n      0x00\n      keccak256\n        /* \"diceGame.sol\":1131:1152  games[gameId].players */\n      0x00\n      add\n        /* \"diceGame.sol\":1131:1167  games[gameId].players[senderAddress] */\n      0x00\n        /* \"diceGame.sol\":1153:1166  senderAddress */\n      dup4\n        /* \"diceGame.sol\":1131:1167  games[gameId].players[senderAddress] */\n      0xffffffffffffffffffffffffffffffffffffffff\n      and\n      0xffffffffffffffffffffffffffffffffffffffff\n      and\n      dup2\n      mstore\n      0x20\n      add\n      swap1\n      dup2\n      mstore\n      0x20\n      add\n      0x00\n      keccak256\n        /* \"diceGame.sol\":1131:1177  games[gameId].players[senderAddress].hashValue */\n      0x00\n      add\n      sload\n        /* \"diceGame.sol\":1131:1182  games[gameId].players[senderAddress].hashValue == 0 */\n      eq\n        /* \"diceGame.sol\":1123:1212  require(games[gameId].players[senderAddress].hashValue == 0, \"Player already bet number\") */\n      tag_37\n      jumpi\n      mload(0x40)\n      0x08c379a000000000000000000000000000000000000000000000000000000000\n      dup2\n      mstore\n      0x04\n      add\n      dup1\n      dup1\n      0x20\n      add\n      dup3\n      dup2\n      sub\n      dup3\n      mstore\n      0x19\n      dup2\n      mstore\n      0x20\n      add\n      dup1\n      0x506c6179657220616c726561647920626574206e756d62657200000000000000\n      dup2\n      mstore\n      pop\n      0x20\n      add\n      swap2\n      pop\n      pop\n      mload(0x40)\n      dup1\n      swap2\n      sub\n      swap1\n      revert\n    tag_37:\n        /* \"diceGame.sol\":1242:1252  minimumBet */\n      sload(0x01)\n        /* \"diceGame.sol\":1230:1239  msg.value */\n      callvalue\n        /* \"diceGame.sol\":1230:1252  msg.value > minimumBet */\n      gt\n        /* \"diceGame.sol\":1222:1285  require(msg.value > minimumBet, \"You Bet less then minimumBet\") */\n      tag_38\n      jumpi\n      mload(0x40)\n      0x08c379a000000000000000000000000000000000000000000000000000000000\n      dup2\n      mstore\n      0x04\n      add\n      dup1\n      dup1\n      0x20\n      add\n      dup3\n      dup2\n      sub\n      dup3\n      mstore\n      0x1c\n      dup2\n      mstore\n      0x20\n      add\n      dup1\n      0x596f7520426574206c657373207468656e206d696e696d756d42657400000000\n      dup2\n      mstore\n      pop\n      0x20\n      add\n      swap2\n      pop\n      pop\n      mload(0x40)\n      dup1\n      swap2\n      sub\n      swap1\n      revert\n    tag_38:\n        /* \"diceGame.sol\":1344:1353  hashValue */\n      dup2\n        /* \"diceGame.sol\":1295:1300  games */\n      0x04\n        /* \"diceGame.sol\":1295:1308  games[gameId] */\n      0x00\n        /* \"diceGame.sol\":1301:1307  gameId */\n      sload(0x02)\n        /* \"diceGame.sol\":1295:1308  games[gameId] */\n      dup2\n      mstore\n      0x20\n      add\n      swap1\n      dup2\n      mstore\n      0x20\n      add\n      0x00\n      keccak256\n        /* \"diceGame.sol\":1295:1316  games[gameId].players */\n      0x00\n      add\n        /* \"diceGame.sol\":1295:1331  games[gameId].players[senderAddress] */\n      0x00\n        /* \"diceGame.sol\":1317:1330  senderAddress */\n      dup4\n        /* \"diceGame.sol\":1295:1331  games[gameId].players[senderAddress] */\n      0xffffffffffffffffffffffffffffffffffffffff\n      and\n      0xffffffffffffffffffffffffffffffffffffffff\n      and\n      dup2\n      mstore\n      0x20\n      add\n      swap1\n      dup2\n      mstore\n      0x20\n      add\n      0x00\n      keccak256\n        /* \"diceGame.sol\":1295:1341  games[gameId].players[senderAddress].hashValue */\n      0x00\n      add\n        /* \"diceGame.sol\":1295:1353  games[gameId].players[senderAddress].hashValue = hashValue */\n      dup2\n      swap1\n      sstore\n      pop\n        /* \"diceGame.sol\":1411:1420  msg.value */\n      callvalue\n        /* \"diceGame.sol\":1363:1368  games */\n      0x04\n        /* \"diceGame.sol\":1363:1376  games[gameId] */\n      0x00\n        /* \"diceGame.sol\":1369:1375  gameId */\n      sload(0x02)\n        /* \"diceGame.sol\":1363:1376  games[gameId] */\n      dup2\n      mstore\n      0x20\n      add\n      swap1\n      dup2\n      mstore\n      0x20\n      add\n      0x00\n      keccak256\n        /* \"diceGame.sol\":1363:1384  games[gameId].players */\n      0x00\n      add\n        /* \"diceGame.sol\":1363:1399  games[gameId].players[senderAddress] */\n      0x00\n        /* \"diceGame.sol\":1385:1398  senderAddress */\n      dup4\n        /* \"diceGame.sol\":1363:1399  games[gameId].players[senderAddress] */\n      0xffffffffffffffffffffffffffffffffffffffff\n      and\n      0xffffffffffffffffffffffffffffffffffffffff\n      and\n      dup2\n      mstore\n      0x20\n      add\n      swap1\n      dup2\n      mstore\n      0x20\n      add\n      0x00\n      keccak256\n        /* \"diceGame.sol\":1363:1408  games[gameId].players[senderAddress].betValue */\n      0x01\n      add\n        /* \"diceGame.sol\":1363:1420  games[gameId].players[senderAddress].betValue = msg.value */\n      dup2\n      swap1\n      sstore\n      pop\n        /* \"diceGame.sol\":1430:1435  games */\n      0x04\n        /* \"diceGame.sol\":1430:1443  games[gameId] */\n      0x00\n        /* \"diceGame.sol\":1436:1442  gameId */\n      sload(0x02)\n        /* \"diceGame.sol\":1430:1443  games[gameId] */\n      dup2\n      mstore\n      0x20\n      add\n      swap1\n      dup2\n      mstore\n      0x20\n      add\n      0x00\n      keccak256\n        /* \"diceGame.sol\":1430:1459  games[gameId].playerAddresses */\n      0x01\n      add\n        /* \"diceGame.sol\":1465:1478  senderAddress */\n      dup2\n        /* \"diceGame.sol\":1430:1479  games[gameId].playerAddresses.push(senderAddress) */\n      swap1\n      dup1\n        /* \"--CODEGEN--\":39:40   */\n      0x01\n        /* \"--CODEGEN--\":33:36   */\n      dup2\n        /* \"--CODEGEN--\":27:37   */\n      sload\n        /* \"--CODEGEN--\":23:41   */\n      add\n        /* \"--CODEGEN--\":57:67   */\n      dup1\n        /* \"--CODEGEN--\":52:55   */\n      dup3\n        /* \"--CODEGEN--\":45:68   */\n      sstore\n        /* \"--CODEGEN--\":79:89   */\n      dup1\n        /* \"--CODEGEN--\":72:89   */\n      swap2\n      pop\n        /* \"--CODEGEN--\":0:93   */\n      pop\n        /* \"diceGame.sol\":1430:1479  games[gameId].playerAddresses.push(senderAddress) */\n      swap1\n      0x01\n      dup3\n      sub\n      swap1\n      0x00\n      mstore\n      keccak256(0x00, 0x20)\n      add\n      0x00\n      swap1\n      swap2\n      swap3\n      swap1\n      swap2\n      swap1\n      swap2\n      0x0100\n      exp\n      dup2\n      sload\n      dup2\n      0xffffffffffffffffffffffffffffffffffffffff\n      mul\n      not\n      and\n      swap1\n      dup4\n      0xffffffffffffffffffffffffffffffffffffffff\n      and\n      mul\n      or\n      swap1\n      sstore\n      pop\n      pop\n        /* \"diceGame.sol\":1518:1527  msg.value */\n      callvalue\n        /* \"diceGame.sol\":1489:1494  games */\n      0x04\n        /* \"diceGame.sol\":1489:1502  games[gameId] */\n      0x00\n        /* \"diceGame.sol\":1495:1501  gameId */\n      sload(0x02)\n        /* \"diceGame.sol\":1489:1502  games[gameId] */\n      dup2\n      mstore\n      0x20\n      add\n      swap1\n      dup2\n      mstore\n      0x20\n      add\n      0x00\n      keccak256\n        /* \"diceGame.sol\":1489:1514  games[gameId].gameBalance */\n      0x06\n      add\n      0x00\n        /* \"diceGame.sol\":1489:1527  games[gameId].gameBalance += msg.value */\n      dup3\n      dup3\n      sload\n      add\n      swap3\n      pop\n      pop\n      dup2\n      swap1\n      sstore\n      pop\n        /* \"diceGame.sol\":935:1534  function setUserBetAndHash(bytes32 hashValue) public payable {... */\n      pop\n      pop\n      jump\t// out\n        /* \"diceGame.sol\":50:72  address public manager */\n    tag_19:\n      0x00\n      dup1\n      swap1\n      sload\n      swap1\n      0x0100\n      exp\n      swap1\n      div\n      0xffffffffffffffffffffffffffffffffffffffff\n      and\n      dup2\n      jump\t// out\n        /* \"diceGame.sol\":2135:2576  function receiveMoney(uint8 userValue, uint _gameId) public payable returns (bool) {... */\n    tag_22:\n        /* \"diceGame.sol\":2212:2216  bool */\n      0x00\n        /* \"diceGame.sol\":2232:2266  checkUserValue(userValue, _gameId) */\n      tag_41\n        /* \"diceGame.sol\":2247:2256  userValue */\n      dup4\n        /* \"diceGame.sol\":2258:2265  _gameId */\n      dup4\n        /* \"diceGame.sol\":2232:2246  checkUserValue */\n      tag_42\n        /* \"diceGame.sol\":2232:2266  checkUserValue(userValue, _gameId) */\n      jump\t// in\n    tag_41:\n        /* \"diceGame.sol\":2228:2570  if (checkUserValue(userValue, _gameId)) {... */\n      iszero\n      tag_43\n      jumpi\n        /* \"diceGame.sol\":2282:2292  uint money */\n      0x00\n        /* \"diceGame.sol\":2370:2375  games */\n      0x04\n        /* \"diceGame.sol\":2370:2384  games[_gameId] */\n      0x00\n        /* \"diceGame.sol\":2376:2383  _gameId */\n      dup5\n        /* \"diceGame.sol\":2370:2384  games[_gameId] */\n      dup2\n      mstore\n      0x20\n      add\n      swap1\n      dup2\n      mstore\n      0x20\n      add\n      0x00\n      keccak256\n        /* \"diceGame.sol\":2370:2402  games[_gameId].allWinnersBalance */\n      0x04\n      add\n      sload\n        /* \"diceGame.sol\":2341:2346  games */\n      0x04\n        /* \"diceGame.sol\":2341:2355  games[_gameId] */\n      0x00\n        /* \"diceGame.sol\":2347:2354  _gameId */\n      dup6\n        /* \"diceGame.sol\":2341:2355  games[_gameId] */\n      dup2\n      mstore\n      0x20\n      add\n      swap1\n      dup2\n      mstore\n      0x20\n      add\n      0x00\n      keccak256\n        /* \"diceGame.sol\":2341:2367  games[_gameId].gameBalance */\n      0x06\n      add\n      sload\n        /* \"diceGame.sol\":2295:2300  games */\n      0x04\n        /* \"diceGame.sol\":2295:2309  games[_gameId] */\n      0x00\n        /* \"diceGame.sol\":2301:2308  _gameId */\n      dup7\n        /* \"diceGame.sol\":2295:2309  games[_gameId] */\n      dup2\n      mstore\n      0x20\n      add\n      swap1\n      dup2\n      mstore\n      0x20\n      add\n      0x00\n      keccak256\n        /* \"diceGame.sol\":2295:2317  games[_gameId].players */\n      0x00\n      add\n        /* \"diceGame.sol\":2295:2329  games[_gameId].players[msg.sender] */\n      0x00\n        /* \"diceGame.sol\":2318:2328  msg.sender */\n      caller\n        /* \"diceGame.sol\":2295:2329  games[_gameId].players[msg.sender] */\n      0xffffffffffffffffffffffffffffffffffffffff\n      and\n      0xffffffffffffffffffffffffffffffffffffffff\n      and\n      dup2\n      mstore\n      0x20\n      add\n      swap1\n      dup2\n      mstore\n      0x20\n      add\n      0x00\n      keccak256\n        /* \"diceGame.sol\":2295:2338  games[_gameId].players[msg.sender].betValue */\n      0x01\n      add\n      sload\n        /* \"diceGame.sol\":2295:2367  games[_gameId].players[msg.sender].betValue * games[_gameId].gameBalance */\n      mul\n        /* \"diceGame.sol\":2295:2402  games[_gameId].players[msg.sender].betValue * games[_gameId].gameBalance / games[_gameId].allWinnersBalance */\n      dup2\n      tag_44\n      jumpi\n      invalid\n    tag_44:\n      div\n        /* \"diceGame.sol\":2282:2402  uint money = games[_gameId].players[msg.sender].betValue * games[_gameId].gameBalance / games[_gameId].allWinnersBalance */\n      swap1\n      pop\n        /* \"diceGame.sol\":2416:2426  msg.sender */\n      caller\n        /* \"diceGame.sol\":2416:2435  msg.sender.transfer */\n      0xffffffffffffffffffffffffffffffffffffffff\n      and\n        /* \"diceGame.sol\":2416:2442  msg.sender.transfer(money) */\n      0x08fc\n        /* \"diceGame.sol\":2436:2441  money */\n      dup3\n        /* \"diceGame.sol\":2416:2442  msg.sender.transfer(money) */\n      swap1\n      dup2\n      iszero\n      mul\n      swap1\n      mload(0x40)\n      0x00\n      mload(0x40)\n      dup1\n      dup4\n      sub\n      dup2\n      dup6\n      dup9\n      dup9\n      call\n      swap4\n      pop\n      pop\n      pop\n      pop\n      iszero\n        /* \"--CODEGEN--\":8:17   */\n      dup1\n        /* \"--CODEGEN--\":5:7   */\n      iszero\n      tag_45\n      jumpi\n        /* \"--CODEGEN--\":45:61   */\n      returndatasize\n        /* \"--CODEGEN--\":42:43   */\n      0x00\n        /* \"--CODEGEN--\":39:40   */\n      dup1\n        /* \"--CODEGEN--\":24:62   */\n      returndatacopy\n        /* \"--CODEGEN--\":77:93   */\n      returndatasize\n        /* \"--CODEGEN--\":74:75   */\n      0x00\n        /* \"--CODEGEN--\":67:94   */\n      revert\n        /* \"--CODEGEN--\":5:7   */\n    tag_45:\n        /* \"diceGame.sol\":2416:2442  msg.sender.transfer(money) */\n      pop\n        /* \"diceGame.sol\":2486:2491  money */\n      dup1\n        /* \"diceGame.sol\":2456:2461  games */\n      0x04\n        /* \"diceGame.sol\":2456:2470  games[_gameId] */\n      0x00\n        /* \"diceGame.sol\":2462:2469  _gameId */\n      dup6\n        /* \"diceGame.sol\":2456:2470  games[_gameId] */\n      dup2\n      mstore\n      0x20\n      add\n      swap1\n      dup2\n      mstore\n      0x20\n      add\n      0x00\n      keccak256\n        /* \"diceGame.sol\":2456:2482  games[_gameId].restBalance */\n      0x05\n      add\n      0x00\n        /* \"diceGame.sol\":2456:2491  games[_gameId].restBalance -= money */\n      dup3\n      dup3\n      sload\n      sub\n      swap3\n      pop\n      pop\n      dup2\n      swap1\n      sstore\n      pop\n        /* \"diceGame.sol\":2512:2516  true */\n      0x01\n        /* \"diceGame.sol\":2505:2516  return true */\n      swap2\n      pop\n      pop\n      jump(tag_40)\n        /* \"diceGame.sol\":2228:2570  if (checkUserValue(userValue, _gameId)) {... */\n    tag_43:\n        /* \"diceGame.sol\":2554:2559  false */\n      0x00\n        /* \"diceGame.sol\":2547:2559  return false */\n      swap1\n      pop\n        /* \"diceGame.sol\":2135:2576  function receiveMoney(uint8 userValue, uint _gameId) public payable returns (bool) {... */\n    tag_40:\n      swap3\n      swap2\n      pop\n      pop\n      jump\t// out\n        /* \"diceGame.sol\":3531:3707  function newGame(uint8 dice) public isManager {... */\n    tag_26:\n        /* \"diceGame.sol\":722:729  manager */\n      0x00\n      dup1\n      swap1\n      sload\n      swap1\n      0x0100\n      exp\n      swap1\n      div\n      0xffffffffffffffffffffffffffffffffffffffff\n      and\n        /* \"diceGame.sol\":708:729  msg.sender == manager */\n      0xffffffffffffffffffffffffffffffffffffffff\n      and\n        /* \"diceGame.sol\":708:718  msg.sender */\n      caller\n        /* \"diceGame.sol\":708:729  msg.sender == manager */\n      0xffffffffffffffffffffffffffffffffffffffff\n      and\n      eq\n        /* \"diceGame.sol\":700:769  require(msg.sender == manager, \"Only manager can call this function\") */\n      tag_48\n      jumpi\n      mload(0x40)\n      0x08c379a000000000000000000000000000000000000000000000000000000000\n      dup2\n      mstore\n      0x04\n      add\n      dup1\n      dup1\n      0x20\n      add\n      dup3\n      dup2\n      sub\n      dup3\n      mstore\n      0x23\n      dup2\n      mstore\n      0x20\n      add\n      dup1\n      data_4a8d8e59ed510e06a8e0260cfe413b20861d9f571b155941f3970d9306e4b948\n      0x23\n      swap2\n      codecopy\n      0x40\n      add\n      swap2\n      pop\n      pop\n      mload(0x40)\n      dup1\n      swap2\n      sub\n      swap1\n      revert\n    tag_48:\n        /* \"diceGame.sol\":3595:3606  gameStarted */\n      0x03\n      0x00\n      swap1\n      sload\n      swap1\n      0x0100\n      exp\n      swap1\n      div\n      0xff\n      and\n        /* \"diceGame.sol\":3587:3633  require(gameStarted, \"The game did not start\") */\n      tag_50\n      jumpi\n      mload(0x40)\n      0x08c379a000000000000000000000000000000000000000000000000000000000\n      dup2\n      mstore\n      0x04\n      add\n      dup1\n      dup1\n      0x20\n      add\n      dup3\n      dup2\n      sub\n      dup3\n      mstore\n      0x16\n      dup2\n      mstore\n      0x20\n      add\n      dup1\n      0x5468652067616d6520646964206e6f7420737461727400000000000000000000\n      dup2\n      mstore\n      pop\n      0x20\n      add\n      swap2\n      pop\n      pop\n      mload(0x40)\n      dup1\n      swap2\n      sub\n      swap1\n      revert\n    tag_50:\n        /* \"diceGame.sol\":3643:3652  setGame() */\n      tag_51\n        /* \"diceGame.sol\":3643:3650  setGame */\n      tag_52\n        /* \"diceGame.sol\":3643:3652  setGame() */\n      jump\t// in\n    tag_51:\n        /* \"diceGame.sol\":3662:3668  gameId */\n      0x02\n      0x00\n        /* \"diceGame.sol\":3662:3670  gameId++ */\n      dup2\n      sload\n      dup1\n      swap3\n      swap2\n      swap1\n      0x01\n      add\n      swap2\n      swap1\n      pop\n      sstore\n      pop\n        /* \"diceGame.sol\":3680:3700  setServerValue(dice) */\n      tag_53\n        /* \"diceGame.sol\":3695:3699  dice */\n      dup2\n        /* \"diceGame.sol\":3680:3694  setServerValue */\n      tag_54\n        /* \"diceGame.sol\":3680:3700  setServerValue(dice) */\n      jump\t// in\n    tag_53:\n        /* \"diceGame.sol\":3531:3707  function newGame(uint8 dice) public isManager {... */\n      pop\n      jump\t// out\n        /* \"diceGame.sol\":78:100  uint public minimumBet */\n    tag_29:\n      sload(0x01)\n      dup2\n      jump\t// out\n        /* \"diceGame.sol\":3353:3521  function startGame(uint8 dice) public isManager {... */\n    tag_33:\n        /* \"diceGame.sol\":722:729  manager */\n      0x00\n      dup1\n      swap1\n      sload\n      swap1\n      0x0100\n      exp\n      swap1\n      div\n      0xffffffffffffffffffffffffffffffffffffffff\n      and\n        /* \"diceGame.sol\":708:729  msg.sender == manager */\n      0xffffffffffffffffffffffffffffffffffffffff\n      and\n        /* \"diceGame.sol\":708:718  msg.sender */\n      caller\n        /* \"diceGame.sol\":708:729  msg.sender == manager */\n      0xffffffffffffffffffffffffffffffffffffffff\n      and\n      eq\n        /* \"diceGame.sol\":700:769  require(msg.sender == manager, \"Only manager can call this function\") */\n      tag_56\n      jumpi\n      mload(0x40)\n      0x08c379a000000000000000000000000000000000000000000000000000000000\n      dup2\n      mstore\n      0x04\n      add\n      dup1\n      dup1\n      0x20\n      add\n      dup3\n      dup2\n      sub\n      dup3\n      mstore\n      0x23\n      dup2\n      mstore\n      0x20\n      add\n      dup1\n      data_4a8d8e59ed510e06a8e0260cfe413b20861d9f571b155941f3970d9306e4b948\n      0x23\n      swap2\n      codecopy\n      0x40\n      add\n      swap2\n      pop\n      pop\n      mload(0x40)\n      dup1\n      swap2\n      sub\n      swap1\n      revert\n    tag_56:\n        /* \"diceGame.sol\":3420:3431  gameStarted */\n      0x03\n      0x00\n      swap1\n      sload\n      swap1\n      0x0100\n      exp\n      swap1\n      div\n      0xff\n      and\n        /* \"diceGame.sol\":3419:3431  !gameStarted */\n      iszero\n        /* \"diceGame.sol\":3411:3456  require(!gameStarted, \"It is not start Game\") */\n      tag_58\n      jumpi\n      mload(0x40)\n      0x08c379a000000000000000000000000000000000000000000000000000000000\n      dup2\n      mstore\n      0x04\n      add\n      dup1\n      dup1\n      0x20\n      add\n      dup3\n      dup2\n      sub\n      dup3\n      mstore\n      0x14\n      dup2\n      mstore\n      0x20\n      add\n      dup1\n      0x4974206973206e6f742073746172742047616d65000000000000000000000000\n      dup2\n      mstore\n      pop\n      0x20\n      add\n      swap2\n      pop\n      pop\n      mload(0x40)\n      dup1\n      swap2\n      sub\n      swap1\n      revert\n    tag_58:\n        /* \"diceGame.sol\":3480:3484  true */\n      0x01\n        /* \"diceGame.sol\":3466:3477  gameStarted */\n      0x03\n      0x00\n        /* \"diceGame.sol\":3466:3484  gameStarted = true */\n      0x0100\n      exp\n      dup2\n      sload\n      dup2\n      0xff\n      mul\n      not\n      and\n      swap1\n      dup4\n      iszero\n      iszero\n      mul\n      or\n      swap1\n      sstore\n      pop\n        /* \"diceGame.sol\":3494:3514  setServerValue(dice) */\n      tag_59\n        /* \"diceGame.sol\":3509:3513  dice */\n      dup2\n        /* \"diceGame.sol\":3494:3508  setServerValue */\n      tag_54\n        /* \"diceGame.sol\":3494:3514  setServerValue(dice) */\n      jump\t// in\n    tag_59:\n        /* \"diceGame.sol\":3353:3521  function startGame(uint8 dice) public isManager {... */\n      pop\n      jump\t// out\n        /* \"diceGame.sol\":1544:2125  function checkUserValue(uint8 userValue, uint _gameId) private view between1and12(userValue) returns (bool) {... */\n    tag_42:\n        /* \"diceGame.sol\":1646:1650  bool */\n      0x00\n        /* \"diceGame.sol\":1626:1635  userValue */\n      dup3\n        /* \"diceGame.sol\":528:659  modifier between1and12(uint value) {... */\n      0xff\n      and\n        /* \"diceGame.sol\":590:591  1 */\n      0x01\n        /* \"diceGame.sol\":581:586  value */\n      dup2\n        /* \"diceGame.sol\":581:591  value >= 1 */\n      lt\n      iszero\n        /* \"diceGame.sol\":581:606  value >= 1 && value <= 12 */\n      dup1\n      iszero\n      tag_61\n      jumpi\n      pop\n        /* \"diceGame.sol\":604:606  12 */\n      0x0c\n        /* \"diceGame.sol\":595:600  value */\n      dup2\n        /* \"diceGame.sol\":595:606  value <= 12 */\n      gt\n      iszero\n        /* \"diceGame.sol\":581:606  value >= 1 && value <= 12 */\n    tag_61:\n        /* \"diceGame.sol\":573:641  require(value >= 1 && value <= 12, \"The number is not from 1 to 12\") */\n      tag_62\n      jumpi\n      mload(0x40)\n      0x08c379a000000000000000000000000000000000000000000000000000000000\n      dup2\n      mstore\n      0x04\n      add\n      dup1\n      dup1\n      0x20\n      add\n      dup3\n      dup2\n      sub\n      dup3\n      mstore\n      0x1e\n      dup2\n      mstore\n      0x20\n      add\n      dup1\n      0x546865206e756d626572206973206e6f742066726f6d203120746f2031320000\n      dup2\n      mstore\n      pop\n      0x20\n      add\n      swap2\n      pop\n      pop\n      mload(0x40)\n      dup1\n      swap2\n      sub\n      swap1\n      revert\n    tag_62:\n        /* \"diceGame.sol\":1671:1676  games */\n      0x04\n        /* \"diceGame.sol\":1671:1685  games[_gameId] */\n      0x00\n        /* \"diceGame.sol\":1677:1684  _gameId */\n      dup5\n        /* \"diceGame.sol\":1671:1685  games[_gameId] */\n      dup2\n      mstore\n      0x20\n      add\n      swap1\n      dup2\n      mstore\n      0x20\n      add\n      0x00\n      keccak256\n        /* \"diceGame.sol\":1671:1693  games[_gameId].players */\n      0x00\n      add\n        /* \"diceGame.sol\":1671:1705  games[_gameId].players[msg.sender] */\n      0x00\n        /* \"diceGame.sol\":1694:1704  msg.sender */\n      caller\n        /* \"diceGame.sol\":1671:1705  games[_gameId].players[msg.sender] */\n      0xffffffffffffffffffffffffffffffffffffffff\n      and\n      0xffffffffffffffffffffffffffffffffffffffff\n      and\n      dup2\n      mstore\n      0x20\n      add\n      swap1\n      dup2\n      mstore\n      0x20\n      add\n      0x00\n      keccak256\n        /* \"diceGame.sol\":1671:1714  games[_gameId].players[msg.sender].received */\n      0x02\n      add\n      0x00\n      swap1\n      sload\n      swap1\n      0x0100\n      exp\n      swap1\n      div\n      0xff\n      and\n        /* \"diceGame.sol\":1670:1714  !games[_gameId].players[msg.sender].received */\n      iszero\n        /* \"diceGame.sol\":1662:1749  require(!games[_gameId].players[msg.sender].received, \"Player already receive a money\") */\n      tag_64\n      jumpi\n      mload(0x40)\n      0x08c379a000000000000000000000000000000000000000000000000000000000\n      dup2\n      mstore\n      0x04\n      add\n      dup1\n      dup1\n      0x20\n      add\n      dup3\n      dup2\n      sub\n      dup3\n      mstore\n      0x1e\n      dup2\n      mstore\n      0x20\n      add\n      dup1\n      0x506c6179657220616c726561647920726563656976652061206d6f6e65790000\n      dup2\n      mstore\n      pop\n      0x20\n      add\n      swap2\n      pop\n      pop\n      mload(0x40)\n      dup1\n      swap2\n      sub\n      swap1\n      revert\n    tag_64:\n        /* \"diceGame.sol\":1778:1779  0 */\n      0x00\n        /* \"diceGame.sol\":1767:1774  _gameId */\n      dup4\n        /* \"diceGame.sol\":1767:1779  _gameId >= 0 */\n      lt\n      iszero\n        /* \"diceGame.sol\":1767:1799  _gameId >= 0 && _gameId < gameId */\n      dup1\n      iszero\n      tag_65\n      jumpi\n      pop\n        /* \"diceGame.sol\":1793:1799  gameId */\n      sload(0x02)\n        /* \"diceGame.sol\":1783:1790  _gameId */\n      dup4\n        /* \"diceGame.sol\":1783:1799  _gameId < gameId */\n      lt\n        /* \"diceGame.sol\":1767:1799  _gameId >= 0 && _gameId < gameId */\n    tag_65:\n        /* \"diceGame.sol\":1759:1821  require(_gameId >= 0 && _gameId < gameId, \"Game is not ended\") */\n      tag_66\n      jumpi\n      mload(0x40)\n      0x08c379a000000000000000000000000000000000000000000000000000000000\n      dup2\n      mstore\n      0x04\n      add\n      dup1\n      dup1\n      0x20\n      add\n      dup3\n      dup2\n      sub\n      dup3\n      mstore\n      0x11\n      dup2\n      mstore\n      0x20\n      add\n      dup1\n      0x47616d65206973206e6f7420656e646564000000000000000000000000000000\n      dup2\n      mstore\n      pop\n      0x20\n      add\n      swap2\n      pop\n      pop\n      mload(0x40)\n      dup1\n      swap2\n      sub\n      swap1\n      revert\n    tag_66:\n        /* \"diceGame.sol\":1852:1857  games */\n      0x04\n        /* \"diceGame.sol\":1852:1866  games[_gameId] */\n      0x00\n        /* \"diceGame.sol\":1858:1865  _gameId */\n      dup5\n        /* \"diceGame.sol\":1852:1866  games[_gameId] */\n      dup2\n      mstore\n      0x20\n      add\n      swap1\n      dup2\n      mstore\n      0x20\n      add\n      0x00\n      keccak256\n        /* \"diceGame.sol\":1852:1879  games[_gameId].winningValue */\n      0x02\n      add\n      0x00\n      swap1\n      sload\n      swap1\n      0x0100\n      exp\n      swap1\n      div\n      0xff\n      and\n        /* \"diceGame.sol\":1839:1879  userValue == games[_gameId].winningValue */\n      0xff\n      and\n        /* \"diceGame.sol\":1839:1848  userValue */\n      dup5\n        /* \"diceGame.sol\":1839:1879  userValue == games[_gameId].winningValue */\n      0xff\n      and\n      eq\n        /* \"diceGame.sol\":1831:1923  require(userValue == games[_gameId].winningValue, \"User input does not match winning value\") */\n      tag_67\n      jumpi\n      mload(0x40)\n      0x08c379a000000000000000000000000000000000000000000000000000000000\n      dup2\n      mstore\n      0x04\n      add\n      dup1\n      dup1\n      0x20\n      add\n      dup3\n      dup2\n      sub\n      dup3\n      mstore\n      0x27\n      dup2\n      mstore\n      0x20\n      add\n      dup1\n      data_bd091db77c2ecbf6850219e20fb7a75680b72aef5099b1fcc3fa84949d7e6ee7\n      0x27\n      swap2\n      codecopy\n      0x40\n      add\n      swap2\n      pop\n      pop\n      mload(0x40)\n      dup1\n      swap2\n      sub\n      swap1\n      revert\n    tag_67:\n        /* \"diceGame.sol\":1933:1949  bytes32 userHash */\n      0x00\n        /* \"diceGame.sol\":1973:1982  userValue */\n      dup5\n        /* \"diceGame.sol\":1962:1983  abi.encode(userValue) */\n      add(0x20, mload(0x40))\n      dup1\n      dup3\n      0xff\n      and\n      0xff\n      and\n      dup2\n      mstore\n      0x20\n      add\n      swap2\n      pop\n      pop\n      mload(0x40)\n        /* \"--CODEGEN--\":49:53   */\n      0x20\n        /* \"--CODEGEN--\":39:46   */\n      dup2\n        /* \"--CODEGEN--\":30:37   */\n      dup4\n        /* \"--CODEGEN--\":26:47   */\n      sub\n        /* \"--CODEGEN--\":22:54   */\n      sub\n        /* \"--CODEGEN--\":13:20   */\n      dup2\n        /* \"--CODEGEN--\":6:55   */\n      mstore\n        /* \"diceGame.sol\":1962:1983  abi.encode(userValue) */\n      swap1\n      0x40\n      mstore\n        /* \"diceGame.sol\":1952:1984  keccak256(abi.encode(userValue)) */\n      dup1\n      mload\n      swap1\n      0x20\n      add\n      keccak256\n        /* \"diceGame.sol\":1933:1984  bytes32 userHash = keccak256(abi.encode(userValue)) */\n      swap1\n      pop\n        /* \"diceGame.sol\":2014:2019  games */\n      0x04\n        /* \"diceGame.sol\":2014:2028  games[_gameId] */\n      0x00\n        /* \"diceGame.sol\":2020:2027  _gameId */\n      dup6\n        /* \"diceGame.sol\":2014:2028  games[_gameId] */\n      dup2\n      mstore\n      0x20\n      add\n      swap1\n      dup2\n      mstore\n      0x20\n      add\n      0x00\n      keccak256\n        /* \"diceGame.sol\":2014:2036  games[_gameId].players */\n      0x00\n      add\n        /* \"diceGame.sol\":2014:2048  games[_gameId].players[msg.sender] */\n      0x00\n        /* \"diceGame.sol\":2037:2047  msg.sender */\n      caller\n        /* \"diceGame.sol\":2014:2048  games[_gameId].players[msg.sender] */\n      0xffffffffffffffffffffffffffffffffffffffff\n      and\n      0xffffffffffffffffffffffffffffffffffffffff\n      and\n      dup2\n      mstore\n      0x20\n      add\n      swap1\n      dup2\n      mstore\n      0x20\n      add\n      0x00\n      keccak256\n        /* \"diceGame.sol\":2014:2058  games[_gameId].players[msg.sender].hashValue */\n      0x00\n      add\n      sload\n        /* \"diceGame.sol\":2002:2010  userHash */\n      dup2\n        /* \"diceGame.sol\":2002:2058  userHash == games[_gameId].players[msg.sender].hashValue */\n      eq\n        /* \"diceGame.sol\":1994:2097  require(userHash == games[_gameId].players[msg.sender].hashValue, \"User input does not match its hash\") */\n      tag_68\n      jumpi\n      mload(0x40)\n      0x08c379a000000000000000000000000000000000000000000000000000000000\n      dup2\n      mstore\n      0x04\n      add\n      dup1\n      dup1\n      0x20\n      add\n      dup3\n      dup2\n      sub\n      dup3\n      mstore\n      0x22\n      dup2\n      mstore\n      0x20\n      add\n      dup1\n      data_e1d65f7a566c51d9be51927db247995b346b03fc2927af3f18b9c547e16bcc8f\n      0x22\n      swap2\n      codecopy\n      0x40\n      add\n      swap2\n      pop\n      pop\n      mload(0x40)\n      dup1\n      swap2\n      sub\n      swap1\n      revert\n    tag_68:\n        /* \"diceGame.sol\":2114:2118  true */\n      0x01\n        /* \"diceGame.sol\":2107:2118  return true */\n      swap3\n      pop\n      pop\n        /* \"diceGame.sol\":1544:2125  function checkUserValue(uint8 userValue, uint _gameId) private view between1and12(userValue) returns (bool) {... */\n      pop\n      swap3\n      swap2\n      pop\n      pop\n      jump\t// out\n        /* \"diceGame.sol\":2710:3343  function setGame() private {... */\n    tag_52:\n        /* \"diceGame.sol\":2747:2783  address[] storage gamePlayerAdresses */\n      0x00\n        /* \"diceGame.sol\":2786:2791  games */\n      0x04\n        /* \"diceGame.sol\":2786:2799  games[gameId] */\n      0x00\n        /* \"diceGame.sol\":2792:2798  gameId */\n      sload(0x02)\n        /* \"diceGame.sol\":2786:2799  games[gameId] */\n      dup2\n      mstore\n      0x20\n      add\n      swap1\n      dup2\n      mstore\n      0x20\n      add\n      0x00\n      keccak256\n        /* \"diceGame.sol\":2786:2815  games[gameId].playerAddresses */\n      0x01\n      add\n        /* \"diceGame.sol\":2747:2815  address[] storage gamePlayerAdresses = games[gameId].playerAddresses */\n      swap1\n      pop\n        /* \"diceGame.sol\":2825:2836  uint length */\n      0x00\n        /* \"diceGame.sol\":2839:2857  gamePlayerAdresses */\n      dup2\n        /* \"diceGame.sol\":2839:2864  gamePlayerAdresses.length */\n      dup1\n      sload\n      swap1\n      pop\n        /* \"diceGame.sol\":2825:2864  uint length = gamePlayerAdresses.length */\n      swap1\n      pop\n        /* \"diceGame.sol\":2888:2894  uint i */\n      0x00\n        /* \"diceGame.sol\":2897:2898  0 */\n      dup1\n        /* \"diceGame.sol\":2888:2898  uint i = 0 */\n      swap1\n      pop\n        /* \"diceGame.sol\":2883:3265  for (uint i = 0; i < length; i++) {... */\n    tag_70:\n        /* \"diceGame.sol\":2904:2910  length */\n      dup2\n        /* \"diceGame.sol\":2900:2901  i */\n      dup2\n        /* \"diceGame.sol\":2900:2910  i < length */\n      lt\n        /* \"diceGame.sol\":2883:3265  for (uint i = 0; i < length; i++) {... */\n      iszero\n      tag_71\n      jumpi\n        /* \"diceGame.sol\":2931:2949  bytes32 playerHash */\n      0x00\n        /* \"diceGame.sol\":2952:2957  games */\n      0x04\n        /* \"diceGame.sol\":2952:2965  games[gameId] */\n      0x00\n        /* \"diceGame.sol\":2958:2964  gameId */\n      sload(0x02)\n        /* \"diceGame.sol\":2952:2965  games[gameId] */\n      dup2\n      mstore\n      0x20\n      add\n      swap1\n      dup2\n      mstore\n      0x20\n      add\n      0x00\n      keccak256\n        /* \"diceGame.sol\":2952:2973  games[gameId].players */\n      0x00\n      add\n        /* \"diceGame.sol\":2952:2996  games[gameId].players[gamePlayerAdresses[i]] */\n      0x00\n        /* \"diceGame.sol\":2974:2992  gamePlayerAdresses */\n      dup6\n        /* \"diceGame.sol\":2993:2994  i */\n      dup5\n        /* \"diceGame.sol\":2974:2995  gamePlayerAdresses[i] */\n      dup2\n      sload\n      dup2\n      lt\n      tag_73\n      jumpi\n      invalid\n    tag_73:\n      swap1\n      0x00\n      mstore\n      keccak256(0x00, 0x20)\n      add\n      0x00\n      swap1\n      sload\n      swap1\n      0x0100\n      exp\n      swap1\n      div\n      0xffffffffffffffffffffffffffffffffffffffff\n      and\n        /* \"diceGame.sol\":2952:2996  games[gameId].players[gamePlayerAdresses[i]] */\n      0xffffffffffffffffffffffffffffffffffffffff\n      and\n      0xffffffffffffffffffffffffffffffffffffffff\n      and\n      dup2\n      mstore\n      0x20\n      add\n      swap1\n      dup2\n      mstore\n      0x20\n      add\n      0x00\n      keccak256\n        /* \"diceGame.sol\":2952:3006  games[gameId].players[gamePlayerAdresses[i]].hashValue */\n      0x00\n      add\n      sload\n        /* \"diceGame.sol\":2931:3006  bytes32 playerHash = games[gameId].players[gamePlayerAdresses[i]].hashValue */\n      swap1\n      pop\n        /* \"diceGame.sol\":3059:3064  games */\n      0x04\n        /* \"diceGame.sol\":3059:3072  games[gameId] */\n      0x00\n        /* \"diceGame.sol\":3065:3071  gameId */\n      sload(0x02)\n        /* \"diceGame.sol\":3059:3072  games[gameId] */\n      dup2\n      mstore\n      0x20\n      add\n      swap1\n      dup2\n      mstore\n      0x20\n      add\n      0x00\n      keccak256\n        /* \"diceGame.sol\":3059:3085  games[gameId].winningValue */\n      0x02\n      add\n      0x00\n      swap1\n      sload\n      swap1\n      0x0100\n      exp\n      swap1\n      div\n      0xff\n      and\n        /* \"diceGame.sol\":3048:3086  abi.encode(games[gameId].winningValue) */\n      add(0x20, mload(0x40))\n      dup1\n      dup3\n      0xff\n      and\n      0xff\n      and\n      dup2\n      mstore\n      0x20\n      add\n      swap2\n      pop\n      pop\n      mload(0x40)\n        /* \"--CODEGEN--\":49:53   */\n      0x20\n        /* \"--CODEGEN--\":39:46   */\n      dup2\n        /* \"--CODEGEN--\":30:37   */\n      dup4\n        /* \"--CODEGEN--\":26:47   */\n      sub\n        /* \"--CODEGEN--\":22:54   */\n      sub\n        /* \"--CODEGEN--\":13:20   */\n      dup2\n        /* \"--CODEGEN--\":6:55   */\n      mstore\n        /* \"diceGame.sol\":3048:3086  abi.encode(games[gameId].winningValue) */\n      swap1\n      0x40\n      mstore\n        /* \"diceGame.sol\":3038:3087  keccak256(abi.encode(games[gameId].winningValue)) */\n      dup1\n      mload\n      swap1\n      0x20\n      add\n      keccak256\n        /* \"diceGame.sol\":3024:3034  playerHash */\n      dup2\n        /* \"diceGame.sol\":3024:3087  playerHash == keccak256(abi.encode(games[gameId].winningValue)) */\n      eq\n        /* \"diceGame.sol\":3020:3255  if (playerHash == keccak256(abi.encode(games[gameId].winningValue))) {... */\n      iszero\n      tag_75\n      jumpi\n        /* \"diceGame.sol\":3107:3112  games */\n      0x04\n        /* \"diceGame.sol\":3107:3120  games[gameId] */\n      0x00\n        /* \"diceGame.sol\":3113:3119  gameId */\n      sload(0x02)\n        /* \"diceGame.sol\":3107:3120  games[gameId] */\n      dup2\n      mstore\n      0x20\n      add\n      swap1\n      dup2\n      mstore\n      0x20\n      add\n      0x00\n      keccak256\n        /* \"diceGame.sol\":3107:3132  games[gameId].winnerCount */\n      0x03\n      add\n      0x00\n        /* \"diceGame.sol\":3107:3134  games[gameId].winnerCount++ */\n      dup2\n      sload\n      dup1\n      swap3\n      swap2\n      swap1\n      0x01\n      add\n      swap2\n      swap1\n      pop\n      sstore\n      pop\n        /* \"diceGame.sol\":3187:3192  games */\n      0x04\n        /* \"diceGame.sol\":3187:3200  games[gameId] */\n      0x00\n        /* \"diceGame.sol\":3193:3199  gameId */\n      sload(0x02)\n        /* \"diceGame.sol\":3187:3200  games[gameId] */\n      dup2\n      mstore\n      0x20\n      add\n      swap1\n      dup2\n      mstore\n      0x20\n      add\n      0x00\n      keccak256\n        /* \"diceGame.sol\":3187:3208  games[gameId].players */\n      0x00\n      add\n        /* \"diceGame.sol\":3187:3231  games[gameId].players[gamePlayerAdresses[i]] */\n      0x00\n        /* \"diceGame.sol\":3209:3227  gamePlayerAdresses */\n      dup6\n        /* \"diceGame.sol\":3228:3229  i */\n      dup5\n        /* \"diceGame.sol\":3209:3230  gamePlayerAdresses[i] */\n      dup2\n      sload\n      dup2\n      lt\n      tag_76\n      jumpi\n      invalid\n    tag_76:\n      swap1\n      0x00\n      mstore\n      keccak256(0x00, 0x20)\n      add\n      0x00\n      swap1\n      sload\n      swap1\n      0x0100\n      exp\n      swap1\n      div\n      0xffffffffffffffffffffffffffffffffffffffff\n      and\n        /* \"diceGame.sol\":3187:3231  games[gameId].players[gamePlayerAdresses[i]] */\n      0xffffffffffffffffffffffffffffffffffffffff\n      and\n      0xffffffffffffffffffffffffffffffffffffffff\n      and\n      dup2\n      mstore\n      0x20\n      add\n      swap1\n      dup2\n      mstore\n      0x20\n      add\n      0x00\n      keccak256\n        /* \"diceGame.sol\":3187:3240  games[gameId].players[gamePlayerAdresses[i]].betValue */\n      0x01\n      add\n      sload\n        /* \"diceGame.sol\":3152:3157  games */\n      0x04\n        /* \"diceGame.sol\":3152:3165  games[gameId] */\n      0x00\n        /* \"diceGame.sol\":3158:3164  gameId */\n      sload(0x02)\n        /* \"diceGame.sol\":3152:3165  games[gameId] */\n      dup2\n      mstore\n      0x20\n      add\n      swap1\n      dup2\n      mstore\n      0x20\n      add\n      0x00\n      keccak256\n        /* \"diceGame.sol\":3152:3183  games[gameId].allWinnersBalance */\n      0x04\n      add\n      0x00\n        /* \"diceGame.sol\":3152:3240  games[gameId].allWinnersBalance += games[gameId].players[gamePlayerAdresses[i]].betValue */\n      dup3\n      dup3\n      sload\n      add\n      swap3\n      pop\n      pop\n      dup2\n      swap1\n      sstore\n      pop\n        /* \"diceGame.sol\":3020:3255  if (playerHash == keccak256(abi.encode(games[gameId].winningValue))) {... */\n    tag_75:\n        /* \"diceGame.sol\":2883:3265  for (uint i = 0; i < length; i++) {... */\n      pop\n        /* \"diceGame.sol\":2912:2915  i++ */\n      dup1\n      dup1\n      0x01\n      add\n      swap2\n      pop\n      pop\n        /* \"diceGame.sol\":2883:3265  for (uint i = 0; i < length; i++) {... */\n      jump(tag_70)\n    tag_71:\n      pop\n        /* \"diceGame.sol\":3311:3316  games */\n      0x04\n        /* \"diceGame.sol\":3311:3324  games[gameId] */\n      0x00\n        /* \"diceGame.sol\":3317:3323  gameId */\n      sload(0x02)\n        /* \"diceGame.sol\":3311:3324  games[gameId] */\n      dup2\n      mstore\n      0x20\n      add\n      swap1\n      dup2\n      mstore\n      0x20\n      add\n      0x00\n      keccak256\n        /* \"diceGame.sol\":3311:3336  games[gameId].gameBalance */\n      0x06\n      add\n      sload\n        /* \"diceGame.sol\":3283:3288  games */\n      0x04\n        /* \"diceGame.sol\":3283:3296  games[gameId] */\n      0x00\n        /* \"diceGame.sol\":3289:3295  gameId */\n      sload(0x02)\n        /* \"diceGame.sol\":3283:3296  games[gameId] */\n      dup2\n      mstore\n      0x20\n      add\n      swap1\n      dup2\n      mstore\n      0x20\n      add\n      0x00\n      keccak256\n        /* \"diceGame.sol\":3283:3308  games[gameId].restBalance */\n      0x05\n      add\n        /* \"diceGame.sol\":3283:3336  games[gameId].restBalance = games[gameId].gameBalance */\n      dup2\n      swap1\n      sstore\n      pop\n        /* \"diceGame.sol\":2710:3343  function setGame() private {... */\n      pop\n      pop\n      jump\t// out\n        /* \"diceGame.sol\":2586:2700  function setServerValue(uint8 dice) private between1and12(dice) {... */\n    tag_54:\n        /* \"diceGame.sol\":2644:2648  dice */\n      dup1\n        /* \"diceGame.sol\":528:659  modifier between1and12(uint value) {... */\n      0xff\n      and\n        /* \"diceGame.sol\":590:591  1 */\n      0x01\n        /* \"diceGame.sol\":581:586  value */\n      dup2\n        /* \"diceGame.sol\":581:591  value >= 1 */\n      lt\n      iszero\n        /* \"diceGame.sol\":581:606  value >= 1 && value <= 12 */\n      dup1\n      iszero\n      tag_79\n      jumpi\n      pop\n        /* \"diceGame.sol\":604:606  12 */\n      0x0c\n        /* \"diceGame.sol\":595:600  value */\n      dup2\n        /* \"diceGame.sol\":595:606  value <= 12 */\n      gt\n      iszero\n        /* \"diceGame.sol\":581:606  value >= 1 && value <= 12 */\n    tag_79:\n        /* \"diceGame.sol\":573:641  require(value >= 1 && value <= 12, \"The number is not from 1 to 12\") */\n      tag_80\n      jumpi\n      mload(0x40)\n      0x08c379a000000000000000000000000000000000000000000000000000000000\n      dup2\n      mstore\n      0x04\n      add\n      dup1\n      dup1\n      0x20\n      add\n      dup3\n      dup2\n      sub\n      dup3\n      mstore\n      0x1e\n      dup2\n      mstore\n      0x20\n      add\n      dup1\n      0x546865206e756d626572206973206e6f742066726f6d203120746f2031320000\n      dup2\n      mstore\n      pop\n      0x20\n      add\n      swap2\n      pop\n      pop\n      mload(0x40)\n      dup1\n      swap2\n      sub\n      swap1\n      revert\n    tag_80:\n        /* \"diceGame.sol\":2689:2693  dice */\n      dup2\n        /* \"diceGame.sol\":2660:2665  games */\n      0x04\n        /* \"diceGame.sol\":2660:2673  games[gameId] */\n      0x00\n        /* \"diceGame.sol\":2666:2672  gameId */\n      sload(0x02)\n        /* \"diceGame.sol\":2660:2673  games[gameId] */\n      dup2\n      mstore\n      0x20\n      add\n      swap1\n      dup2\n      mstore\n      0x20\n      add\n      0x00\n      keccak256\n        /* \"diceGame.sol\":2660:2686  games[gameId].winningValue */\n      0x02\n      add\n      0x00\n        /* \"diceGame.sol\":2660:2693  games[gameId].winningValue = dice */\n      0x0100\n      exp\n      dup2\n      sload\n      dup2\n      0xff\n      mul\n      not\n      and\n      swap1\n      dup4\n      0xff\n      and\n      mul\n      or\n      swap1\n      sstore\n      pop\n        /* \"diceGame.sol\":2586:2700  function setServerValue(uint8 dice) private between1and12(dice) {... */\n      pop\n      pop\n      jump\t// out\n    stop\n    data_4a8d8e59ed510e06a8e0260cfe413b20861d9f571b155941f3970d9306e4b948 4f6e6c79206d616e616765722063616e2063616c6c20746869732066756e6374696f6e\n    data_bd091db77c2ecbf6850219e20fb7a75680b72aef5099b1fcc3fa84949d7e6ee7 5573657220696e70757420646f6573206e6f74206d617463682077696e6e696e672076616c7565\n    data_e1d65f7a566c51d9be51927db247995b346b03fc2927af3f18b9c547e16bcc8f 5573657220696e70757420646f6573206e6f74206d61746368206974732068617368\n\n    auxdata: 0xa265627a7a723158205e776e51e52b0a25df1483c5cd10e7441fb142dbd145395d53ccf7a026bd573564736f6c634300050b0032\n}\n","bytecode":{"linkReferences":{},"object":"608060405234801561001057600080fd5b506040516111aa3803806111aa8339818101604052602081101561003357600080fd5b8101908080519060200190929190505050336000806101000a81548173ffffffffffffffffffffffffffffffffffffffff021916908373ffffffffffffffffffffffffffffffffffffffff16021790555080600181905550600060028190555050611107806100a36000396000f3fe6080604052600436106100705760003560e01c8063886dc4d31161004e578063886dc4d31461015d578063bbf344ce146101b0578063c38a8afd146101ee578063e6ab60791461021957610070565b806309660513146100755780630d0aa44a146100d8578063481c6a7514610106575b600080fd5b34801561008157600080fd5b506100ae6004803603602081101561009857600080fd5b8101908080359060200190929190505050610257565b604051808460ff1660ff168152602001838152602001828152602001935050505060405180910390f35b610104600480360360208110156100ee57600080fd5b81019080803590602001909291905050506102bb565b005b34801561011257600080fd5b5061011b61062a565b604051808273ffffffffffffffffffffffffffffffffffffffff1673ffffffffffffffffffffffffffffffffffffffff16815260200191505060405180910390f35b6101966004803603604081101561017357600080fd5b81019080803560ff1690602001909291908035906020019092919050505061064f565b604051808215151515815260200191505060405180910390f35b3480156101bc57600080fd5b506101ec600480360360208110156101d357600080fd5b81019080803560ff169060200190929190505050610772565b005b3480156101fa57600080fd5b506102036108bf565b6040518082815260200191505060405180910390f35b34801561022557600080fd5b506102556004803603602081101561023c57600080fd5b81019080803560ff1690602001909291905050506108c5565b005b60008060006004600085815260200190815260200160002060020160009054906101000a900460ff16600460008681526020019081526020016000206005015460046000878152602001908152602001600020600601549250925092509193909250565b60003390506000809054906101000a900473ffffffffffffffffffffffffffffffffffffffff1673ffffffffffffffffffffffffffffffffffffffff168173ffffffffffffffffffffffffffffffffffffffff161415610383576040517f08c379a000000000000000000000000000000000000000000000000000000000815260040180806020018281038252601a8152602001807f4d616e616765722063616e6e6f742062657420612076616c756500000000000081525060200191505060405180910390fd5b6000801b60046000600254815260200190815260200160002060000160008373ffffffffffffffffffffffffffffffffffffffff1673ffffffffffffffffffffffffffffffffffffffff1681526020019081526020016000206000015414610453576040517f08c379a00000000000000000000000000000000000000000000000000000000081526004018080602001828103825260198152602001807f506c6179657220616c726561647920626574206e756d6265720000000000000081525060200191505060405180910390fd5b60015434116104ca576040517f08c379a000000000000000000000000000000000000000000000000000000000815260040180806020018281038252601c8152602001807f596f7520426574206c657373207468656e206d696e696d756d4265740000000081525060200191505060405180910390fd5b8160046000600254815260200190815260200160002060000160008373ffffffffffffffffffffffffffffffffffffffff1673ffffffffffffffffffffffffffffffffffffffff168152602001908152602001600020600001819055503460046000600254815260200190815260200160002060000160008373ffffffffffffffffffffffffffffffffffffffff1673ffffffffffffffffffffffffffffffffffffffff168152602001908152602001600020600101819055506004600060025481526020019081526020016000206001018190806001815401808255809150509060018203906000526020600020016000909192909190916101000a81548173ffffffffffffffffffffffffffffffffffffffff021916908373ffffffffffffffffffffffffffffffffffffffff1602179055505034600460006002548152602001908152602001600020600601600082825401925050819055505050565b6000809054906101000a900473ffffffffffffffffffffffffffffffffffffffff1681565b600061065b8383610a14565b15610767576000600460008481526020019081526020016000206004015460046000858152602001908152602001600020600601546004600086815260200190815260200160002060000160003373ffffffffffffffffffffffffffffffffffffffff1673ffffffffffffffffffffffffffffffffffffffff1681526020019081526020016000206001015402816106ef57fe5b0490503373ffffffffffffffffffffffffffffffffffffffff166108fc829081150290604051600060405180830381858888f19350505050158015610738573d6000803e3d6000fd5b50806004600085815260200190815260200160002060050160008282540392505081905550600191505061076c565b600090505b92915050565b6000809054906101000a900473ffffffffffffffffffffffffffffffffffffffff1673ffffffffffffffffffffffffffffffffffffffff163373ffffffffffffffffffffffffffffffffffffffff1614610817576040517f08c379a00000000000000000000000000000000000000000000000000000000081526004018080602001828103825260238152602001806110676023913960400191505060405180910390fd5b600360009054906101000a900460ff16610899576040517f08c379a00000000000000000000000000000000000000000000000000000000081526004018080602001828103825260168152602001807f5468652067616d6520646964206e6f742073746172740000000000000000000081525060200191505060405180910390fd5b6108a1610d65565b6002600081548092919060010191905055506108bc81610fa9565b50565b60015481565b6000809054906101000a900473ffffffffffffffffffffffffffffffffffffffff1673ffffffffffffffffffffffffffffffffffffffff163373ffffffffffffffffffffffffffffffffffffffff161461096a576040517f08c379a00000000000000000000000000000000000000000000000000000000081526004018080602001828103825260238152602001806110676023913960400191505060405180910390fd5b600360009054906101000a900460ff16156109ed576040517f08c379a00000000000000000000000000000000000000000000000000000000081526004018080602001828103825260148152602001807f4974206973206e6f742073746172742047616d6500000000000000000000000081525060200191505060405180910390fd5b6001600360006101000a81548160ff021916908315150217905550610a1181610fa9565b50565b60008260ff1660018110158015610a2c5750600c8111155b610a9e576040517f08c379a000000000000000000000000000000000000000000000000000000000815260040180806020018281038252601e8152602001807f546865206e756d626572206973206e6f742066726f6d203120746f203132000081525060200191505060405180910390fd5b6004600084815260200190815260200160002060000160003373ffffffffffffffffffffffffffffffffffffffff1673ffffffffffffffffffffffffffffffffffffffff16815260200190815260200160002060020160009054906101000a900460ff1615610b75576040517f08c379a000000000000000000000000000000000000000000000000000000000815260040180806020018281038252601e8152602001807f506c6179657220616c726561647920726563656976652061206d6f6e6579000081525060200191505060405180910390fd5b60008310158015610b87575060025483105b610bf9576040517f08c379a00000000000000000000000000000000000000000000000000000000081526004018080602001828103825260118152602001807f47616d65206973206e6f7420656e64656400000000000000000000000000000081525060200191505060405180910390fd5b6004600084815260200190815260200160002060020160009054906101000a900460ff1660ff168460ff1614610c7a576040517f08c379a000000000000000000000000000000000000000000000000000000000815260040180806020018281038252602781526020018061108a6027913960400191505060405180910390fd5b600084604051602001808260ff1660ff1681526020019150506040516020818303038152906040528051906020012090506004600085815260200190815260200160002060000160003373ffffffffffffffffffffffffffffffffffffffff1673ffffffffffffffffffffffffffffffffffffffff168152602001908152602001600020600001548114610d59576040517f08c379a00000000000000000000000000000000000000000000000000000000081526004018080602001828103825260228152602001806110b16022913960400191505060405180910390fd5b60019250505092915050565b6000600460006002548152602001908152602001600020600101905060008180549050905060008090505b81811015610f6f5760006004600060025481526020019081526020016000206000016000858481548110610dc057fe5b9060005260206000200160009054906101000a900473ffffffffffffffffffffffffffffffffffffffff1673ffffffffffffffffffffffffffffffffffffffff1673ffffffffffffffffffffffffffffffffffffffff16815260200190815260200160002060000154905060046000600254815260200190815260200160002060020160009054906101000a900460ff16604051602001808260ff1660ff16815260200191505060405160208183030381529060405280519060200120811415610f6157600460006002548152602001908152602001600020600301600081548092919060010191905055506004600060025481526020019081526020016000206000016000858481548110610ed257fe5b9060005260206000200160009054906101000a900473ffffffffffffffffffffffffffffffffffffffff1673ffffffffffffffffffffffffffffffffffffffff1673ffffffffffffffffffffffffffffffffffffffff16815260200190815260200160002060010154600460006002548152602001908152602001600020600401600082825401925050819055505b508080600101915050610d90565b5060046000600254815260200190815260200160002060060154600460006002548152602001908152602001600020600501819055505050565b8060ff1660018110158015610fbf5750600c8111155b611031576040517f08c379a000000000000000000000000000000000000000000000000000000000815260040180806020018281038252601e8152602001807f546865206e756d626572206973206e6f742066726f6d203120746f203132000081525060200191505060405180910390fd5b8160046000600254815260200190815260200160002060020160006101000a81548160ff021916908360ff160217905550505056fe4f6e6c79206d616e616765722063616e2063616c6c20746869732066756e6374696f6e5573657220696e70757420646f6573206e6f74206d617463682077696e6e696e672076616c75655573657220696e70757420646f6573206e6f74206d61746368206974732068617368a265627a7a723158205e776e51e52b0a25df1483c5cd10e7441fb142dbd145395d53ccf7a026bd573564736f6c634300050b0032","opcodes":"PUSH1 0x80 PUSH1 0x40 MSTORE CALLVALUE DUP1 ISZERO PUSH2 0x10 JUMPI PUSH1 0x0 DUP1 REVERT JUMPDEST POP PUSH1 0x40 MLOAD PUSH2 0x11AA CODESIZE SUB DUP1 PUSH2 0x11AA DUP4 CODECOPY DUP2 DUP2 ADD PUSH1 0x40 MSTORE PUSH1 0x20 DUP2 LT ISZERO PUSH2 0x33 JUMPI PUSH1 0x0 DUP1 REVERT JUMPDEST DUP2 ADD SWAP1 DUP1 DUP1 MLOAD SWAP1 PUSH1 0x20 ADD SWAP1 SWAP3 SWAP2 SWAP1 POP POP POP CALLER PUSH1 0x0 DUP1 PUSH2 0x100 EXP DUP2 SLOAD DUP2 PUSH20 0xFFFFFFFFFFFFFFFFFFFFFFFFFFFFFFFFFFFFFFFF MUL NOT AND SWAP1 DUP4 PUSH20 0xFFFFFFFFFFFFFFFFFFFFFFFFFFFFFFFFFFFFFFFF AND MUL OR SWAP1 SSTORE POP DUP1 PUSH1 0x1 DUP2 SWAP1 SSTORE POP PUSH1 0x0 PUSH1 0x2 DUP2 SWAP1 SSTORE POP POP PUSH2 0x1107 DUP1 PUSH2 0xA3 PUSH1 0x0 CODECOPY PUSH1 0x0 RETURN INVALID PUSH1 0x80 PUSH1 0x40 MSTORE PUSH1 0x4 CALLDATASIZE LT PUSH2 0x70 JUMPI PUSH1 0x0 CALLDATALOAD PUSH1 0xE0 SHR DUP1 PUSH4 0x886DC4D3 GT PUSH2 0x4E JUMPI DUP1 PUSH4 0x886DC4D3 EQ PUSH2 0x15D JUMPI DUP1 PUSH4 0xBBF344CE EQ PUSH2 0x1B0 JUMPI DUP1 PUSH4 0xC38A8AFD EQ PUSH2 0x1EE JUMPI DUP1 PUSH4 0xE6AB6079 EQ PUSH2 0x219 JUMPI PUSH2 0x70 JUMP JUMPDEST DUP1 PUSH4 0x9660513 EQ PUSH2 0x75 JUMPI DUP1 PUSH4 0xD0AA44A EQ PUSH2 0xD8 JUMPI DUP1 PUSH4 0x481C6A75 EQ PUSH2 0x106 JUMPI JUMPDEST PUSH1 0x0 DUP1 REVERT JUMPDEST CALLVALUE DUP1 ISZERO PUSH2 0x81 JUMPI PUSH1 0x0 DUP1 REVERT JUMPDEST POP PUSH2 0xAE PUSH1 0x4 DUP1 CALLDATASIZE SUB PUSH1 0x20 DUP2 LT ISZERO PUSH2 0x98 JUMPI PUSH1 0x0 DUP1 REVERT JUMPDEST DUP2 ADD SWAP1 DUP1 DUP1 CALLDATALOAD SWAP1 PUSH1 0x20 ADD SWAP1 SWAP3 SWAP2 SWAP1 POP POP POP PUSH2 0x257 JUMP JUMPDEST PUSH1 0x40 MLOAD DUP1 DUP5 PUSH1 0xFF AND PUSH1 0xFF AND DUP2 MSTORE PUSH1 0x20 ADD DUP4 DUP2 MSTORE PUSH1 0x20 ADD DUP3 DUP2 MSTORE PUSH1 0x20 ADD SWAP4 POP POP POP POP PUSH1 0x40 MLOAD DUP1 SWAP2 SUB SWAP1 RETURN JUMPDEST PUSH2 0x104 PUSH1 0x4 DUP1 CALLDATASIZE SUB PUSH1 0x20 DUP2 LT ISZERO PUSH2 0xEE JUMPI PUSH1 0x0 DUP1 REVERT JUMPDEST DUP2 ADD SWAP1 DUP1 DUP1 CALLDATALOAD SWAP1 PUSH1 0x20 ADD SWAP1 SWAP3 SWAP2 SWAP1 POP POP POP PUSH2 0x2BB JUMP JUMPDEST STOP JUMPDEST CALLVALUE DUP1 ISZERO PUSH2 0x112 JUMPI PUSH1 0x0 DUP1 REVERT JUMPDEST POP PUSH2 0x11B PUSH2 0x62A JUMP JUMPDEST PUSH1 0x40 MLOAD DUP1 DUP3 PUSH20 0xFFFFFFFFFFFFFFFFFFFFFFFFFFFFFFFFFFFFFFFF AND PUSH20 0xFFFFFFFFFFFFFFFFFFFFFFFFFFFFFFFFFFFFFFFF AND DUP2 MSTORE PUSH1 0x20 ADD SWAP2 POP POP PUSH1 0x40 MLOAD DUP1 SWAP2 SUB SWAP1 RETURN JUMPDEST PUSH2 0x196 PUSH1 0x4 DUP1 CALLDATASIZE SUB PUSH1 0x40 DUP2 LT ISZERO PUSH2 0x173 JUMPI PUSH1 0x0 DUP1 REVERT JUMPDEST DUP2 ADD SWAP1 DUP1 DUP1 CALLDATALOAD PUSH1 0xFF AND SWAP1 PUSH1 0x20 ADD SWAP1 SWAP3 SWAP2 SWAP1 DUP1 CALLDATALOAD SWAP1 PUSH1 0x20 ADD SWAP1 SWAP3 SWAP2 SWAP1 POP POP POP PUSH2 0x64F JUMP JUMPDEST PUSH1 0x40 MLOAD DUP1 DUP3 ISZERO ISZERO ISZERO ISZERO DUP2 MSTORE PUSH1 0x20 ADD SWAP2 POP POP PUSH1 0x40 MLOAD DUP1 SWAP2 SUB SWAP1 RETURN JUMPDEST CALLVALUE DUP1 ISZERO PUSH2 0x1BC JUMPI PUSH1 0x0 DUP1 REVERT JUMPDEST POP PUSH2 0x1EC PUSH1 0x4 DUP1 CALLDATASIZE SUB PUSH1 0x20 DUP2 LT ISZERO PUSH2 0x1D3 JUMPI PUSH1 0x0 DUP1 REVERT JUMPDEST DUP2 ADD SWAP1 DUP1 DUP1 CALLDATALOAD PUSH1 0xFF AND SWAP1 PUSH1 0x20 ADD SWAP1 SWAP3 SWAP2 SWAP1 POP POP POP PUSH2 0x772 JUMP JUMPDEST STOP JUMPDEST CALLVALUE DUP1 ISZERO PUSH2 0x1FA JUMPI PUSH1 0x0 DUP1 REVERT JUMPDEST POP PUSH2 0x203 PUSH2 0x8BF JUMP JUMPDEST PUSH1 0x40 MLOAD DUP1 DUP3 DUP2 MSTORE PUSH1 0x20 ADD SWAP2 POP POP PUSH1 0x40 MLOAD DUP1 SWAP2 SUB SWAP1 RETURN JUMPDEST CALLVALUE DUP1 ISZERO PUSH2 0x225 JUMPI PUSH1 0x0 DUP1 REVERT JUMPDEST POP PUSH2 0x255 PUSH1 0x4 DUP1 CALLDATASIZE SUB PUSH1 0x20 DUP2 LT ISZERO PUSH2 0x23C JUMPI PUSH1 0x0 DUP1 REVERT JUMPDEST DUP2 ADD SWAP1 DUP1 DUP1 CALLDATALOAD PUSH1 0xFF AND SWAP1 PUSH1 0x20 ADD SWAP1 SWAP3 SWAP2 SWAP1 POP POP POP PUSH2 0x8C5 JUMP JUMPDEST STOP JUMPDEST PUSH1 0x0 DUP1 PUSH1 0x0 PUSH1 0x4 PUSH1 0x0 DUP6 DUP2 MSTORE PUSH1 0x20 ADD SWAP1 DUP2 MSTORE PUSH1 0x20 ADD PUSH1 0x0 KECCAK256 PUSH1 0x2 ADD PUSH1 0x0 SWAP1 SLOAD SWAP1 PUSH2 0x100 EXP SWAP1 DIV PUSH1 0xFF AND PUSH1 0x4 PUSH1 0x0 DUP7 DUP2 MSTORE PUSH1 0x20 ADD SWAP1 DUP2 MSTORE PUSH1 0x20 ADD PUSH1 0x0 KECCAK256 PUSH1 0x5 ADD SLOAD PUSH1 0x4 PUSH1 0x0 DUP8 DUP2 MSTORE PUSH1 0x20 ADD SWAP1 DUP2 MSTORE PUSH1 0x20 ADD PUSH1 0x0 KECCAK256 PUSH1 0x6 ADD SLOAD SWAP3 POP SWAP3 POP SWAP3 POP SWAP2 SWAP4 SWAP1 SWAP3 POP JUMP JUMPDEST PUSH1 0x0 CALLER SWAP1 POP PUSH1 0x0 DUP1 SWAP1 SLOAD SWAP1 PUSH2 0x100 EXP SWAP1 DIV PUSH20 0xFFFFFFFFFFFFFFFFFFFFFFFFFFFFFFFFFFFFFFFF AND PUSH20 0xFFFFFFFFFFFFFFFFFFFFFFFFFFFFFFFFFFFFFFFF AND DUP2 PUSH20 0xFFFFFFFFFFFFFFFFFFFFFFFFFFFFFFFFFFFFFFFF AND EQ ISZERO PUSH2 0x383 JUMPI PUSH1 0x40 MLOAD PUSH32 0x8C379A000000000000000000000000000000000000000000000000000000000 DUP2 MSTORE PUSH1 0x4 ADD DUP1 DUP1 PUSH1 0x20 ADD DUP3 DUP2 SUB DUP3 MSTORE PUSH1 0x1A DUP2 MSTORE PUSH1 0x20 ADD DUP1 PUSH32 0x4D616E616765722063616E6E6F742062657420612076616C7565000000000000 DUP2 MSTORE POP PUSH1 0x20 ADD SWAP2 POP POP PUSH1 0x40 MLOAD DUP1 SWAP2 SUB SWAP1 REVERT JUMPDEST PUSH1 0x0 DUP1 SHL PUSH1 0x4 PUSH1 0x0 PUSH1 0x2 SLOAD DUP2 MSTORE PUSH1 0x20 ADD SWAP1 DUP2 MSTORE PUSH1 0x20 ADD PUSH1 0x0 KECCAK256 PUSH1 0x0 ADD PUSH1 0x0 DUP4 PUSH20 0xFFFFFFFFFFFFFFFFFFFFFFFFFFFFFFFFFFFFFFFF AND PUSH20 0xFFFFFFFFFFFFFFFFFFFFFFFFFFFFFFFFFFFFFFFF AND DUP2 MSTORE PUSH1 0x20 ADD SWAP1 DUP2 MSTORE PUSH1 0x20 ADD PUSH1 0x0 KECCAK256 PUSH1 0x0 ADD SLOAD EQ PUSH2 0x453 JUMPI PUSH1 0x40 MLOAD PUSH32 0x8C379A000000000000000000000000000000000000000000000000000000000 DUP2 MSTORE PUSH1 0x4 ADD DUP1 DUP1 PUSH1 0x20 ADD DUP3 DUP2 SUB DUP3 MSTORE PUSH1 0x19 DUP2 MSTORE PUSH1 0x20 ADD DUP1 PUSH32 0x506C6179657220616C726561647920626574206E756D62657200000000000000 DUP2 MSTORE POP PUSH1 0x20 ADD SWAP2 POP POP PUSH1 0x40 MLOAD DUP1 SWAP2 SUB SWAP1 REVERT JUMPDEST PUSH1 0x1 SLOAD CALLVALUE GT PUSH2 0x4CA JUMPI PUSH1 0x40 MLOAD PUSH32 0x8C379A000000000000000000000000000000000000000000000000000000000 DUP2 MSTORE PUSH1 0x4 ADD DUP1 DUP1 PUSH1 0x20 ADD DUP3 DUP2 SUB DUP3 MSTORE PUSH1 0x1C DUP2 MSTORE PUSH1 0x20 ADD DUP1 PUSH32 0x596F7520426574206C657373207468656E206D696E696D756D42657400000000 DUP2 MSTORE POP PUSH1 0x20 ADD SWAP2 POP POP PUSH1 0x40 MLOAD DUP1 SWAP2 SUB SWAP1 REVERT JUMPDEST DUP2 PUSH1 0x4 PUSH1 0x0 PUSH1 0x2 SLOAD DUP2 MSTORE PUSH1 0x20 ADD SWAP1 DUP2 MSTORE PUSH1 0x20 ADD PUSH1 0x0 KECCAK256 PUSH1 0x0 ADD PUSH1 0x0 DUP4 PUSH20 0xFFFFFFFFFFFFFFFFFFFFFFFFFFFFFFFFFFFFFFFF AND PUSH20 0xFFFFFFFFFFFFFFFFFFFFFFFFFFFFFFFFFFFFFFFF AND DUP2 MSTORE PUSH1 0x20 ADD SWAP1 DUP2 MSTORE PUSH1 0x20 ADD PUSH1 0x0 KECCAK256 PUSH1 0x0 ADD DUP2 SWAP1 SSTORE POP CALLVALUE PUSH1 0x4 PUSH1 0x0 PUSH1 0x2 SLOAD DUP2 MSTORE PUSH1 0x20 ADD SWAP1 DUP2 MSTORE PUSH1 0x20 ADD PUSH1 0x0 KECCAK256 PUSH1 0x0 ADD PUSH1 0x0 DUP4 PUSH20 0xFFFFFFFFFFFFFFFFFFFFFFFFFFFFFFFFFFFFFFFF AND PUSH20 0xFFFFFFFFFFFFFFFFFFFFFFFFFFFFFFFFFFFFFFFF AND DUP2 MSTORE PUSH1 0x20 ADD SWAP1 DUP2 MSTORE PUSH1 0x20 ADD PUSH1 0x0 KECCAK256 PUSH1 0x1 ADD DUP2 SWAP1 SSTORE POP PUSH1 0x4 PUSH1 0x0 PUSH1 0x2 SLOAD DUP2 MSTORE PUSH1 0x20 ADD SWAP1 DUP2 MSTORE PUSH1 0x20 ADD PUSH1 0x0 KECCAK256 PUSH1 0x1 ADD DUP2 SWAP1 DUP1 PUSH1 0x1 DUP2 SLOAD ADD DUP1 DUP3 SSTORE DUP1 SWAP2 POP POP SWAP1 PUSH1 0x1 DUP3 SUB SWAP1 PUSH1 0x0 MSTORE PUSH1 0x20 PUSH1 0x0 KECCAK256 ADD PUSH1 0x0 SWAP1 SWAP2 SWAP3 SWAP1 SWAP2 SWAP1 SWAP2 PUSH2 0x100 EXP DUP2 SLOAD DUP2 PUSH20 0xFFFFFFFFFFFFFFFFFFFFFFFFFFFFFFFFFFFFFFFF MUL NOT AND SWAP1 DUP4 PUSH20 0xFFFFFFFFFFFFFFFFFFFFFFFFFFFFFFFFFFFFFFFF AND MUL OR SWAP1 SSTORE POP POP CALLVALUE PUSH1 0x4 PUSH1 0x0 PUSH1 0x2 SLOAD DUP2 MSTORE PUSH1 0x20 ADD SWAP1 DUP2 MSTORE PUSH1 0x20 ADD PUSH1 0x0 KECCAK256 PUSH1 0x6 ADD PUSH1 0x0 DUP3 DUP3 SLOAD ADD SWAP3 POP POP DUP2 SWAP1 SSTORE POP POP POP JUMP JUMPDEST PUSH1 0x0 DUP1 SWAP1 SLOAD SWAP1 PUSH2 0x100 EXP SWAP1 DIV PUSH20 0xFFFFFFFFFFFFFFFFFFFFFFFFFFFFFFFFFFFFFFFF AND DUP2 JUMP JUMPDEST PUSH1 0x0 PUSH2 0x65B DUP4 DUP4 PUSH2 0xA14 JUMP JUMPDEST ISZERO PUSH2 0x767 JUMPI PUSH1 0x0 PUSH1 0x4 PUSH1 0x0 DUP5 DUP2 MSTORE PUSH1 0x20 ADD SWAP1 DUP2 MSTORE PUSH1 0x20 ADD PUSH1 0x0 KECCAK256 PUSH1 0x4 ADD SLOAD PUSH1 0x4 PUSH1 0x0 DUP6 DUP2 MSTORE PUSH1 0x20 ADD SWAP1 DUP2 MSTORE PUSH1 0x20 ADD PUSH1 0x0 KECCAK256 PUSH1 0x6 ADD SLOAD PUSH1 0x4 PUSH1 0x0 DUP7 DUP2 MSTORE PUSH1 0x20 ADD SWAP1 DUP2 MSTORE PUSH1 0x20 ADD PUSH1 0x0 KECCAK256 PUSH1 0x0 ADD PUSH1 0x0 CALLER PUSH20 0xFFFFFFFFFFFFFFFFFFFFFFFFFFFFFFFFFFFFFFFF AND PUSH20 0xFFFFFFFFFFFFFFFFFFFFFFFFFFFFFFFFFFFFFFFF AND DUP2 MSTORE PUSH1 0x20 ADD SWAP1 DUP2 MSTORE PUSH1 0x20 ADD PUSH1 0x0 KECCAK256 PUSH1 0x1 ADD SLOAD MUL DUP2 PUSH2 0x6EF JUMPI INVALID JUMPDEST DIV SWAP1 POP CALLER PUSH20 0xFFFFFFFFFFFFFFFFFFFFFFFFFFFFFFFFFFFFFFFF AND PUSH2 0x8FC DUP3 SWAP1 DUP2 ISZERO MUL SWAP1 PUSH1 0x40 MLOAD PUSH1 0x0 PUSH1 0x40 MLOAD DUP1 DUP4 SUB DUP2 DUP6 DUP9 DUP9 CALL SWAP4 POP POP POP POP ISZERO DUP1 ISZERO PUSH2 0x738 JUMPI RETURNDATASIZE PUSH1 0x0 DUP1 RETURNDATACOPY RETURNDATASIZE PUSH1 0x0 REVERT JUMPDEST POP DUP1 PUSH1 0x4 PUSH1 0x0 DUP6 DUP2 MSTORE PUSH1 0x20 ADD SWAP1 DUP2 MSTORE PUSH1 0x20 ADD PUSH1 0x0 KECCAK256 PUSH1 0x5 ADD PUSH1 0x0 DUP3 DUP3 SLOAD SUB SWAP3 POP POP DUP2 SWAP1 SSTORE POP PUSH1 0x1 SWAP2 POP POP PUSH2 0x76C JUMP JUMPDEST PUSH1 0x0 SWAP1 POP JUMPDEST SWAP3 SWAP2 POP POP JUMP JUMPDEST PUSH1 0x0 DUP1 SWAP1 SLOAD SWAP1 PUSH2 0x100 EXP SWAP1 DIV PUSH20 0xFFFFFFFFFFFFFFFFFFFFFFFFFFFFFFFFFFFFFFFF AND PUSH20 0xFFFFFFFFFFFFFFFFFFFFFFFFFFFFFFFFFFFFFFFF AND CALLER PUSH20 0xFFFFFFFFFFFFFFFFFFFFFFFFFFFFFFFFFFFFFFFF AND EQ PUSH2 0x817 JUMPI PUSH1 0x40 MLOAD PUSH32 0x8C379A000000000000000000000000000000000000000000000000000000000 DUP2 MSTORE PUSH1 0x4 ADD DUP1 DUP1 PUSH1 0x20 ADD DUP3 DUP2 SUB DUP3 MSTORE PUSH1 0x23 DUP2 MSTORE PUSH1 0x20 ADD DUP1 PUSH2 0x1067 PUSH1 0x23 SWAP2 CODECOPY PUSH1 0x40 ADD SWAP2 POP POP PUSH1 0x40 MLOAD DUP1 SWAP2 SUB SWAP1 REVERT JUMPDEST PUSH1 0x3 PUSH1 0x0 SWAP1 SLOAD SWAP1 PUSH2 0x100 EXP SWAP1 DIV PUSH1 0xFF AND PUSH2 0x899 JUMPI PUSH1 0x40 MLOAD PUSH32 0x8C379A000000000000000000000000000000000000000000000000000000000 DUP2 MSTORE PUSH1 0x4 ADD DUP1 DUP1 PUSH1 0x20 ADD DUP3 DUP2 SUB DUP3 MSTORE PUSH1 0x16 DUP2 MSTORE PUSH1 0x20 ADD DUP1 PUSH32 0x5468652067616D6520646964206E6F7420737461727400000000000000000000 DUP2 MSTORE POP PUSH1 0x20 ADD SWAP2 POP POP PUSH1 0x40 MLOAD DUP1 SWAP2 SUB SWAP1 REVERT JUMPDEST PUSH2 0x8A1 PUSH2 0xD65 JUMP JUMPDEST PUSH1 0x2 PUSH1 0x0 DUP2 SLOAD DUP1 SWAP3 SWAP2 SWAP1 PUSH1 0x1 ADD SWAP2 SWAP1 POP SSTORE POP PUSH2 0x8BC DUP2 PUSH2 0xFA9 JUMP JUMPDEST POP JUMP JUMPDEST PUSH1 0x1 SLOAD DUP2 JUMP JUMPDEST PUSH1 0x0 DUP1 SWAP1 SLOAD SWAP1 PUSH2 0x100 EXP SWAP1 DIV PUSH20 0xFFFFFFFFFFFFFFFFFFFFFFFFFFFFFFFFFFFFFFFF AND PUSH20 0xFFFFFFFFFFFFFFFFFFFFFFFFFFFFFFFFFFFFFFFF AND CALLER PUSH20 0xFFFFFFFFFFFFFFFFFFFFFFFFFFFFFFFFFFFFFFFF AND EQ PUSH2 0x96A JUMPI PUSH1 0x40 MLOAD PUSH32 0x8C379A000000000000000000000000000000000000000000000000000000000 DUP2 MSTORE PUSH1 0x4 ADD DUP1 DUP1 PUSH1 0x20 ADD DUP3 DUP2 SUB DUP3 MSTORE PUSH1 0x23 DUP2 MSTORE PUSH1 0x20 ADD DUP1 PUSH2 0x1067 PUSH1 0x23 SWAP2 CODECOPY PUSH1 0x40 ADD SWAP2 POP POP PUSH1 0x40 MLOAD DUP1 SWAP2 SUB SWAP1 REVERT JUMPDEST PUSH1 0x3 PUSH1 0x0 SWAP1 SLOAD SWAP1 PUSH2 0x100 EXP SWAP1 DIV PUSH1 0xFF AND ISZERO PUSH2 0x9ED JUMPI PUSH1 0x40 MLOAD PUSH32 0x8C379A000000000000000000000000000000000000000000000000000000000 DUP2 MSTORE PUSH1 0x4 ADD DUP1 DUP1 PUSH1 0x20 ADD DUP3 DUP2 SUB DUP3 MSTORE PUSH1 0x14 DUP2 MSTORE PUSH1 0x20 ADD DUP1 PUSH32 0x4974206973206E6F742073746172742047616D65000000000000000000000000 DUP2 MSTORE POP PUSH1 0x20 ADD SWAP2 POP POP PUSH1 0x40 MLOAD DUP1 SWAP2 SUB SWAP1 REVERT JUMPDEST PUSH1 0x1 PUSH1 0x3 PUSH1 0x0 PUSH2 0x100 EXP DUP2 SLOAD DUP2 PUSH1 0xFF MUL NOT AND SWAP1 DUP4 ISZERO ISZERO MUL OR SWAP1 SSTORE POP PUSH2 0xA11 DUP2 PUSH2 0xFA9 JUMP JUMPDEST POP JUMP JUMPDEST PUSH1 0x0 DUP3 PUSH1 0xFF AND PUSH1 0x1 DUP2 LT ISZERO DUP1 ISZERO PUSH2 0xA2C JUMPI POP PUSH1 0xC DUP2 GT ISZERO JUMPDEST PUSH2 0xA9E JUMPI PUSH1 0x40 MLOAD PUSH32 0x8C379A000000000000000000000000000000000000000000000000000000000 DUP2 MSTORE PUSH1 0x4 ADD DUP1 DUP1 PUSH1 0x20 ADD DUP3 DUP2 SUB DUP3 MSTORE PUSH1 0x1E DUP2 MSTORE PUSH1 0x20 ADD DUP1 PUSH32 0x546865206E756D626572206973206E6F742066726F6D203120746F2031320000 DUP2 MSTORE POP PUSH1 0x20 ADD SWAP2 POP POP PUSH1 0x40 MLOAD DUP1 SWAP2 SUB SWAP1 REVERT JUMPDEST PUSH1 0x4 PUSH1 0x0 DUP5 DUP2 MSTORE PUSH1 0x20 ADD SWAP1 DUP2 MSTORE PUSH1 0x20 ADD PUSH1 0x0 KECCAK256 PUSH1 0x0 ADD PUSH1 0x0 CALLER PUSH20 0xFFFFFFFFFFFFFFFFFFFFFFFFFFFFFFFFFFFFFFFF AND PUSH20 0xFFFFFFFFFFFFFFFFFFFFFFFFFFFFFFFFFFFFFFFF AND DUP2 MSTORE PUSH1 0x20 ADD SWAP1 DUP2 MSTORE PUSH1 0x20 ADD PUSH1 0x0 KECCAK256 PUSH1 0x2 ADD PUSH1 0x0 SWAP1 SLOAD SWAP1 PUSH2 0x100 EXP SWAP1 DIV PUSH1 0xFF AND ISZERO PUSH2 0xB75 JUMPI PUSH1 0x40 MLOAD PUSH32 0x8C379A000000000000000000000000000000000000000000000000000000000 DUP2 MSTORE PUSH1 0x4 ADD DUP1 DUP1 PUSH1 0x20 ADD DUP3 DUP2 SUB DUP3 MSTORE PUSH1 0x1E DUP2 MSTORE PUSH1 0x20 ADD DUP1 PUSH32 0x506C6179657220616C726561647920726563656976652061206D6F6E65790000 DUP2 MSTORE POP PUSH1 0x20 ADD SWAP2 POP POP PUSH1 0x40 MLOAD DUP1 SWAP2 SUB SWAP1 REVERT JUMPDEST PUSH1 0x0 DUP4 LT ISZERO DUP1 ISZERO PUSH2 0xB87 JUMPI POP PUSH1 0x2 SLOAD DUP4 LT JUMPDEST PUSH2 0xBF9 JUMPI PUSH1 0x40 MLOAD PUSH32 0x8C379A000000000000000000000000000000000000000000000000000000000 DUP2 MSTORE PUSH1 0x4 ADD DUP1 DUP1 PUSH1 0x20 ADD DUP3 DUP2 SUB DUP3 MSTORE PUSH1 0x11 DUP2 MSTORE PUSH1 0x20 ADD DUP1 PUSH32 0x47616D65206973206E6F7420656E646564000000000000000000000000000000 DUP2 MSTORE POP PUSH1 0x20 ADD SWAP2 POP POP PUSH1 0x40 MLOAD DUP1 SWAP2 SUB SWAP1 REVERT JUMPDEST PUSH1 0x4 PUSH1 0x0 DUP5 DUP2 MSTORE PUSH1 0x20 ADD SWAP1 DUP2 MSTORE PUSH1 0x20 ADD PUSH1 0x0 KECCAK256 PUSH1 0x2 ADD PUSH1 0x0 SWAP1 SLOAD SWAP1 PUSH2 0x100 EXP SWAP1 DIV PUSH1 0xFF AND PUSH1 0xFF AND DUP5 PUSH1 0xFF AND EQ PUSH2 0xC7A JUMPI PUSH1 0x40 MLOAD PUSH32 0x8C379A000000000000000000000000000000000000000000000000000000000 DUP2 MSTORE PUSH1 0x4 ADD DUP1 DUP1 PUSH1 0x20 ADD DUP3 DUP2 SUB DUP3 MSTORE PUSH1 0x27 DUP2 MSTORE PUSH1 0x20 ADD DUP1 PUSH2 0x108A PUSH1 0x27 SWAP2 CODECOPY PUSH1 0x40 ADD SWAP2 POP POP PUSH1 0x40 MLOAD DUP1 SWAP2 SUB SWAP1 REVERT JUMPDEST PUSH1 0x0 DUP5 PUSH1 0x40 MLOAD PUSH1 0x20 ADD DUP1 DUP3 PUSH1 0xFF AND PUSH1 0xFF AND DUP2 MSTORE PUSH1 0x20 ADD SWAP2 POP POP PUSH1 0x40 MLOAD PUSH1 0x20 DUP2 DUP4 SUB SUB DUP2 MSTORE SWAP1 PUSH1 0x40 MSTORE DUP1 MLOAD SWAP1 PUSH1 0x20 ADD KECCAK256 SWAP1 POP PUSH1 0x4 PUSH1 0x0 DUP6 DUP2 MSTORE PUSH1 0x20 ADD SWAP1 DUP2 MSTORE PUSH1 0x20 ADD PUSH1 0x0 KECCAK256 PUSH1 0x0 ADD PUSH1 0x0 CALLER PUSH20 0xFFFFFFFFFFFFFFFFFFFFFFFFFFFFFFFFFFFFFFFF AND PUSH20 0xFFFFFFFFFFFFFFFFFFFFFFFFFFFFFFFFFFFFFFFF AND DUP2 MSTORE PUSH1 0x20 ADD SWAP1 DUP2 MSTORE PUSH1 0x20 ADD PUSH1 0x0 KECCAK256 PUSH1 0x0 ADD SLOAD DUP2 EQ PUSH2 0xD59 JUMPI PUSH1 0x40 MLOAD PUSH32 0x8C379A000000000000000000000000000000000000000000000000000000000 DUP2 MSTORE PUSH1 0x4 ADD DUP1 DUP1 PUSH1 0x20 ADD DUP3 DUP2 SUB DUP3 MSTORE PUSH1 0x22 DUP2 MSTORE PUSH1 0x20 ADD DUP1 PUSH2 0x10B1 PUSH1 0x22 SWAP2 CODECOPY PUSH1 0x40 ADD SWAP2 POP POP PUSH1 0x40 MLOAD DUP1 SWAP2 SUB SWAP1 REVERT JUMPDEST PUSH1 0x1 SWAP3 POP POP POP SWAP3 SWAP2 POP POP JUMP JUMPDEST PUSH1 0x0 PUSH1 0x4 PUSH1 0x0 PUSH1 0x2 SLOAD DUP2 MSTORE PUSH1 0x20 ADD SWAP1 DUP2 MSTORE PUSH1 0x20 ADD PUSH1 0x0 KECCAK256 PUSH1 0x1 ADD SWAP1 POP PUSH1 0x0 DUP2 DUP1 SLOAD SWAP1 POP SWAP1 POP PUSH1 0x0 DUP1 SWAP1 POP JUMPDEST DUP2 DUP2 LT ISZERO PUSH2 0xF6F JUMPI PUSH1 0x0 PUSH1 0x4 PUSH1 0x0 PUSH1 0x2 SLOAD DUP2 MSTORE PUSH1 0x20 ADD SWAP1 DUP2 MSTORE PUSH1 0x20 ADD PUSH1 0x0 KECCAK256 PUSH1 0x0 ADD PUSH1 0x0 DUP6 DUP5 DUP2 SLOAD DUP2 LT PUSH2 0xDC0 JUMPI INVALID JUMPDEST SWAP1 PUSH1 0x0 MSTORE PUSH1 0x20 PUSH1 0x0 KECCAK256 ADD PUSH1 0x0 SWAP1 SLOAD SWAP1 PUSH2 0x100 EXP SWAP1 DIV PUSH20 0xFFFFFFFFFFFFFFFFFFFFFFFFFFFFFFFFFFFFFFFF AND PUSH20 0xFFFFFFFFFFFFFFFFFFFFFFFFFFFFFFFFFFFFFFFF AND PUSH20 0xFFFFFFFFFFFFFFFFFFFFFFFFFFFFFFFFFFFFFFFF AND DUP2 MSTORE PUSH1 0x20 ADD SWAP1 DUP2 MSTORE PUSH1 0x20 ADD PUSH1 0x0 KECCAK256 PUSH1 0x0 ADD SLOAD SWAP1 POP PUSH1 0x4 PUSH1 0x0 PUSH1 0x2 SLOAD DUP2 MSTORE PUSH1 0x20 ADD SWAP1 DUP2 MSTORE PUSH1 0x20 ADD PUSH1 0x0 KECCAK256 PUSH1 0x2 ADD PUSH1 0x0 SWAP1 SLOAD SWAP1 PUSH2 0x100 EXP SWAP1 DIV PUSH1 0xFF AND PUSH1 0x40 MLOAD PUSH1 0x20 ADD DUP1 DUP3 PUSH1 0xFF AND PUSH1 0xFF AND DUP2 MSTORE PUSH1 0x20 ADD SWAP2 POP POP PUSH1 0x40 MLOAD PUSH1 0x20 DUP2 DUP4 SUB SUB DUP2 MSTORE SWAP1 PUSH1 0x40 MSTORE DUP1 MLOAD SWAP1 PUSH1 0x20 ADD KECCAK256 DUP2 EQ ISZERO PUSH2 0xF61 JUMPI PUSH1 0x4 PUSH1 0x0 PUSH1 0x2 SLOAD DUP2 MSTORE PUSH1 0x20 ADD SWAP1 DUP2 MSTORE PUSH1 0x20 ADD PUSH1 0x0 KECCAK256 PUSH1 0x3 ADD PUSH1 0x0 DUP2 SLOAD DUP1 SWAP3 SWAP2 SWAP1 PUSH1 0x1 ADD SWAP2 SWAP1 POP SSTORE POP PUSH1 0x4 PUSH1 0x0 PUSH1 0x2 SLOAD DUP2 MSTORE PUSH1 0x20 ADD SWAP1 DUP2 MSTORE PUSH1 0x20 ADD PUSH1 0x0 KECCAK256 PUSH1 0x0 ADD PUSH1 0x0 DUP6 DUP5 DUP2 SLOAD DUP2 LT PUSH2 0xED2 JUMPI INVALID JUMPDEST SWAP1 PUSH1 0x0 MSTORE PUSH1 0x20 PUSH1 0x0 KECCAK256 ADD PUSH1 0x0 SWAP1 SLOAD SWAP1 PUSH2 0x100 EXP SWAP1 DIV PUSH20 0xFFFFFFFFFFFFFFFFFFFFFFFFFFFFFFFFFFFFFFFF AND PUSH20 0xFFFFFFFFFFFFFFFFFFFFFFFFFFFFFFFFFFFFFFFF AND PUSH20 0xFFFFFFFFFFFFFFFFFFFFFFFFFFFFFFFFFFFFFFFF AND DUP2 MSTORE PUSH1 0x20 ADD SWAP1 DUP2 MSTORE PUSH1 0x20 ADD PUSH1 0x0 KECCAK256 PUSH1 0x1 ADD SLOAD PUSH1 0x4 PUSH1 0x0 PUSH1 0x2 SLOAD DUP2 MSTORE PUSH1 0x20 ADD SWAP1 DUP2 MSTORE PUSH1 0x20 ADD PUSH1 0x0 KECCAK256 PUSH1 0x4 ADD PUSH1 0x0 DUP3 DUP3 SLOAD ADD SWAP3 POP POP DUP2 SWAP1 SSTORE POP JUMPDEST POP DUP1 DUP1 PUSH1 0x1 ADD SWAP2 POP POP PUSH2 0xD90 JUMP JUMPDEST POP PUSH1 0x4 PUSH1 0x0 PUSH1 0x2 SLOAD DUP2 MSTORE PUSH1 0x20 ADD SWAP1 DUP2 MSTORE PUSH1 0x20 ADD PUSH1 0x0 KECCAK256 PUSH1 0x6 ADD SLOAD PUSH1 0x4 PUSH1 0x0 PUSH1 0x2 SLOAD DUP2 MSTORE PUSH1 0x20 ADD SWAP1 DUP2 MSTORE PUSH1 0x20 ADD PUSH1 0x0 KECCAK256 PUSH1 0x5 ADD DUP2 SWAP1 SSTORE POP POP POP JUMP JUMPDEST DUP1 PUSH1 0xFF AND PUSH1 0x1 DUP2 LT ISZERO DUP1 ISZERO PUSH2 0xFBF JUMPI POP PUSH1 0xC DUP2 GT ISZERO JUMPDEST PUSH2 0x1031 JUMPI PUSH1 0x40 MLOAD PUSH32 0x8C379A000000000000000000000000000000000000000000000000000000000 DUP2 MSTORE PUSH1 0x4 ADD DUP1 DUP1 PUSH1 0x20 ADD DUP3 DUP2 SUB DUP3 MSTORE PUSH1 0x1E DUP2 MSTORE PUSH1 0x20 ADD DUP1 PUSH32 0x546865206E756D626572206973206E6F742066726F6D203120746F2031320000 DUP2 MSTORE POP PUSH1 0x20 ADD SWAP2 POP POP PUSH1 0x40 MLOAD DUP1 SWAP2 SUB SWAP1 REVERT JUMPDEST DUP2 PUSH1 0x4 PUSH1 0x0 PUSH1 0x2 SLOAD DUP2 MSTORE PUSH1 0x20 ADD SWAP1 DUP2 MSTORE PUSH1 0x20 ADD PUSH1 0x0 KECCAK256 PUSH1 0x2 ADD PUSH1 0x0 PUSH2 0x100 EXP DUP2 SLOAD DUP2 PUSH1 0xFF MUL NOT AND SWAP1 DUP4 PUSH1 0xFF AND MUL OR SWAP1 SSTORE POP POP POP JUMP INVALID 0x4f PUSH15 0x6C79206D616E616765722063616E20 PUSH4 0x616C6C20 PUSH21 0x6869732066756E6374696F6E5573657220696E7075 PUSH21 0x20646F6573206E6F74206D617463682077696E6E69 PUSH15 0x672076616C75655573657220696E70 PUSH22 0x7420646F6573206E6F74206D61746368206974732068 PUSH2 0x7368 LOG2 PUSH6 0x627A7A723158 KECCAK256 0x5e PUSH24 0x6E51E52B0A25DF1483C5CD10E7441FB142DBD145395D53CC 0xf7 LOG0 0x26 0xbd JUMPI CALLDATALOAD PUSH5 0x736F6C6343 STOP SDIV SIGNEXTEND STOP ORIGIN "},"gasEstimates":{"creation":{"codeDepositCost":"871800","executionCost":"infinite","totalCost":"infinite"},"external":{"getGameById(uint256)":"1269","manager()":"498","minimumBet()":"449","newGame(uint8)":"infinite","receiveMoney(uint8,uint256)":"infinite","setUserBetAndHash(bytes32)":"103518","startGame(uint8)":"infinite"},"internal":{"checkUserValue(uint8,uint256)":"infinite","setGame()":"infinite","setServerValue(uint8)":"infinite"}},"methodIdentifiers":{"getGameById(uint256)":"09660513","manager()":"481c6a75","minimumBet()":"c38a8afd","newGame(uint8)":"bbf344ce","receiveMoney(uint8,uint256)":"886dc4d3","setUserBetAndHash(bytes32)":"0d0aa44a","startGame(uint8)":"e6ab6079"}},"userdoc":{"methods":{}}}