{"abi":[{"constant":true,"inputs":[{"internalType":"uint256","name":"id","type":"uint256"}],"name":"getGameById","outputs":[{"internalType":"uint8","name":"winningValue","type":"uint8"},{"internalType":"uint256","name":"restBalance","type":"uint256"},{"internalType":"uint256","name":"gameBalance","type":"uint256"},{"internalType":"uint256","name":"minimumBet","type":"uint256"}],"payable":false,"stateMutability":"view","type":"function"},{"constant":false,"inputs":[{"internalType":"bytes32","name":"hashValue","type":"bytes32"}],"name":"setUserBetAndHash","outputs":[],"payable":true,"stateMutability":"payable","type":"function"},{"constant":true,"inputs":[],"name":"manager","outputs":[{"internalType":"address","name":"","type":"address"}],"payable":false,"stateMutability":"view","type":"function"},{"constant":true,"inputs":[],"name":"gameStarted","outputs":[{"internalType":"bool","name":"","type":"bool"}],"payable":false,"stateMutability":"view","type":"function"},{"constant":false,"inputs":[{"internalType":"uint8","name":"userValue","type":"uint8"},{"internalType":"uint256","name":"_gameId","type":"uint256"}],"name":"receiveMoney","outputs":[{"internalType":"bool","name":"","type":"bool"}],"payable":true,"stateMutability":"payable","type":"function"},{"constant":true,"inputs":[],"name":"gameId","outputs":[{"internalType":"uint256","name":"","type":"uint256"}],"payable":false,"stateMutability":"view","type":"function"},{"constant":false,"inputs":[{"internalType":"uint8","name":"dice","type":"uint8"},{"internalType":"uint256","name":"_minimumBet","type":"uint256"}],"name":"startGame","outputs":[{"internalType":"bool","name":"","type":"bool"}],"payable":false,"stateMutability":"nonpayable","type":"function"},{"constant":false,"inputs":[{"internalType":"uint8","name":"dice","type":"uint8"},{"internalType":"uint256","name":"_minimumBet","type":"uint256"}],"name":"newGame","outputs":[{"internalType":"bool","name":"","type":"bool"}],"payable":false,"stateMutability":"nonpayable","type":"function"},{"inputs":[],"payable":false,"stateMutability":"nonpayable","type":"constructor"}],"devdoc":{"methods":{}},"evm":{"assembly":"    /* \"diceGame.sol\":26:4307  contract DiceGame {... */\n  mstore(0x40, 0x80)\n    /* \"diceGame.sol\":808:886  constructor() public {... */\n  callvalue\n    /* \"--CODEGEN--\":8:17   */\n  dup1\n    /* \"--CODEGEN--\":5:7   */\n  iszero\n  tag_1\n  jumpi\n    /* \"--CODEGEN--\":30:31   */\n  0x00\n    /* \"--CODEGEN--\":27:28   */\n  dup1\n    /* \"--CODEGEN--\":20:32   */\n  revert\n    /* \"--CODEGEN--\":5:7   */\ntag_1:\n    /* \"diceGame.sol\":808:886  constructor() public {... */\n  pop\n    /* \"diceGame.sol\":849:859  msg.sender */\n  caller\n    /* \"diceGame.sol\":839:846  manager */\n  0x00\n  dup1\n    /* \"diceGame.sol\":839:859  manager = msg.sender */\n  0x0100\n  exp\n  dup2\n  sload\n  dup2\n  0xffffffffffffffffffffffffffffffffffffffff\n  mul\n  not\n  and\n  swap1\n  dup4\n  0xffffffffffffffffffffffffffffffffffffffff\n  and\n  mul\n  or\n  swap1\n  sstore\n  pop\n    /* \"diceGame.sol\":878:879  0 */\n  0x00\n    /* \"diceGame.sol\":869:875  gameId */\n  0x01\n    /* \"diceGame.sol\":869:879  gameId = 0 */\n  dup2\n  swap1\n  sstore\n  pop\n    /* \"diceGame.sol\":26:4307  contract DiceGame {... */\n  dataSize(sub_0)\n  dup1\n  dataOffset(sub_0)\n  0x00\n  codecopy\n  0x00\n  return\nstop\n\nsub_0: assembly {\n        /* \"diceGame.sol\":26:4307  contract DiceGame {... */\n      mstore(0x40, 0x80)\n      jumpi(tag_1, lt(calldatasize, 0x04))\n      shr(0xe0, calldataload(0x00))\n      dup1\n      0x886dc4d3\n      gt\n      tag_10\n      jumpi\n      dup1\n      0x886dc4d3\n      eq\n      tag_6\n      jumpi\n      dup1\n      0xd7c81b55\n      eq\n      tag_7\n      jumpi\n      dup1\n      0xe849c38e\n      eq\n      tag_8\n      jumpi\n      dup1\n      0xf5e71f1a\n      eq\n      tag_9\n      jumpi\n      jump(tag_1)\n    tag_10:\n      dup1\n      0x09660513\n      eq\n      tag_2\n      jumpi\n      dup1\n      0x0d0aa44a\n      eq\n      tag_3\n      jumpi\n      dup1\n      0x481c6a75\n      eq\n      tag_4\n      jumpi\n      dup1\n      0x5e123ce4\n      eq\n      tag_5\n      jumpi\n    tag_1:\n      0x00\n      dup1\n      revert\n        /* \"diceGame.sol\":3891:4188  function getGameById(uint id) public view returns(uint8 winningValue, uint restBalance, uint gameBalance, uint minimumBet) {... */\n    tag_2:\n      callvalue\n        /* \"--CODEGEN--\":8:17   */\n      dup1\n        /* \"--CODEGEN--\":5:7   */\n      iszero\n      tag_11\n      jumpi\n        /* \"--CODEGEN--\":30:31   */\n      0x00\n        /* \"--CODEGEN--\":27:28   */\n      dup1\n        /* \"--CODEGEN--\":20:32   */\n      revert\n        /* \"--CODEGEN--\":5:7   */\n    tag_11:\n        /* \"diceGame.sol\":3891:4188  function getGameById(uint id) public view returns(uint8 winningValue, uint restBalance, uint gameBalance, uint minimumBet) {... */\n      pop\n      tag_12\n      0x04\n      dup1\n      calldatasize\n      sub\n        /* \"--CODEGEN--\":13:15   */\n      0x20\n        /* \"--CODEGEN--\":8:11   */\n      dup2\n        /* \"--CODEGEN--\":5:16   */\n      lt\n        /* \"--CODEGEN--\":2:4   */\n      iszero\n      tag_13\n      jumpi\n        /* \"--CODEGEN--\":29:30   */\n      0x00\n        /* \"--CODEGEN--\":26:27   */\n      dup1\n        /* \"--CODEGEN--\":19:31   */\n      revert\n        /* \"--CODEGEN--\":2:4   */\n    tag_13:\n        /* \"diceGame.sol\":3891:4188  function getGameById(uint id) public view returns(uint8 winningValue, uint restBalance, uint gameBalance, uint minimumBet) {... */\n      dup2\n      add\n      swap1\n      dup1\n      dup1\n      calldataload\n      swap1\n      0x20\n      add\n      swap1\n      swap3\n      swap2\n      swap1\n      pop\n      pop\n      pop\n      tag_14\n      jump\t// in\n    tag_12:\n      mload(0x40)\n      dup1\n      dup6\n      0xff\n      and\n      0xff\n      and\n      dup2\n      mstore\n      0x20\n      add\n      dup5\n      dup2\n      mstore\n      0x20\n      add\n      dup4\n      dup2\n      mstore\n      0x20\n      add\n      dup3\n      dup2\n      mstore\n      0x20\n      add\n      swap5\n      pop\n      pop\n      pop\n      pop\n      pop\n      mload(0x40)\n      dup1\n      swap2\n      sub\n      swap1\n      return\n        /* \"diceGame.sol\":896:1509  function setUserBetAndHash(bytes32 hashValue) public payable {... */\n    tag_3:\n      tag_15\n      0x04\n      dup1\n      calldatasize\n      sub\n        /* \"--CODEGEN--\":13:15   */\n      0x20\n        /* \"--CODEGEN--\":8:11   */\n      dup2\n        /* \"--CODEGEN--\":5:16   */\n      lt\n        /* \"--CODEGEN--\":2:4   */\n      iszero\n      tag_16\n      jumpi\n        /* \"--CODEGEN--\":29:30   */\n      0x00\n        /* \"--CODEGEN--\":26:27   */\n      dup1\n        /* \"--CODEGEN--\":19:31   */\n      revert\n        /* \"--CODEGEN--\":2:4   */\n    tag_16:\n        /* \"diceGame.sol\":896:1509  function setUserBetAndHash(bytes32 hashValue) public payable {... */\n      dup2\n      add\n      swap1\n      dup1\n      dup1\n      calldataload\n      swap1\n      0x20\n      add\n      swap1\n      swap3\n      swap2\n      swap1\n      pop\n      pop\n      pop\n      tag_17\n      jump\t// in\n    tag_15:\n      stop\n        /* \"diceGame.sol\":50:72  address public manager */\n    tag_4:\n      callvalue\n        /* \"--CODEGEN--\":8:17   */\n      dup1\n        /* \"--CODEGEN--\":5:7   */\n      iszero\n      tag_18\n      jumpi\n        /* \"--CODEGEN--\":30:31   */\n      0x00\n        /* \"--CODEGEN--\":27:28   */\n      dup1\n        /* \"--CODEGEN--\":20:32   */\n      revert\n        /* \"--CODEGEN--\":5:7   */\n    tag_18:\n        /* \"diceGame.sol\":50:72  address public manager */\n      pop\n      tag_19\n      tag_20\n      jump\t// in\n    tag_19:\n      mload(0x40)\n      dup1\n      dup3\n      0xffffffffffffffffffffffffffffffffffffffff\n      and\n      0xffffffffffffffffffffffffffffffffffffffff\n      and\n      dup2\n      mstore\n      0x20\n      add\n      swap2\n      pop\n      pop\n      mload(0x40)\n      dup1\n      swap2\n      sub\n      swap1\n      return\n        /* \"diceGame.sol\":102:125  bool public gameStarted */\n    tag_5:\n      callvalue\n        /* \"--CODEGEN--\":8:17   */\n      dup1\n        /* \"--CODEGEN--\":5:7   */\n      iszero\n      tag_21\n      jumpi\n        /* \"--CODEGEN--\":30:31   */\n      0x00\n        /* \"--CODEGEN--\":27:28   */\n      dup1\n        /* \"--CODEGEN--\":20:32   */\n      revert\n        /* \"--CODEGEN--\":5:7   */\n    tag_21:\n        /* \"diceGame.sol\":102:125  bool public gameStarted */\n      pop\n      tag_22\n      tag_23\n      jump\t// in\n    tag_22:\n      mload(0x40)\n      dup1\n      dup3\n      iszero\n      iszero\n      iszero\n      iszero\n      dup2\n      mstore\n      0x20\n      add\n      swap2\n      pop\n      pop\n      mload(0x40)\n      dup1\n      swap2\n      sub\n      swap1\n      return\n        /* \"diceGame.sol\":2110:2551  function receiveMoney(uint8 userValue, uint _gameId) public payable returns (bool) {... */\n    tag_6:\n      tag_24\n      0x04\n      dup1\n      calldatasize\n      sub\n        /* \"--CODEGEN--\":13:15   */\n      0x40\n        /* \"--CODEGEN--\":8:11   */\n      dup2\n        /* \"--CODEGEN--\":5:16   */\n      lt\n        /* \"--CODEGEN--\":2:4   */\n      iszero\n      tag_25\n      jumpi\n        /* \"--CODEGEN--\":29:30   */\n      0x00\n        /* \"--CODEGEN--\":26:27   */\n      dup1\n        /* \"--CODEGEN--\":19:31   */\n      revert\n        /* \"--CODEGEN--\":2:4   */\n    tag_25:\n        /* \"diceGame.sol\":2110:2551  function receiveMoney(uint8 userValue, uint _gameId) public payable returns (bool) {... */\n      dup2\n      add\n      swap1\n      dup1\n      dup1\n      calldataload\n      0xff\n      and\n      swap1\n      0x20\n      add\n      swap1\n      swap3\n      swap2\n      swap1\n      dup1\n      calldataload\n      swap1\n      0x20\n      add\n      swap1\n      swap3\n      swap2\n      swap1\n      pop\n      pop\n      pop\n      tag_26\n      jump\t// in\n    tag_24:\n      mload(0x40)\n      dup1\n      dup3\n      iszero\n      iszero\n      iszero\n      iszero\n      dup2\n      mstore\n      0x20\n      add\n      swap2\n      pop\n      pop\n      mload(0x40)\n      dup1\n      swap2\n      sub\n      swap1\n      return\n        /* \"diceGame.sol\":78:96  uint public gameId */\n    tag_7:\n      callvalue\n        /* \"--CODEGEN--\":8:17   */\n      dup1\n        /* \"--CODEGEN--\":5:7   */\n      iszero\n      tag_27\n      jumpi\n        /* \"--CODEGEN--\":30:31   */\n      0x00\n        /* \"--CODEGEN--\":27:28   */\n      dup1\n        /* \"--CODEGEN--\":20:32   */\n      revert\n        /* \"--CODEGEN--\":5:7   */\n    tag_27:\n        /* \"diceGame.sol\":78:96  uint public gameId */\n      pop\n      tag_28\n      tag_29\n      jump\t// in\n    tag_28:\n      mload(0x40)\n      dup1\n      dup3\n      dup2\n      mstore\n      0x20\n      add\n      swap2\n      pop\n      pop\n      mload(0x40)\n      dup1\n      swap2\n      sub\n      swap1\n      return\n        /* \"diceGame.sol\":3328:3593  function startGame(uint8 dice, uint _minimumBet) public isManager returns (bool) {... */\n    tag_8:\n      callvalue\n        /* \"--CODEGEN--\":8:17   */\n      dup1\n        /* \"--CODEGEN--\":5:7   */\n      iszero\n      tag_30\n      jumpi\n        /* \"--CODEGEN--\":30:31   */\n      0x00\n        /* \"--CODEGEN--\":27:28   */\n      dup1\n        /* \"--CODEGEN--\":20:32   */\n      revert\n        /* \"--CODEGEN--\":5:7   */\n    tag_30:\n        /* \"diceGame.sol\":3328:3593  function startGame(uint8 dice, uint _minimumBet) public isManager returns (bool) {... */\n      pop\n      tag_31\n      0x04\n      dup1\n      calldatasize\n      sub\n        /* \"--CODEGEN--\":13:15   */\n      0x40\n        /* \"--CODEGEN--\":8:11   */\n      dup2\n        /* \"--CODEGEN--\":5:16   */\n      lt\n        /* \"--CODEGEN--\":2:4   */\n      iszero\n      tag_32\n      jumpi\n        /* \"--CODEGEN--\":29:30   */\n      0x00\n        /* \"--CODEGEN--\":26:27   */\n      dup1\n        /* \"--CODEGEN--\":19:31   */\n      revert\n        /* \"--CODEGEN--\":2:4   */\n    tag_32:\n        /* \"diceGame.sol\":3328:3593  function startGame(uint8 dice, uint _minimumBet) public isManager returns (bool) {... */\n      dup2\n      add\n      swap1\n      dup1\n      dup1\n      calldataload\n      0xff\n      and\n      swap1\n      0x20\n      add\n      swap1\n      swap3\n      swap2\n      swap1\n      dup1\n      calldataload\n      swap1\n      0x20\n      add\n      swap1\n      swap3\n      swap2\n      swap1\n      pop\n      pop\n      pop\n      tag_33\n      jump\t// in\n    tag_31:\n      mload(0x40)\n      dup1\n      dup3\n      iszero\n      iszero\n      iszero\n      iszero\n      dup2\n      mstore\n      0x20\n      add\n      swap2\n      pop\n      pop\n      mload(0x40)\n      dup1\n      swap2\n      sub\n      swap1\n      return\n        /* \"diceGame.sol\":3603:3881  function newGame(uint8 dice, uint _minimumBet) public isManager returns (bool) {... */\n    tag_9:\n      callvalue\n        /* \"--CODEGEN--\":8:17   */\n      dup1\n        /* \"--CODEGEN--\":5:7   */\n      iszero\n      tag_34\n      jumpi\n        /* \"--CODEGEN--\":30:31   */\n      0x00\n        /* \"--CODEGEN--\":27:28   */\n      dup1\n        /* \"--CODEGEN--\":20:32   */\n      revert\n        /* \"--CODEGEN--\":5:7   */\n    tag_34:\n        /* \"diceGame.sol\":3603:3881  function newGame(uint8 dice, uint _minimumBet) public isManager returns (bool) {... */\n      pop\n      tag_35\n      0x04\n      dup1\n      calldatasize\n      sub\n        /* \"--CODEGEN--\":13:15   */\n      0x40\n        /* \"--CODEGEN--\":8:11   */\n      dup2\n        /* \"--CODEGEN--\":5:16   */\n      lt\n        /* \"--CODEGEN--\":2:4   */\n      iszero\n      tag_36\n      jumpi\n        /* \"--CODEGEN--\":29:30   */\n      0x00\n        /* \"--CODEGEN--\":26:27   */\n      dup1\n        /* \"--CODEGEN--\":19:31   */\n      revert\n        /* \"--CODEGEN--\":2:4   */\n    tag_36:\n        /* \"diceGame.sol\":3603:3881  function newGame(uint8 dice, uint _minimumBet) public isManager returns (bool) {... */\n      dup2\n      add\n      swap1\n      dup1\n      dup1\n      calldataload\n      0xff\n      and\n      swap1\n      0x20\n      add\n      swap1\n      swap3\n      swap2\n      swap1\n      dup1\n      calldataload\n      swap1\n      0x20\n      add\n      swap1\n      swap3\n      swap2\n      swap1\n      pop\n      pop\n      pop\n      tag_37\n      jump\t// in\n    tag_35:\n      mload(0x40)\n      dup1\n      dup3\n      iszero\n      iszero\n      iszero\n      iszero\n      dup2\n      mstore\n      0x20\n      add\n      swap2\n      pop\n      pop\n      mload(0x40)\n      dup1\n      swap2\n      sub\n      swap1\n      return\n        /* \"diceGame.sol\":3891:4188  function getGameById(uint id) public view returns(uint8 winningValue, uint restBalance, uint gameBalance, uint minimumBet) {... */\n    tag_14:\n        /* \"diceGame.sol\":3941:3959  uint8 winningValue */\n      0x00\n        /* \"diceGame.sol\":3961:3977  uint restBalance */\n      dup1\n        /* \"diceGame.sol\":3979:3995  uint gameBalance */\n      0x00\n        /* \"diceGame.sol\":3997:4012  uint minimumBet */\n      dup1\n        /* \"diceGame.sol\":4045:4050  games */\n      0x03\n        /* \"diceGame.sol\":4045:4054  games[id] */\n      0x00\n        /* \"diceGame.sol\":4051:4053  id */\n      dup7\n        /* \"diceGame.sol\":4045:4054  games[id] */\n      dup2\n      mstore\n      0x20\n      add\n      swap1\n      dup2\n      mstore\n      0x20\n      add\n      0x00\n      keccak256\n        /* \"diceGame.sol\":4045:4067  games[id].winningValue */\n      0x02\n      add\n      0x00\n      swap1\n      sload\n      swap1\n      0x0100\n      exp\n      swap1\n      div\n      0xff\n      and\n        /* \"diceGame.sol\":4081:4086  games */\n      0x03\n        /* \"diceGame.sol\":4081:4090  games[id] */\n      0x00\n        /* \"diceGame.sol\":4087:4089  id */\n      dup8\n        /* \"diceGame.sol\":4081:4090  games[id] */\n      dup2\n      mstore\n      0x20\n      add\n      swap1\n      dup2\n      mstore\n      0x20\n      add\n      0x00\n      keccak256\n        /* \"diceGame.sol\":4081:4102  games[id].restBalance */\n      0x05\n      add\n      sload\n        /* \"diceGame.sol\":4116:4121  games */\n      0x03\n        /* \"diceGame.sol\":4116:4125  games[id] */\n      0x00\n        /* \"diceGame.sol\":4122:4124  id */\n      dup9\n        /* \"diceGame.sol\":4116:4125  games[id] */\n      dup2\n      mstore\n      0x20\n      add\n      swap1\n      dup2\n      mstore\n      0x20\n      add\n      0x00\n      keccak256\n        /* \"diceGame.sol\":4116:4137  games[id].gameBalance */\n      0x06\n      add\n      sload\n        /* \"diceGame.sol\":4151:4156  games */\n      0x03\n        /* \"diceGame.sol\":4151:4160  games[id] */\n      0x00\n        /* \"diceGame.sol\":4157:4159  id */\n      dup10\n        /* \"diceGame.sol\":4151:4160  games[id] */\n      dup2\n      mstore\n      0x20\n      add\n      swap1\n      dup2\n      mstore\n      0x20\n      add\n      0x00\n      keccak256\n        /* \"diceGame.sol\":4151:4171  games[id].minimumBet */\n      0x07\n      add\n      sload\n        /* \"diceGame.sol\":4024:4181  return (... */\n      swap4\n      pop\n      swap4\n      pop\n      swap4\n      pop\n      swap4\n      pop\n        /* \"diceGame.sol\":3891:4188  function getGameById(uint id) public view returns(uint8 winningValue, uint restBalance, uint gameBalance, uint minimumBet) {... */\n      swap2\n      swap4\n      pop\n      swap2\n      swap4\n      jump\t// out\n        /* \"diceGame.sol\":896:1509  function setUserBetAndHash(bytes32 hashValue) public payable {... */\n    tag_17:\n        /* \"diceGame.sol\":967:988  address senderAddress */\n      0x00\n        /* \"diceGame.sol\":991:1001  msg.sender */\n      caller\n        /* \"diceGame.sol\":967:1001  address senderAddress = msg.sender */\n      swap1\n      pop\n        /* \"diceGame.sol\":1036:1043  manager */\n      0x00\n      dup1\n      swap1\n      sload\n      swap1\n      0x0100\n      exp\n      swap1\n      div\n      0xffffffffffffffffffffffffffffffffffffffff\n      and\n        /* \"diceGame.sol\":1019:1043  senderAddress != manager */\n      0xffffffffffffffffffffffffffffffffffffffff\n      and\n        /* \"diceGame.sol\":1019:1032  senderAddress */\n      dup2\n        /* \"diceGame.sol\":1019:1043  senderAddress != manager */\n      0xffffffffffffffffffffffffffffffffffffffff\n      and\n      eq\n      iszero\n        /* \"diceGame.sol\":1011:1074  require(senderAddress != manager, \"Manager cannot bet a value\") */\n      tag_40\n      jumpi\n      mload(0x40)\n      0x08c379a000000000000000000000000000000000000000000000000000000000\n      dup2\n      mstore\n      0x04\n      add\n      dup1\n      dup1\n      0x20\n      add\n      dup3\n      dup2\n      sub\n      dup3\n      mstore\n      0x1a\n      dup2\n      mstore\n      0x20\n      add\n      dup1\n      0x4d616e616765722063616e6e6f742062657420612076616c7565000000000000\n      dup2\n      mstore\n      pop\n      0x20\n      add\n      swap2\n      pop\n      pop\n      mload(0x40)\n      dup1\n      swap2\n      sub\n      swap1\n      revert\n    tag_40:\n        /* \"diceGame.sol\":1142:1143  0 */\n      0x00\n        /* \"diceGame.sol\":1092:1143  games[gameId].players[senderAddress].hashValue == 0 */\n      dup1\n      shl\n        /* \"diceGame.sol\":1092:1097  games */\n      0x03\n        /* \"diceGame.sol\":1092:1105  games[gameId] */\n      0x00\n        /* \"diceGame.sol\":1098:1104  gameId */\n      sload(0x01)\n        /* \"diceGame.sol\":1092:1105  games[gameId] */\n      dup2\n      mstore\n      0x20\n      add\n      swap1\n      dup2\n      mstore\n      0x20\n      add\n      0x00\n      keccak256\n        /* \"diceGame.sol\":1092:1113  games[gameId].players */\n      0x00\n      add\n        /* \"diceGame.sol\":1092:1128  games[gameId].players[senderAddress] */\n      0x00\n        /* \"diceGame.sol\":1114:1127  senderAddress */\n      dup4\n        /* \"diceGame.sol\":1092:1128  games[gameId].players[senderAddress] */\n      0xffffffffffffffffffffffffffffffffffffffff\n      and\n      0xffffffffffffffffffffffffffffffffffffffff\n      and\n      dup2\n      mstore\n      0x20\n      add\n      swap1\n      dup2\n      mstore\n      0x20\n      add\n      0x00\n      keccak256\n        /* \"diceGame.sol\":1092:1138  games[gameId].players[senderAddress].hashValue */\n      0x00\n      add\n      sload\n        /* \"diceGame.sol\":1092:1143  games[gameId].players[senderAddress].hashValue == 0 */\n      eq\n        /* \"diceGame.sol\":1084:1173  require(games[gameId].players[senderAddress].hashValue == 0, \"Player already bet number\") */\n      tag_41\n      jumpi\n      mload(0x40)\n      0x08c379a000000000000000000000000000000000000000000000000000000000\n      dup2\n      mstore\n      0x04\n      add\n      dup1\n      dup1\n      0x20\n      add\n      dup3\n      dup2\n      sub\n      dup3\n      mstore\n      0x19\n      dup2\n      mstore\n      0x20\n      add\n      dup1\n      0x506c6179657220616c726561647920626574206e756d62657200000000000000\n      dup2\n      mstore\n      pop\n      0x20\n      add\n      swap2\n      pop\n      pop\n      mload(0x40)\n      dup1\n      swap2\n      sub\n      swap1\n      revert\n    tag_41:\n        /* \"diceGame.sol\":1203:1208  games */\n      0x03\n        /* \"diceGame.sol\":1203:1216  games[gameId] */\n      0x00\n        /* \"diceGame.sol\":1209:1215  gameId */\n      sload(0x01)\n        /* \"diceGame.sol\":1203:1216  games[gameId] */\n      dup2\n      mstore\n      0x20\n      add\n      swap1\n      dup2\n      mstore\n      0x20\n      add\n      0x00\n      keccak256\n        /* \"diceGame.sol\":1203:1227  games[gameId].minimumBet */\n      0x07\n      add\n      sload\n        /* \"diceGame.sol\":1191:1200  msg.value */\n      callvalue\n        /* \"diceGame.sol\":1191:1227  msg.value > games[gameId].minimumBet */\n      gt\n        /* \"diceGame.sol\":1183:1260  require(msg.value > games[gameId].minimumBet, \"You Bet less then minimumBet\") */\n      tag_42\n      jumpi\n      mload(0x40)\n      0x08c379a000000000000000000000000000000000000000000000000000000000\n      dup2\n      mstore\n      0x04\n      add\n      dup1\n      dup1\n      0x20\n      add\n      dup3\n      dup2\n      sub\n      dup3\n      mstore\n      0x1c\n      dup2\n      mstore\n      0x20\n      add\n      dup1\n      0x596f7520426574206c657373207468656e206d696e696d756d42657400000000\n      dup2\n      mstore\n      pop\n      0x20\n      add\n      swap2\n      pop\n      pop\n      mload(0x40)\n      dup1\n      swap2\n      sub\n      swap1\n      revert\n    tag_42:\n        /* \"diceGame.sol\":1319:1328  hashValue */\n      dup2\n        /* \"diceGame.sol\":1270:1275  games */\n      0x03\n        /* \"diceGame.sol\":1270:1283  games[gameId] */\n      0x00\n        /* \"diceGame.sol\":1276:1282  gameId */\n      sload(0x01)\n        /* \"diceGame.sol\":1270:1283  games[gameId] */\n      dup2\n      mstore\n      0x20\n      add\n      swap1\n      dup2\n      mstore\n      0x20\n      add\n      0x00\n      keccak256\n        /* \"diceGame.sol\":1270:1291  games[gameId].players */\n      0x00\n      add\n        /* \"diceGame.sol\":1270:1306  games[gameId].players[senderAddress] */\n      0x00\n        /* \"diceGame.sol\":1292:1305  senderAddress */\n      dup4\n        /* \"diceGame.sol\":1270:1306  games[gameId].players[senderAddress] */\n      0xffffffffffffffffffffffffffffffffffffffff\n      and\n      0xffffffffffffffffffffffffffffffffffffffff\n      and\n      dup2\n      mstore\n      0x20\n      add\n      swap1\n      dup2\n      mstore\n      0x20\n      add\n      0x00\n      keccak256\n        /* \"diceGame.sol\":1270:1316  games[gameId].players[senderAddress].hashValue */\n      0x00\n      add\n        /* \"diceGame.sol\":1270:1328  games[gameId].players[senderAddress].hashValue = hashValue */\n      dup2\n      swap1\n      sstore\n      pop\n        /* \"diceGame.sol\":1386:1395  msg.value */\n      callvalue\n        /* \"diceGame.sol\":1338:1343  games */\n      0x03\n        /* \"diceGame.sol\":1338:1351  games[gameId] */\n      0x00\n        /* \"diceGame.sol\":1344:1350  gameId */\n      sload(0x01)\n        /* \"diceGame.sol\":1338:1351  games[gameId] */\n      dup2\n      mstore\n      0x20\n      add\n      swap1\n      dup2\n      mstore\n      0x20\n      add\n      0x00\n      keccak256\n        /* \"diceGame.sol\":1338:1359  games[gameId].players */\n      0x00\n      add\n        /* \"diceGame.sol\":1338:1374  games[gameId].players[senderAddress] */\n      0x00\n        /* \"diceGame.sol\":1360:1373  senderAddress */\n      dup4\n        /* \"diceGame.sol\":1338:1374  games[gameId].players[senderAddress] */\n      0xffffffffffffffffffffffffffffffffffffffff\n      and\n      0xffffffffffffffffffffffffffffffffffffffff\n      and\n      dup2\n      mstore\n      0x20\n      add\n      swap1\n      dup2\n      mstore\n      0x20\n      add\n      0x00\n      keccak256\n        /* \"diceGame.sol\":1338:1383  games[gameId].players[senderAddress].betValue */\n      0x01\n      add\n        /* \"diceGame.sol\":1338:1395  games[gameId].players[senderAddress].betValue = msg.value */\n      dup2\n      swap1\n      sstore\n      pop\n        /* \"diceGame.sol\":1405:1410  games */\n      0x03\n        /* \"diceGame.sol\":1405:1418  games[gameId] */\n      0x00\n        /* \"diceGame.sol\":1411:1417  gameId */\n      sload(0x01)\n        /* \"diceGame.sol\":1405:1418  games[gameId] */\n      dup2\n      mstore\n      0x20\n      add\n      swap1\n      dup2\n      mstore\n      0x20\n      add\n      0x00\n      keccak256\n        /* \"diceGame.sol\":1405:1434  games[gameId].playerAddresses */\n      0x01\n      add\n        /* \"diceGame.sol\":1440:1453  senderAddress */\n      dup2\n        /* \"diceGame.sol\":1405:1454  games[gameId].playerAddresses.push(senderAddress) */\n      swap1\n      dup1\n        /* \"--CODEGEN--\":39:40   */\n      0x01\n        /* \"--CODEGEN--\":33:36   */\n      dup2\n        /* \"--CODEGEN--\":27:37   */\n      sload\n        /* \"--CODEGEN--\":23:41   */\n      add\n        /* \"--CODEGEN--\":57:67   */\n      dup1\n        /* \"--CODEGEN--\":52:55   */\n      dup3\n        /* \"--CODEGEN--\":45:68   */\n      sstore\n        /* \"--CODEGEN--\":79:89   */\n      dup1\n        /* \"--CODEGEN--\":72:89   */\n      swap2\n      pop\n        /* \"--CODEGEN--\":0:93   */\n      pop\n        /* \"diceGame.sol\":1405:1454  games[gameId].playerAddresses.push(senderAddress) */\n      swap1\n      0x01\n      dup3\n      sub\n      swap1\n      0x00\n      mstore\n      keccak256(0x00, 0x20)\n      add\n      0x00\n      swap1\n      swap2\n      swap3\n      swap1\n      swap2\n      swap1\n      swap2\n      0x0100\n      exp\n      dup2\n      sload\n      dup2\n      0xffffffffffffffffffffffffffffffffffffffff\n      mul\n      not\n      and\n      swap1\n      dup4\n      0xffffffffffffffffffffffffffffffffffffffff\n      and\n      mul\n      or\n      swap1\n      sstore\n      pop\n      pop\n        /* \"diceGame.sol\":1493:1502  msg.value */\n      callvalue\n        /* \"diceGame.sol\":1464:1469  games */\n      0x03\n        /* \"diceGame.sol\":1464:1477  games[gameId] */\n      0x00\n        /* \"diceGame.sol\":1470:1476  gameId */\n      sload(0x01)\n        /* \"diceGame.sol\":1464:1477  games[gameId] */\n      dup2\n      mstore\n      0x20\n      add\n      swap1\n      dup2\n      mstore\n      0x20\n      add\n      0x00\n      keccak256\n        /* \"diceGame.sol\":1464:1489  games[gameId].gameBalance */\n      0x06\n      add\n      0x00\n        /* \"diceGame.sol\":1464:1502  games[gameId].gameBalance += msg.value */\n      dup3\n      dup3\n      sload\n      add\n      swap3\n      pop\n      pop\n      dup2\n      swap1\n      sstore\n      pop\n        /* \"diceGame.sol\":896:1509  function setUserBetAndHash(bytes32 hashValue) public payable {... */\n      pop\n      pop\n      jump\t// out\n        /* \"diceGame.sol\":50:72  address public manager */\n    tag_20:\n      0x00\n      dup1\n      swap1\n      sload\n      swap1\n      0x0100\n      exp\n      swap1\n      div\n      0xffffffffffffffffffffffffffffffffffffffff\n      and\n      dup2\n      jump\t// out\n        /* \"diceGame.sol\":102:125  bool public gameStarted */\n    tag_23:\n      0x02\n      0x00\n      swap1\n      sload\n      swap1\n      0x0100\n      exp\n      swap1\n      div\n      0xff\n      and\n      dup2\n      jump\t// out\n        /* \"diceGame.sol\":2110:2551  function receiveMoney(uint8 userValue, uint _gameId) public payable returns (bool) {... */\n    tag_26:\n        /* \"diceGame.sol\":2187:2191  bool */\n      0x00\n        /* \"diceGame.sol\":2207:2241  checkUserValue(userValue, _gameId) */\n      tag_45\n        /* \"diceGame.sol\":2222:2231  userValue */\n      dup4\n        /* \"diceGame.sol\":2233:2240  _gameId */\n      dup4\n        /* \"diceGame.sol\":2207:2221  checkUserValue */\n      tag_46\n        /* \"diceGame.sol\":2207:2241  checkUserValue(userValue, _gameId) */\n      jump\t// in\n    tag_45:\n        /* \"diceGame.sol\":2203:2545  if (checkUserValue(userValue, _gameId)) {... */\n      iszero\n      tag_47\n      jumpi\n        /* \"diceGame.sol\":2257:2267  uint money */\n      0x00\n        /* \"diceGame.sol\":2345:2350  games */\n      0x03\n        /* \"diceGame.sol\":2345:2359  games[_gameId] */\n      0x00\n        /* \"diceGame.sol\":2351:2358  _gameId */\n      dup5\n        /* \"diceGame.sol\":2345:2359  games[_gameId] */\n      dup2\n      mstore\n      0x20\n      add\n      swap1\n      dup2\n      mstore\n      0x20\n      add\n      0x00\n      keccak256\n        /* \"diceGame.sol\":2345:2377  games[_gameId].allWinnersBalance */\n      0x04\n      add\n      sload\n        /* \"diceGame.sol\":2316:2321  games */\n      0x03\n        /* \"diceGame.sol\":2316:2330  games[_gameId] */\n      0x00\n        /* \"diceGame.sol\":2322:2329  _gameId */\n      dup6\n        /* \"diceGame.sol\":2316:2330  games[_gameId] */\n      dup2\n      mstore\n      0x20\n      add\n      swap1\n      dup2\n      mstore\n      0x20\n      add\n      0x00\n      keccak256\n        /* \"diceGame.sol\":2316:2342  games[_gameId].gameBalance */\n      0x06\n      add\n      sload\n        /* \"diceGame.sol\":2270:2275  games */\n      0x03\n        /* \"diceGame.sol\":2270:2284  games[_gameId] */\n      0x00\n        /* \"diceGame.sol\":2276:2283  _gameId */\n      dup7\n        /* \"diceGame.sol\":2270:2284  games[_gameId] */\n      dup2\n      mstore\n      0x20\n      add\n      swap1\n      dup2\n      mstore\n      0x20\n      add\n      0x00\n      keccak256\n        /* \"diceGame.sol\":2270:2292  games[_gameId].players */\n      0x00\n      add\n        /* \"diceGame.sol\":2270:2304  games[_gameId].players[msg.sender] */\n      0x00\n        /* \"diceGame.sol\":2293:2303  msg.sender */\n      caller\n        /* \"diceGame.sol\":2270:2304  games[_gameId].players[msg.sender] */\n      0xffffffffffffffffffffffffffffffffffffffff\n      and\n      0xffffffffffffffffffffffffffffffffffffffff\n      and\n      dup2\n      mstore\n      0x20\n      add\n      swap1\n      dup2\n      mstore\n      0x20\n      add\n      0x00\n      keccak256\n        /* \"diceGame.sol\":2270:2313  games[_gameId].players[msg.sender].betValue */\n      0x01\n      add\n      sload\n        /* \"diceGame.sol\":2270:2342  games[_gameId].players[msg.sender].betValue * games[_gameId].gameBalance */\n      mul\n        /* \"diceGame.sol\":2270:2377  games[_gameId].players[msg.sender].betValue * games[_gameId].gameBalance / games[_gameId].allWinnersBalance */\n      dup2\n      tag_48\n      jumpi\n      invalid\n    tag_48:\n      div\n        /* \"diceGame.sol\":2257:2377  uint money = games[_gameId].players[msg.sender].betValue * games[_gameId].gameBalance / games[_gameId].allWinnersBalance */\n      swap1\n      pop\n        /* \"diceGame.sol\":2391:2401  msg.sender */\n      caller\n        /* \"diceGame.sol\":2391:2410  msg.sender.transfer */\n      0xffffffffffffffffffffffffffffffffffffffff\n      and\n        /* \"diceGame.sol\":2391:2417  msg.sender.transfer(money) */\n      0x08fc\n        /* \"diceGame.sol\":2411:2416  money */\n      dup3\n        /* \"diceGame.sol\":2391:2417  msg.sender.transfer(money) */\n      swap1\n      dup2\n      iszero\n      mul\n      swap1\n      mload(0x40)\n      0x00\n      mload(0x40)\n      dup1\n      dup4\n      sub\n      dup2\n      dup6\n      dup9\n      dup9\n      call\n      swap4\n      pop\n      pop\n      pop\n      pop\n      iszero\n        /* \"--CODEGEN--\":8:17   */\n      dup1\n        /* \"--CODEGEN--\":5:7   */\n      iszero\n      tag_49\n      jumpi\n        /* \"--CODEGEN--\":45:61   */\n      returndatasize\n        /* \"--CODEGEN--\":42:43   */\n      0x00\n        /* \"--CODEGEN--\":39:40   */\n      dup1\n        /* \"--CODEGEN--\":24:62   */\n      returndatacopy\n        /* \"--CODEGEN--\":77:93   */\n      returndatasize\n        /* \"--CODEGEN--\":74:75   */\n      0x00\n        /* \"--CODEGEN--\":67:94   */\n      revert\n        /* \"--CODEGEN--\":5:7   */\n    tag_49:\n        /* \"diceGame.sol\":2391:2417  msg.sender.transfer(money) */\n      pop\n        /* \"diceGame.sol\":2461:2466  money */\n      dup1\n        /* \"diceGame.sol\":2431:2436  games */\n      0x03\n        /* \"diceGame.sol\":2431:2445  games[_gameId] */\n      0x00\n        /* \"diceGame.sol\":2437:2444  _gameId */\n      dup6\n        /* \"diceGame.sol\":2431:2445  games[_gameId] */\n      dup2\n      mstore\n      0x20\n      add\n      swap1\n      dup2\n      mstore\n      0x20\n      add\n      0x00\n      keccak256\n        /* \"diceGame.sol\":2431:2457  games[_gameId].restBalance */\n      0x05\n      add\n      0x00\n        /* \"diceGame.sol\":2431:2466  games[_gameId].restBalance -= money */\n      dup3\n      dup3\n      sload\n      sub\n      swap3\n      pop\n      pop\n      dup2\n      swap1\n      sstore\n      pop\n        /* \"diceGame.sol\":2487:2491  true */\n      0x01\n        /* \"diceGame.sol\":2480:2491  return true */\n      swap2\n      pop\n      pop\n      jump(tag_44)\n        /* \"diceGame.sol\":2203:2545  if (checkUserValue(userValue, _gameId)) {... */\n    tag_47:\n        /* \"diceGame.sol\":2529:2534  false */\n      0x00\n        /* \"diceGame.sol\":2522:2534  return false */\n      swap1\n      pop\n        /* \"diceGame.sol\":2110:2551  function receiveMoney(uint8 userValue, uint _gameId) public payable returns (bool) {... */\n    tag_44:\n      swap3\n      swap2\n      pop\n      pop\n      jump\t// out\n        /* \"diceGame.sol\":78:96  uint public gameId */\n    tag_29:\n      sload(0x01)\n      dup2\n      jump\t// out\n        /* \"diceGame.sol\":3328:3593  function startGame(uint8 dice, uint _minimumBet) public isManager returns (bool) {... */\n    tag_33:\n        /* \"diceGame.sol\":3403:3407  bool */\n      0x00\n        /* \"diceGame.sol\":733:740  manager */\n      dup1\n      0x00\n      swap1\n      sload\n      swap1\n      0x0100\n      exp\n      swap1\n      div\n      0xffffffffffffffffffffffffffffffffffffffff\n      and\n        /* \"diceGame.sol\":719:740  msg.sender == manager */\n      0xffffffffffffffffffffffffffffffffffffffff\n      and\n        /* \"diceGame.sol\":719:729  msg.sender */\n      caller\n        /* \"diceGame.sol\":719:740  msg.sender == manager */\n      0xffffffffffffffffffffffffffffffffffffffff\n      and\n      eq\n        /* \"diceGame.sol\":711:780  require(msg.sender == manager, \"Only manager can call this function\") */\n      tag_52\n      jumpi\n      mload(0x40)\n      0x08c379a000000000000000000000000000000000000000000000000000000000\n      dup2\n      mstore\n      0x04\n      add\n      dup1\n      dup1\n      0x20\n      add\n      dup3\n      dup2\n      sub\n      dup3\n      mstore\n      0x23\n      dup2\n      mstore\n      0x20\n      add\n      dup1\n      data_4a8d8e59ed510e06a8e0260cfe413b20861d9f571b155941f3970d9306e4b948\n      0x23\n      swap2\n      codecopy\n      0x40\n      add\n      swap2\n      pop\n      pop\n      mload(0x40)\n      dup1\n      swap2\n      sub\n      swap1\n      revert\n    tag_52:\n        /* \"diceGame.sol\":3428:3439  gameStarted */\n      0x02\n      0x00\n      swap1\n      sload\n      swap1\n      0x0100\n      exp\n      swap1\n      div\n      0xff\n      and\n        /* \"diceGame.sol\":3427:3439  !gameStarted */\n      iszero\n        /* \"diceGame.sol\":3419:3464  require(!gameStarted, \"It is not start Game\") */\n      tag_54\n      jumpi\n      mload(0x40)\n      0x08c379a000000000000000000000000000000000000000000000000000000000\n      dup2\n      mstore\n      0x04\n      add\n      dup1\n      dup1\n      0x20\n      add\n      dup3\n      dup2\n      sub\n      dup3\n      mstore\n      0x14\n      dup2\n      mstore\n      0x20\n      add\n      dup1\n      0x4974206973206e6f742073746172742047616d65000000000000000000000000\n      dup2\n      mstore\n      pop\n      0x20\n      add\n      swap2\n      pop\n      pop\n      mload(0x40)\n      dup1\n      swap2\n      sub\n      swap1\n      revert\n    tag_54:\n        /* \"diceGame.sol\":3488:3492  true */\n      0x01\n        /* \"diceGame.sol\":3474:3485  gameStarted */\n      0x02\n      0x00\n        /* \"diceGame.sol\":3474:3492  gameStarted = true */\n      0x0100\n      exp\n      dup2\n      sload\n      dup2\n      0xff\n      mul\n      not\n      and\n      swap1\n      dup4\n      iszero\n      iszero\n      mul\n      or\n      swap1\n      sstore\n      pop\n        /* \"diceGame.sol\":3524:3535  _minimumBet */\n      dup2\n        /* \"diceGame.sol\":3502:3507  games */\n      0x03\n        /* \"diceGame.sol\":3502:3510  games[0] */\n      0x00\n        /* \"diceGame.sol\":3508:3509  0 */\n      dup1\n        /* \"diceGame.sol\":3502:3510  games[0] */\n      dup2\n      mstore\n      0x20\n      add\n      swap1\n      dup2\n      mstore\n      0x20\n      add\n      0x00\n      keccak256\n        /* \"diceGame.sol\":3502:3521  games[0].minimumBet */\n      0x07\n      add\n        /* \"diceGame.sol\":3502:3535  games[0].minimumBet = _minimumBet */\n      dup2\n      swap1\n      sstore\n      pop\n        /* \"diceGame.sol\":3545:3565  setServerValue(dice) */\n      tag_55\n        /* \"diceGame.sol\":3560:3564  dice */\n      dup4\n        /* \"diceGame.sol\":3545:3559  setServerValue */\n      tag_56\n        /* \"diceGame.sol\":3545:3565  setServerValue(dice) */\n      jump\t// in\n    tag_55:\n        /* \"diceGame.sol\":3582:3586  true */\n      0x01\n        /* \"diceGame.sol\":3575:3586  return true */\n      swap1\n      pop\n        /* \"diceGame.sol\":3328:3593  function startGame(uint8 dice, uint _minimumBet) public isManager returns (bool) {... */\n      swap3\n      swap2\n      pop\n      pop\n      jump\t// out\n        /* \"diceGame.sol\":3603:3881  function newGame(uint8 dice, uint _minimumBet) public isManager returns (bool) {... */\n    tag_37:\n        /* \"diceGame.sol\":3676:3680  bool */\n      0x00\n        /* \"diceGame.sol\":733:740  manager */\n      dup1\n      0x00\n      swap1\n      sload\n      swap1\n      0x0100\n      exp\n      swap1\n      div\n      0xffffffffffffffffffffffffffffffffffffffff\n      and\n        /* \"diceGame.sol\":719:740  msg.sender == manager */\n      0xffffffffffffffffffffffffffffffffffffffff\n      and\n        /* \"diceGame.sol\":719:729  msg.sender */\n      caller\n        /* \"diceGame.sol\":719:740  msg.sender == manager */\n      0xffffffffffffffffffffffffffffffffffffffff\n      and\n      eq\n        /* \"diceGame.sol\":711:780  require(msg.sender == manager, \"Only manager can call this function\") */\n      tag_58\n      jumpi\n      mload(0x40)\n      0x08c379a000000000000000000000000000000000000000000000000000000000\n      dup2\n      mstore\n      0x04\n      add\n      dup1\n      dup1\n      0x20\n      add\n      dup3\n      dup2\n      sub\n      dup3\n      mstore\n      0x23\n      dup2\n      mstore\n      0x20\n      add\n      dup1\n      data_4a8d8e59ed510e06a8e0260cfe413b20861d9f571b155941f3970d9306e4b948\n      0x23\n      swap2\n      codecopy\n      0x40\n      add\n      swap2\n      pop\n      pop\n      mload(0x40)\n      dup1\n      swap2\n      sub\n      swap1\n      revert\n    tag_58:\n        /* \"diceGame.sol\":3700:3711  gameStarted */\n      0x02\n      0x00\n      swap1\n      sload\n      swap1\n      0x0100\n      exp\n      swap1\n      div\n      0xff\n      and\n        /* \"diceGame.sol\":3692:3738  require(gameStarted, \"The game did not start\") */\n      tag_60\n      jumpi\n      mload(0x40)\n      0x08c379a000000000000000000000000000000000000000000000000000000000\n      dup2\n      mstore\n      0x04\n      add\n      dup1\n      dup1\n      0x20\n      add\n      dup3\n      dup2\n      sub\n      dup3\n      mstore\n      0x16\n      dup2\n      mstore\n      0x20\n      add\n      dup1\n      0x5468652067616d6520646964206e6f7420737461727400000000000000000000\n      dup2\n      mstore\n      pop\n      0x20\n      add\n      swap2\n      pop\n      pop\n      mload(0x40)\n      dup1\n      swap2\n      sub\n      swap1\n      revert\n    tag_60:\n        /* \"diceGame.sol\":3748:3757  setGame() */\n      tag_61\n        /* \"diceGame.sol\":3748:3755  setGame */\n      tag_62\n        /* \"diceGame.sol\":3748:3757  setGame() */\n      jump\t// in\n    tag_61:\n        /* \"diceGame.sol\":3767:3773  gameId */\n      0x01\n      0x00\n        /* \"diceGame.sol\":3767:3775  gameId++ */\n      dup2\n      sload\n      dup1\n      swap3\n      swap2\n      swap1\n      0x01\n      add\n      swap2\n      swap1\n      pop\n      sstore\n      pop\n        /* \"diceGame.sol\":3812:3823  _minimumBet */\n      dup2\n        /* \"diceGame.sol\":3785:3790  games */\n      0x03\n        /* \"diceGame.sol\":3785:3798  games[gameId] */\n      0x00\n        /* \"diceGame.sol\":3791:3797  gameId */\n      sload(0x01)\n        /* \"diceGame.sol\":3785:3798  games[gameId] */\n      dup2\n      mstore\n      0x20\n      add\n      swap1\n      dup2\n      mstore\n      0x20\n      add\n      0x00\n      keccak256\n        /* \"diceGame.sol\":3785:3809  games[gameId].minimumBet */\n      0x07\n      add\n        /* \"diceGame.sol\":3785:3823  games[gameId].minimumBet = _minimumBet */\n      dup2\n      swap1\n      sstore\n      pop\n        /* \"diceGame.sol\":3833:3853  setServerValue(dice) */\n      tag_63\n        /* \"diceGame.sol\":3848:3852  dice */\n      dup4\n        /* \"diceGame.sol\":3833:3847  setServerValue */\n      tag_56\n        /* \"diceGame.sol\":3833:3853  setServerValue(dice) */\n      jump\t// in\n    tag_63:\n        /* \"diceGame.sol\":3870:3874  true */\n      0x01\n        /* \"diceGame.sol\":3863:3874  return true */\n      swap1\n      pop\n        /* \"diceGame.sol\":3603:3881  function newGame(uint8 dice, uint _minimumBet) public isManager returns (bool) {... */\n      swap3\n      swap2\n      pop\n      pop\n      jump\t// out\n        /* \"diceGame.sol\":1519:2100  function checkUserValue(uint8 userValue, uint _gameId) private view between1and12(userValue) returns (bool) {... */\n    tag_46:\n        /* \"diceGame.sol\":1621:1625  bool */\n      0x00\n        /* \"diceGame.sol\":1601:1610  userValue */\n      dup3\n        /* \"diceGame.sol\":539:670  modifier between1and12(uint value) {... */\n      0xff\n      and\n        /* \"diceGame.sol\":601:602  1 */\n      0x01\n        /* \"diceGame.sol\":592:597  value */\n      dup2\n        /* \"diceGame.sol\":592:602  value >= 1 */\n      lt\n      iszero\n        /* \"diceGame.sol\":592:617  value >= 1 && value <= 12 */\n      dup1\n      iszero\n      tag_65\n      jumpi\n      pop\n        /* \"diceGame.sol\":615:617  12 */\n      0x0c\n        /* \"diceGame.sol\":606:611  value */\n      dup2\n        /* \"diceGame.sol\":606:617  value <= 12 */\n      gt\n      iszero\n        /* \"diceGame.sol\":592:617  value >= 1 && value <= 12 */\n    tag_65:\n        /* \"diceGame.sol\":584:652  require(value >= 1 && value <= 12, \"The number is not from 1 to 12\") */\n      tag_66\n      jumpi\n      mload(0x40)\n      0x08c379a000000000000000000000000000000000000000000000000000000000\n      dup2\n      mstore\n      0x04\n      add\n      dup1\n      dup1\n      0x20\n      add\n      dup3\n      dup2\n      sub\n      dup3\n      mstore\n      0x1e\n      dup2\n      mstore\n      0x20\n      add\n      dup1\n      0x546865206e756d626572206973206e6f742066726f6d203120746f2031320000\n      dup2\n      mstore\n      pop\n      0x20\n      add\n      swap2\n      pop\n      pop\n      mload(0x40)\n      dup1\n      swap2\n      sub\n      swap1\n      revert\n    tag_66:\n        /* \"diceGame.sol\":1646:1651  games */\n      0x03\n        /* \"diceGame.sol\":1646:1660  games[_gameId] */\n      0x00\n        /* \"diceGame.sol\":1652:1659  _gameId */\n      dup5\n        /* \"diceGame.sol\":1646:1660  games[_gameId] */\n      dup2\n      mstore\n      0x20\n      add\n      swap1\n      dup2\n      mstore\n      0x20\n      add\n      0x00\n      keccak256\n        /* \"diceGame.sol\":1646:1668  games[_gameId].players */\n      0x00\n      add\n        /* \"diceGame.sol\":1646:1680  games[_gameId].players[msg.sender] */\n      0x00\n        /* \"diceGame.sol\":1669:1679  msg.sender */\n      caller\n        /* \"diceGame.sol\":1646:1680  games[_gameId].players[msg.sender] */\n      0xffffffffffffffffffffffffffffffffffffffff\n      and\n      0xffffffffffffffffffffffffffffffffffffffff\n      and\n      dup2\n      mstore\n      0x20\n      add\n      swap1\n      dup2\n      mstore\n      0x20\n      add\n      0x00\n      keccak256\n        /* \"diceGame.sol\":1646:1689  games[_gameId].players[msg.sender].received */\n      0x02\n      add\n      0x00\n      swap1\n      sload\n      swap1\n      0x0100\n      exp\n      swap1\n      div\n      0xff\n      and\n        /* \"diceGame.sol\":1645:1689  !games[_gameId].players[msg.sender].received */\n      iszero\n        /* \"diceGame.sol\":1637:1724  require(!games[_gameId].players[msg.sender].received, \"Player already receive a money\") */\n      tag_68\n      jumpi\n      mload(0x40)\n      0x08c379a000000000000000000000000000000000000000000000000000000000\n      dup2\n      mstore\n      0x04\n      add\n      dup1\n      dup1\n      0x20\n      add\n      dup3\n      dup2\n      sub\n      dup3\n      mstore\n      0x1e\n      dup2\n      mstore\n      0x20\n      add\n      dup1\n      0x506c6179657220616c726561647920726563656976652061206d6f6e65790000\n      dup2\n      mstore\n      pop\n      0x20\n      add\n      swap2\n      pop\n      pop\n      mload(0x40)\n      dup1\n      swap2\n      sub\n      swap1\n      revert\n    tag_68:\n        /* \"diceGame.sol\":1753:1754  0 */\n      0x00\n        /* \"diceGame.sol\":1742:1749  _gameId */\n      dup4\n        /* \"diceGame.sol\":1742:1754  _gameId >= 0 */\n      lt\n      iszero\n        /* \"diceGame.sol\":1742:1774  _gameId >= 0 && _gameId < gameId */\n      dup1\n      iszero\n      tag_69\n      jumpi\n      pop\n        /* \"diceGame.sol\":1768:1774  gameId */\n      sload(0x01)\n        /* \"diceGame.sol\":1758:1765  _gameId */\n      dup4\n        /* \"diceGame.sol\":1758:1774  _gameId < gameId */\n      lt\n        /* \"diceGame.sol\":1742:1774  _gameId >= 0 && _gameId < gameId */\n    tag_69:\n        /* \"diceGame.sol\":1734:1796  require(_gameId >= 0 && _gameId < gameId, \"Game is not ended\") */\n      tag_70\n      jumpi\n      mload(0x40)\n      0x08c379a000000000000000000000000000000000000000000000000000000000\n      dup2\n      mstore\n      0x04\n      add\n      dup1\n      dup1\n      0x20\n      add\n      dup3\n      dup2\n      sub\n      dup3\n      mstore\n      0x11\n      dup2\n      mstore\n      0x20\n      add\n      dup1\n      0x47616d65206973206e6f7420656e646564000000000000000000000000000000\n      dup2\n      mstore\n      pop\n      0x20\n      add\n      swap2\n      pop\n      pop\n      mload(0x40)\n      dup1\n      swap2\n      sub\n      swap1\n      revert\n    tag_70:\n        /* \"diceGame.sol\":1827:1832  games */\n      0x03\n        /* \"diceGame.sol\":1827:1841  games[_gameId] */\n      0x00\n        /* \"diceGame.sol\":1833:1840  _gameId */\n      dup5\n        /* \"diceGame.sol\":1827:1841  games[_gameId] */\n      dup2\n      mstore\n      0x20\n      add\n      swap1\n      dup2\n      mstore\n      0x20\n      add\n      0x00\n      keccak256\n        /* \"diceGame.sol\":1827:1854  games[_gameId].winningValue */\n      0x02\n      add\n      0x00\n      swap1\n      sload\n      swap1\n      0x0100\n      exp\n      swap1\n      div\n      0xff\n      and\n        /* \"diceGame.sol\":1814:1854  userValue == games[_gameId].winningValue */\n      0xff\n      and\n        /* \"diceGame.sol\":1814:1823  userValue */\n      dup5\n        /* \"diceGame.sol\":1814:1854  userValue == games[_gameId].winningValue */\n      0xff\n      and\n      eq\n        /* \"diceGame.sol\":1806:1898  require(userValue == games[_gameId].winningValue, \"User input does not match winning value\") */\n      tag_71\n      jumpi\n      mload(0x40)\n      0x08c379a000000000000000000000000000000000000000000000000000000000\n      dup2\n      mstore\n      0x04\n      add\n      dup1\n      dup1\n      0x20\n      add\n      dup3\n      dup2\n      sub\n      dup3\n      mstore\n      0x27\n      dup2\n      mstore\n      0x20\n      add\n      dup1\n      data_bd091db77c2ecbf6850219e20fb7a75680b72aef5099b1fcc3fa84949d7e6ee7\n      0x27\n      swap2\n      codecopy\n      0x40\n      add\n      swap2\n      pop\n      pop\n      mload(0x40)\n      dup1\n      swap2\n      sub\n      swap1\n      revert\n    tag_71:\n        /* \"diceGame.sol\":1908:1924  bytes32 userHash */\n      0x00\n        /* \"diceGame.sol\":1948:1957  userValue */\n      dup5\n        /* \"diceGame.sol\":1937:1958  abi.encode(userValue) */\n      add(0x20, mload(0x40))\n      dup1\n      dup3\n      0xff\n      and\n      0xff\n      and\n      dup2\n      mstore\n      0x20\n      add\n      swap2\n      pop\n      pop\n      mload(0x40)\n        /* \"--CODEGEN--\":49:53   */\n      0x20\n        /* \"--CODEGEN--\":39:46   */\n      dup2\n        /* \"--CODEGEN--\":30:37   */\n      dup4\n        /* \"--CODEGEN--\":26:47   */\n      sub\n        /* \"--CODEGEN--\":22:54   */\n      sub\n        /* \"--CODEGEN--\":13:20   */\n      dup2\n        /* \"--CODEGEN--\":6:55   */\n      mstore\n        /* \"diceGame.sol\":1937:1958  abi.encode(userValue) */\n      swap1\n      0x40\n      mstore\n        /* \"diceGame.sol\":1927:1959  keccak256(abi.encode(userValue)) */\n      dup1\n      mload\n      swap1\n      0x20\n      add\n      keccak256\n        /* \"diceGame.sol\":1908:1959  bytes32 userHash = keccak256(abi.encode(userValue)) */\n      swap1\n      pop\n        /* \"diceGame.sol\":1989:1994  games */\n      0x03\n        /* \"diceGame.sol\":1989:2003  games[_gameId] */\n      0x00\n        /* \"diceGame.sol\":1995:2002  _gameId */\n      dup6\n        /* \"diceGame.sol\":1989:2003  games[_gameId] */\n      dup2\n      mstore\n      0x20\n      add\n      swap1\n      dup2\n      mstore\n      0x20\n      add\n      0x00\n      keccak256\n        /* \"diceGame.sol\":1989:2011  games[_gameId].players */\n      0x00\n      add\n        /* \"diceGame.sol\":1989:2023  games[_gameId].players[msg.sender] */\n      0x00\n        /* \"diceGame.sol\":2012:2022  msg.sender */\n      caller\n        /* \"diceGame.sol\":1989:2023  games[_gameId].players[msg.sender] */\n      0xffffffffffffffffffffffffffffffffffffffff\n      and\n      0xffffffffffffffffffffffffffffffffffffffff\n      and\n      dup2\n      mstore\n      0x20\n      add\n      swap1\n      dup2\n      mstore\n      0x20\n      add\n      0x00\n      keccak256\n        /* \"diceGame.sol\":1989:2033  games[_gameId].players[msg.sender].hashValue */\n      0x00\n      add\n      sload\n        /* \"diceGame.sol\":1977:1985  userHash */\n      dup2\n        /* \"diceGame.sol\":1977:2033  userHash == games[_gameId].players[msg.sender].hashValue */\n      eq\n        /* \"diceGame.sol\":1969:2072  require(userHash == games[_gameId].players[msg.sender].hashValue, \"User input does not match its hash\") */\n      tag_72\n      jumpi\n      mload(0x40)\n      0x08c379a000000000000000000000000000000000000000000000000000000000\n      dup2\n      mstore\n      0x04\n      add\n      dup1\n      dup1\n      0x20\n      add\n      dup3\n      dup2\n      sub\n      dup3\n      mstore\n      0x22\n      dup2\n      mstore\n      0x20\n      add\n      dup1\n      data_e1d65f7a566c51d9be51927db247995b346b03fc2927af3f18b9c547e16bcc8f\n      0x22\n      swap2\n      codecopy\n      0x40\n      add\n      swap2\n      pop\n      pop\n      mload(0x40)\n      dup1\n      swap2\n      sub\n      swap1\n      revert\n    tag_72:\n        /* \"diceGame.sol\":2089:2093  true */\n      0x01\n        /* \"diceGame.sol\":2082:2093  return true */\n      swap3\n      pop\n      pop\n        /* \"diceGame.sol\":1519:2100  function checkUserValue(uint8 userValue, uint _gameId) private view between1and12(userValue) returns (bool) {... */\n      pop\n      swap3\n      swap2\n      pop\n      pop\n      jump\t// out\n        /* \"diceGame.sol\":2561:2675  function setServerValue(uint8 dice) private between1and12(dice) {... */\n    tag_56:\n        /* \"diceGame.sol\":2619:2623  dice */\n      dup1\n        /* \"diceGame.sol\":539:670  modifier between1and12(uint value) {... */\n      0xff\n      and\n        /* \"diceGame.sol\":601:602  1 */\n      0x01\n        /* \"diceGame.sol\":592:597  value */\n      dup2\n        /* \"diceGame.sol\":592:602  value >= 1 */\n      lt\n      iszero\n        /* \"diceGame.sol\":592:617  value >= 1 && value <= 12 */\n      dup1\n      iszero\n      tag_74\n      jumpi\n      pop\n        /* \"diceGame.sol\":615:617  12 */\n      0x0c\n        /* \"diceGame.sol\":606:611  value */\n      dup2\n        /* \"diceGame.sol\":606:617  value <= 12 */\n      gt\n      iszero\n        /* \"diceGame.sol\":592:617  value >= 1 && value <= 12 */\n    tag_74:\n        /* \"diceGame.sol\":584:652  require(value >= 1 && value <= 12, \"The number is not from 1 to 12\") */\n      tag_75\n      jumpi\n      mload(0x40)\n      0x08c379a000000000000000000000000000000000000000000000000000000000\n      dup2\n      mstore\n      0x04\n      add\n      dup1\n      dup1\n      0x20\n      add\n      dup3\n      dup2\n      sub\n      dup3\n      mstore\n      0x1e\n      dup2\n      mstore\n      0x20\n      add\n      dup1\n      0x546865206e756d626572206973206e6f742066726f6d203120746f2031320000\n      dup2\n      mstore\n      pop\n      0x20\n      add\n      swap2\n      pop\n      pop\n      mload(0x40)\n      dup1\n      swap2\n      sub\n      swap1\n      revert\n    tag_75:\n        /* \"diceGame.sol\":2664:2668  dice */\n      dup2\n        /* \"diceGame.sol\":2635:2640  games */\n      0x03\n        /* \"diceGame.sol\":2635:2648  games[gameId] */\n      0x00\n        /* \"diceGame.sol\":2641:2647  gameId */\n      sload(0x01)\n        /* \"diceGame.sol\":2635:2648  games[gameId] */\n      dup2\n      mstore\n      0x20\n      add\n      swap1\n      dup2\n      mstore\n      0x20\n      add\n      0x00\n      keccak256\n        /* \"diceGame.sol\":2635:2661  games[gameId].winningValue */\n      0x02\n      add\n      0x00\n        /* \"diceGame.sol\":2635:2668  games[gameId].winningValue = dice */\n      0x0100\n      exp\n      dup2\n      sload\n      dup2\n      0xff\n      mul\n      not\n      and\n      swap1\n      dup4\n      0xff\n      and\n      mul\n      or\n      swap1\n      sstore\n      pop\n        /* \"diceGame.sol\":2561:2675  function setServerValue(uint8 dice) private between1and12(dice) {... */\n      pop\n      pop\n      jump\t// out\n        /* \"diceGame.sol\":2685:3318  function setGame() private {... */\n    tag_62:\n        /* \"diceGame.sol\":2722:2758  address[] storage gamePlayerAdresses */\n      0x00\n        /* \"diceGame.sol\":2761:2766  games */\n      0x03\n        /* \"diceGame.sol\":2761:2774  games[gameId] */\n      0x00\n        /* \"diceGame.sol\":2767:2773  gameId */\n      sload(0x01)\n        /* \"diceGame.sol\":2761:2774  games[gameId] */\n      dup2\n      mstore\n      0x20\n      add\n      swap1\n      dup2\n      mstore\n      0x20\n      add\n      0x00\n      keccak256\n        /* \"diceGame.sol\":2761:2790  games[gameId].playerAddresses */\n      0x01\n      add\n        /* \"diceGame.sol\":2722:2790  address[] storage gamePlayerAdresses = games[gameId].playerAddresses */\n      swap1\n      pop\n        /* \"diceGame.sol\":2800:2811  uint length */\n      0x00\n        /* \"diceGame.sol\":2814:2832  gamePlayerAdresses */\n      dup2\n        /* \"diceGame.sol\":2814:2839  gamePlayerAdresses.length */\n      dup1\n      sload\n      swap1\n      pop\n        /* \"diceGame.sol\":2800:2839  uint length = gamePlayerAdresses.length */\n      swap1\n      pop\n        /* \"diceGame.sol\":2863:2869  uint i */\n      0x00\n        /* \"diceGame.sol\":2872:2873  0 */\n      dup1\n        /* \"diceGame.sol\":2863:2873  uint i = 0 */\n      swap1\n      pop\n        /* \"diceGame.sol\":2858:3240  for (uint i = 0; i < length; i++) {... */\n    tag_78:\n        /* \"diceGame.sol\":2879:2885  length */\n      dup2\n        /* \"diceGame.sol\":2875:2876  i */\n      dup2\n        /* \"diceGame.sol\":2875:2885  i < length */\n      lt\n        /* \"diceGame.sol\":2858:3240  for (uint i = 0; i < length; i++) {... */\n      iszero\n      tag_79\n      jumpi\n        /* \"diceGame.sol\":2906:2924  bytes32 playerHash */\n      0x00\n        /* \"diceGame.sol\":2927:2932  games */\n      0x03\n        /* \"diceGame.sol\":2927:2940  games[gameId] */\n      0x00\n        /* \"diceGame.sol\":2933:2939  gameId */\n      sload(0x01)\n        /* \"diceGame.sol\":2927:2940  games[gameId] */\n      dup2\n      mstore\n      0x20\n      add\n      swap1\n      dup2\n      mstore\n      0x20\n      add\n      0x00\n      keccak256\n        /* \"diceGame.sol\":2927:2948  games[gameId].players */\n      0x00\n      add\n        /* \"diceGame.sol\":2927:2971  games[gameId].players[gamePlayerAdresses[i]] */\n      0x00\n        /* \"diceGame.sol\":2949:2967  gamePlayerAdresses */\n      dup6\n        /* \"diceGame.sol\":2968:2969  i */\n      dup5\n        /* \"diceGame.sol\":2949:2970  gamePlayerAdresses[i] */\n      dup2\n      sload\n      dup2\n      lt\n      tag_81\n      jumpi\n      invalid\n    tag_81:\n      swap1\n      0x00\n      mstore\n      keccak256(0x00, 0x20)\n      add\n      0x00\n      swap1\n      sload\n      swap1\n      0x0100\n      exp\n      swap1\n      div\n      0xffffffffffffffffffffffffffffffffffffffff\n      and\n        /* \"diceGame.sol\":2927:2971  games[gameId].players[gamePlayerAdresses[i]] */\n      0xffffffffffffffffffffffffffffffffffffffff\n      and\n      0xffffffffffffffffffffffffffffffffffffffff\n      and\n      dup2\n      mstore\n      0x20\n      add\n      swap1\n      dup2\n      mstore\n      0x20\n      add\n      0x00\n      keccak256\n        /* \"diceGame.sol\":2927:2981  games[gameId].players[gamePlayerAdresses[i]].hashValue */\n      0x00\n      add\n      sload\n        /* \"diceGame.sol\":2906:2981  bytes32 playerHash = games[gameId].players[gamePlayerAdresses[i]].hashValue */\n      swap1\n      pop\n        /* \"diceGame.sol\":3034:3039  games */\n      0x03\n        /* \"diceGame.sol\":3034:3047  games[gameId] */\n      0x00\n        /* \"diceGame.sol\":3040:3046  gameId */\n      sload(0x01)\n        /* \"diceGame.sol\":3034:3047  games[gameId] */\n      dup2\n      mstore\n      0x20\n      add\n      swap1\n      dup2\n      mstore\n      0x20\n      add\n      0x00\n      keccak256\n        /* \"diceGame.sol\":3034:3060  games[gameId].winningValue */\n      0x02\n      add\n      0x00\n      swap1\n      sload\n      swap1\n      0x0100\n      exp\n      swap1\n      div\n      0xff\n      and\n        /* \"diceGame.sol\":3023:3061  abi.encode(games[gameId].winningValue) */\n      add(0x20, mload(0x40))\n      dup1\n      dup3\n      0xff\n      and\n      0xff\n      and\n      dup2\n      mstore\n      0x20\n      add\n      swap2\n      pop\n      pop\n      mload(0x40)\n        /* \"--CODEGEN--\":49:53   */\n      0x20\n        /* \"--CODEGEN--\":39:46   */\n      dup2\n        /* \"--CODEGEN--\":30:37   */\n      dup4\n        /* \"--CODEGEN--\":26:47   */\n      sub\n        /* \"--CODEGEN--\":22:54   */\n      sub\n        /* \"--CODEGEN--\":13:20   */\n      dup2\n        /* \"--CODEGEN--\":6:55   */\n      mstore\n        /* \"diceGame.sol\":3023:3061  abi.encode(games[gameId].winningValue) */\n      swap1\n      0x40\n      mstore\n        /* \"diceGame.sol\":3013:3062  keccak256(abi.encode(games[gameId].winningValue)) */\n      dup1\n      mload\n      swap1\n      0x20\n      add\n      keccak256\n        /* \"diceGame.sol\":2999:3009  playerHash */\n      dup2\n        /* \"diceGame.sol\":2999:3062  playerHash == keccak256(abi.encode(games[gameId].winningValue)) */\n      eq\n        /* \"diceGame.sol\":2995:3230  if (playerHash == keccak256(abi.encode(games[gameId].winningValue))) {... */\n      iszero\n      tag_83\n      jumpi\n        /* \"diceGame.sol\":3082:3087  games */\n      0x03\n        /* \"diceGame.sol\":3082:3095  games[gameId] */\n      0x00\n        /* \"diceGame.sol\":3088:3094  gameId */\n      sload(0x01)\n        /* \"diceGame.sol\":3082:3095  games[gameId] */\n      dup2\n      mstore\n      0x20\n      add\n      swap1\n      dup2\n      mstore\n      0x20\n      add\n      0x00\n      keccak256\n        /* \"diceGame.sol\":3082:3107  games[gameId].winnerCount */\n      0x03\n      add\n      0x00\n        /* \"diceGame.sol\":3082:3109  games[gameId].winnerCount++ */\n      dup2\n      sload\n      dup1\n      swap3\n      swap2\n      swap1\n      0x01\n      add\n      swap2\n      swap1\n      pop\n      sstore\n      pop\n        /* \"diceGame.sol\":3162:3167  games */\n      0x03\n        /* \"diceGame.sol\":3162:3175  games[gameId] */\n      0x00\n        /* \"diceGame.sol\":3168:3174  gameId */\n      sload(0x01)\n        /* \"diceGame.sol\":3162:3175  games[gameId] */\n      dup2\n      mstore\n      0x20\n      add\n      swap1\n      dup2\n      mstore\n      0x20\n      add\n      0x00\n      keccak256\n        /* \"diceGame.sol\":3162:3183  games[gameId].players */\n      0x00\n      add\n        /* \"diceGame.sol\":3162:3206  games[gameId].players[gamePlayerAdresses[i]] */\n      0x00\n        /* \"diceGame.sol\":3184:3202  gamePlayerAdresses */\n      dup6\n        /* \"diceGame.sol\":3203:3204  i */\n      dup5\n        /* \"diceGame.sol\":3184:3205  gamePlayerAdresses[i] */\n      dup2\n      sload\n      dup2\n      lt\n      tag_84\n      jumpi\n      invalid\n    tag_84:\n      swap1\n      0x00\n      mstore\n      keccak256(0x00, 0x20)\n      add\n      0x00\n      swap1\n      sload\n      swap1\n      0x0100\n      exp\n      swap1\n      div\n      0xffffffffffffffffffffffffffffffffffffffff\n      and\n        /* \"diceGame.sol\":3162:3206  games[gameId].players[gamePlayerAdresses[i]] */\n      0xffffffffffffffffffffffffffffffffffffffff\n      and\n      0xffffffffffffffffffffffffffffffffffffffff\n      and\n      dup2\n      mstore\n      0x20\n      add\n      swap1\n      dup2\n      mstore\n      0x20\n      add\n      0x00\n      keccak256\n        /* \"diceGame.sol\":3162:3215  games[gameId].players[gamePlayerAdresses[i]].betValue */\n      0x01\n      add\n      sload\n        /* \"diceGame.sol\":3127:3132  games */\n      0x03\n        /* \"diceGame.sol\":3127:3140  games[gameId] */\n      0x00\n        /* \"diceGame.sol\":3133:3139  gameId */\n      sload(0x01)\n        /* \"diceGame.sol\":3127:3140  games[gameId] */\n      dup2\n      mstore\n      0x20\n      add\n      swap1\n      dup2\n      mstore\n      0x20\n      add\n      0x00\n      keccak256\n        /* \"diceGame.sol\":3127:3158  games[gameId].allWinnersBalance */\n      0x04\n      add\n      0x00\n        /* \"diceGame.sol\":3127:3215  games[gameId].allWinnersBalance += games[gameId].players[gamePlayerAdresses[i]].betValue */\n      dup3\n      dup3\n      sload\n      add\n      swap3\n      pop\n      pop\n      dup2\n      swap1\n      sstore\n      pop\n        /* \"diceGame.sol\":2995:3230  if (playerHash == keccak256(abi.encode(games[gameId].winningValue))) {... */\n    tag_83:\n        /* \"diceGame.sol\":2858:3240  for (uint i = 0; i < length; i++) {... */\n      pop\n        /* \"diceGame.sol\":2887:2890  i++ */\n      dup1\n      dup1\n      0x01\n      add\n      swap2\n      pop\n      pop\n        /* \"diceGame.sol\":2858:3240  for (uint i = 0; i < length; i++) {... */\n      jump(tag_78)\n    tag_79:\n      pop\n        /* \"diceGame.sol\":3286:3291  games */\n      0x03\n        /* \"diceGame.sol\":3286:3299  games[gameId] */\n      0x00\n        /* \"diceGame.sol\":3292:3298  gameId */\n      sload(0x01)\n        /* \"diceGame.sol\":3286:3299  games[gameId] */\n      dup2\n      mstore\n      0x20\n      add\n      swap1\n      dup2\n      mstore\n      0x20\n      add\n      0x00\n      keccak256\n        /* \"diceGame.sol\":3286:3311  games[gameId].gameBalance */\n      0x06\n      add\n      sload\n        /* \"diceGame.sol\":3258:3263  games */\n      0x03\n        /* \"diceGame.sol\":3258:3271  games[gameId] */\n      0x00\n        /* \"diceGame.sol\":3264:3270  gameId */\n      sload(0x01)\n        /* \"diceGame.sol\":3258:3271  games[gameId] */\n      dup2\n      mstore\n      0x20\n      add\n      swap1\n      dup2\n      mstore\n      0x20\n      add\n      0x00\n      keccak256\n        /* \"diceGame.sol\":3258:3283  games[gameId].restBalance */\n      0x05\n      add\n        /* \"diceGame.sol\":3258:3311  games[gameId].restBalance = games[gameId].gameBalance */\n      dup2\n      swap1\n      sstore\n      pop\n        /* \"diceGame.sol\":2685:3318  function setGame() private {... */\n      pop\n      pop\n      jump\t// out\n    stop\n    data_4a8d8e59ed510e06a8e0260cfe413b20861d9f571b155941f3970d9306e4b948 4f6e6c79206d616e616765722063616e2063616c6c20746869732066756e6374696f6e\n    data_bd091db77c2ecbf6850219e20fb7a75680b72aef5099b1fcc3fa84949d7e6ee7 5573657220696e70757420646f6573206e6f74206d617463682077696e6e696e672076616c7565\n    data_e1d65f7a566c51d9be51927db247995b346b03fc2927af3f18b9c547e16bcc8f 5573657220696e70757420646f6573206e6f74206d61746368206974732068617368\n\n    auxdata: 0xa265627a7a7231582048b0abe0baa9eb755154ee0d84e72bef632a9c611b3338dcef9fa39be67fa46d64736f6c634300050b0032\n}\n","bytecode":{"linkReferences":{},"object":"608060405234801561001057600080fd5b50336000806101000a81548173ffffffffffffffffffffffffffffffffffffffff021916908373ffffffffffffffffffffffffffffffffffffffff1602179055506000600181905550611219806100686000396000f3fe60806040526004361061007b5760003560e01c8063886dc4d31161004e578063886dc4d31461019e578063d7c81b55146101f1578063e849c38e1461021c578063f5e71f1a1461027c5761007b565b806309660513146100805780630d0aa44a146100ea578063481c6a75146101185780635e123ce41461016f575b600080fd5b34801561008c57600080fd5b506100b9600480360360208110156100a357600080fd5b81019080803590602001909291905050506102dc565b604051808560ff1660ff16815260200184815260200183815260200182815260200194505050505060405180910390f35b6101166004803603602081101561010057600080fd5b810190808035906020019092919050505061035a565b005b34801561012457600080fd5b5061012d6106df565b604051808273ffffffffffffffffffffffffffffffffffffffff1673ffffffffffffffffffffffffffffffffffffffff16815260200191505060405180910390f35b34801561017b57600080fd5b50610184610704565b604051808215151515815260200191505060405180910390f35b6101d7600480360360408110156101b457600080fd5b81019080803560ff16906020019092919080359060200190929190505050610717565b604051808215151515815260200191505060405180910390f35b3480156101fd57600080fd5b5061020661083a565b6040518082815260200191505060405180910390f35b34801561022857600080fd5b506102626004803603604081101561023f57600080fd5b81019080803560ff16906020019092919080359060200190929190505050610840565b604051808215151515815260200191505060405180910390f35b34801561028857600080fd5b506102c26004803603604081101561029f57600080fd5b81019080803560ff169060200190929190803590602001909291905050506109b3565b604051808215151515815260200191505060405180910390f35b6000806000806003600086815260200190815260200160002060020160009054906101000a900460ff1660036000878152602001908152602001600020600501546003600088815260200190815260200160002060060154600360008981526020019081526020016000206007015493509350935093509193509193565b60003390506000809054906101000a900473ffffffffffffffffffffffffffffffffffffffff1673ffffffffffffffffffffffffffffffffffffffff168173ffffffffffffffffffffffffffffffffffffffff161415610422576040517f08c379a000000000000000000000000000000000000000000000000000000000815260040180806020018281038252601a8152602001807f4d616e616765722063616e6e6f742062657420612076616c756500000000000081525060200191505060405180910390fd5b6000801b60036000600154815260200190815260200160002060000160008373ffffffffffffffffffffffffffffffffffffffff1673ffffffffffffffffffffffffffffffffffffffff16815260200190815260200160002060000154146104f2576040517f08c379a00000000000000000000000000000000000000000000000000000000081526004018080602001828103825260198152602001807f506c6179657220616c726561647920626574206e756d6265720000000000000081525060200191505060405180910390fd5b60036000600154815260200190815260200160002060070154341161057f576040517f08c379a000000000000000000000000000000000000000000000000000000000815260040180806020018281038252601c8152602001807f596f7520426574206c657373207468656e206d696e696d756d4265740000000081525060200191505060405180910390fd5b8160036000600154815260200190815260200160002060000160008373ffffffffffffffffffffffffffffffffffffffff1673ffffffffffffffffffffffffffffffffffffffff168152602001908152602001600020600001819055503460036000600154815260200190815260200160002060000160008373ffffffffffffffffffffffffffffffffffffffff1673ffffffffffffffffffffffffffffffffffffffff168152602001908152602001600020600101819055506003600060015481526020019081526020016000206001018190806001815401808255809150509060018203906000526020600020016000909192909190916101000a81548173ffffffffffffffffffffffffffffffffffffffff021916908373ffffffffffffffffffffffffffffffffffffffff1602179055505034600360006001548152602001908152602001600020600601600082825401925050819055505050565b6000809054906101000a900473ffffffffffffffffffffffffffffffffffffffff1681565b600260009054906101000a900460ff1681565b60006107238383610b26565b1561082f576000600360008481526020019081526020016000206004015460036000858152602001908152602001600020600601546003600086815260200190815260200160002060000160003373ffffffffffffffffffffffffffffffffffffffff1673ffffffffffffffffffffffffffffffffffffffff1681526020019081526020016000206001015402816107b757fe5b0490503373ffffffffffffffffffffffffffffffffffffffff166108fc829081150290604051600060405180830381858888f19350505050158015610800573d6000803e3d6000fd5b508060036000858152602001908152602001600020600501600082825403925050819055506001915050610834565b600090505b92915050565b60015481565b60008060009054906101000a900473ffffffffffffffffffffffffffffffffffffffff1673ffffffffffffffffffffffffffffffffffffffff163373ffffffffffffffffffffffffffffffffffffffff16146108e7576040517f08c379a00000000000000000000000000000000000000000000000000000000081526004018080602001828103825260238152602001806111796023913960400191505060405180910390fd5b600260009054906101000a900460ff161561096a576040517f08c379a00000000000000000000000000000000000000000000000000000000081526004018080602001828103825260148152602001807f4974206973206e6f742073746172742047616d6500000000000000000000000081525060200191505060405180910390fd5b6001600260006101000a81548160ff0219169083151502179055508160036000808152602001908152602001600020600701819055506109a983610e77565b6001905092915050565b60008060009054906101000a900473ffffffffffffffffffffffffffffffffffffffff1673ffffffffffffffffffffffffffffffffffffffff163373ffffffffffffffffffffffffffffffffffffffff1614610a5a576040517f08c379a00000000000000000000000000000000000000000000000000000000081526004018080602001828103825260238152602001806111796023913960400191505060405180910390fd5b600260009054906101000a900460ff16610adc576040517f08c379a00000000000000000000000000000000000000000000000000000000081526004018080602001828103825260168152602001807f5468652067616d6520646964206e6f742073746172740000000000000000000081525060200191505060405180910390fd5b610ae4610f34565b6001600081548092919060010191905055508160036000600154815260200190815260200160002060070181905550610b1c83610e77565b6001905092915050565b60008260ff1660018110158015610b3e5750600c8111155b610bb0576040517f08c379a000000000000000000000000000000000000000000000000000000000815260040180806020018281038252601e8152602001807f546865206e756d626572206973206e6f742066726f6d203120746f203132000081525060200191505060405180910390fd5b6003600084815260200190815260200160002060000160003373ffffffffffffffffffffffffffffffffffffffff1673ffffffffffffffffffffffffffffffffffffffff16815260200190815260200160002060020160009054906101000a900460ff1615610c87576040517f08c379a000000000000000000000000000000000000000000000000000000000815260040180806020018281038252601e8152602001807f506c6179657220616c726561647920726563656976652061206d6f6e6579000081525060200191505060405180910390fd5b60008310158015610c99575060015483105b610d0b576040517f08c379a00000000000000000000000000000000000000000000000000000000081526004018080602001828103825260118152602001807f47616d65206973206e6f7420656e64656400000000000000000000000000000081525060200191505060405180910390fd5b6003600084815260200190815260200160002060020160009054906101000a900460ff1660ff168460ff1614610d8c576040517f08c379a000000000000000000000000000000000000000000000000000000000815260040180806020018281038252602781526020018061119c6027913960400191505060405180910390fd5b600084604051602001808260ff1660ff1681526020019150506040516020818303038152906040528051906020012090506003600085815260200190815260200160002060000160003373ffffffffffffffffffffffffffffffffffffffff1673ffffffffffffffffffffffffffffffffffffffff168152602001908152602001600020600001548114610e6b576040517f08c379a00000000000000000000000000000000000000000000000000000000081526004018080602001828103825260228152602001806111c36022913960400191505060405180910390fd5b60019250505092915050565b8060ff1660018110158015610e8d5750600c8111155b610eff576040517f08c379a000000000000000000000000000000000000000000000000000000000815260040180806020018281038252601e8152602001807f546865206e756d626572206973206e6f742066726f6d203120746f203132000081525060200191505060405180910390fd5b8160036000600154815260200190815260200160002060020160006101000a81548160ff021916908360ff1602179055505050565b6000600360006001548152602001908152602001600020600101905060008180549050905060008090505b8181101561113e5760006003600060015481526020019081526020016000206000016000858481548110610f8f57fe5b9060005260206000200160009054906101000a900473ffffffffffffffffffffffffffffffffffffffff1673ffffffffffffffffffffffffffffffffffffffff1673ffffffffffffffffffffffffffffffffffffffff16815260200190815260200160002060000154905060036000600154815260200190815260200160002060020160009054906101000a900460ff16604051602001808260ff1660ff16815260200191505060405160208183030381529060405280519060200120811415611130576003600060015481526020019081526020016000206003016000815480929190600101919050555060036000600154815260200190815260200160002060000160008584815481106110a157fe5b9060005260206000200160009054906101000a900473ffffffffffffffffffffffffffffffffffffffff1673ffffffffffffffffffffffffffffffffffffffff1673ffffffffffffffffffffffffffffffffffffffff16815260200190815260200160002060010154600360006001548152602001908152602001600020600401600082825401925050819055505b508080600101915050610f5f565b506003600060015481526020019081526020016000206006015460036000600154815260200190815260200160002060050181905550505056fe4f6e6c79206d616e616765722063616e2063616c6c20746869732066756e6374696f6e5573657220696e70757420646f6573206e6f74206d617463682077696e6e696e672076616c75655573657220696e70757420646f6573206e6f74206d61746368206974732068617368a265627a7a7231582048b0abe0baa9eb755154ee0d84e72bef632a9c611b3338dcef9fa39be67fa46d64736f6c634300050b0032","opcodes":"PUSH1 0x80 PUSH1 0x40 MSTORE CALLVALUE DUP1 ISZERO PUSH2 0x10 JUMPI PUSH1 0x0 DUP1 REVERT JUMPDEST POP CALLER PUSH1 0x0 DUP1 PUSH2 0x100 EXP DUP2 SLOAD DUP2 PUSH20 0xFFFFFFFFFFFFFFFFFFFFFFFFFFFFFFFFFFFFFFFF MUL NOT AND SWAP1 DUP4 PUSH20 0xFFFFFFFFFFFFFFFFFFFFFFFFFFFFFFFFFFFFFFFF AND MUL OR SWAP1 SSTORE POP PUSH1 0x0 PUSH1 0x1 DUP2 SWAP1 SSTORE POP PUSH2 0x1219 DUP1 PUSH2 0x68 PUSH1 0x0 CODECOPY PUSH1 0x0 RETURN INVALID PUSH1 0x80 PUSH1 0x40 MSTORE PUSH1 0x4 CALLDATASIZE LT PUSH2 0x7B JUMPI PUSH1 0x0 CALLDATALOAD PUSH1 0xE0 SHR DUP1 PUSH4 0x886DC4D3 GT PUSH2 0x4E JUMPI DUP1 PUSH4 0x886DC4D3 EQ PUSH2 0x19E JUMPI DUP1 PUSH4 0xD7C81B55 EQ PUSH2 0x1F1 JUMPI DUP1 PUSH4 0xE849C38E EQ PUSH2 0x21C JUMPI DUP1 PUSH4 0xF5E71F1A EQ PUSH2 0x27C JUMPI PUSH2 0x7B JUMP JUMPDEST DUP1 PUSH4 0x9660513 EQ PUSH2 0x80 JUMPI DUP1 PUSH4 0xD0AA44A EQ PUSH2 0xEA JUMPI DUP1 PUSH4 0x481C6A75 EQ PUSH2 0x118 JUMPI DUP1 PUSH4 0x5E123CE4 EQ PUSH2 0x16F JUMPI JUMPDEST PUSH1 0x0 DUP1 REVERT JUMPDEST CALLVALUE DUP1 ISZERO PUSH2 0x8C JUMPI PUSH1 0x0 DUP1 REVERT JUMPDEST POP PUSH2 0xB9 PUSH1 0x4 DUP1 CALLDATASIZE SUB PUSH1 0x20 DUP2 LT ISZERO PUSH2 0xA3 JUMPI PUSH1 0x0 DUP1 REVERT JUMPDEST DUP2 ADD SWAP1 DUP1 DUP1 CALLDATALOAD SWAP1 PUSH1 0x20 ADD SWAP1 SWAP3 SWAP2 SWAP1 POP POP POP PUSH2 0x2DC JUMP JUMPDEST PUSH1 0x40 MLOAD DUP1 DUP6 PUSH1 0xFF AND PUSH1 0xFF AND DUP2 MSTORE PUSH1 0x20 ADD DUP5 DUP2 MSTORE PUSH1 0x20 ADD DUP4 DUP2 MSTORE PUSH1 0x20 ADD DUP3 DUP2 MSTORE PUSH1 0x20 ADD SWAP5 POP POP POP POP POP PUSH1 0x40 MLOAD DUP1 SWAP2 SUB SWAP1 RETURN JUMPDEST PUSH2 0x116 PUSH1 0x4 DUP1 CALLDATASIZE SUB PUSH1 0x20 DUP2 LT ISZERO PUSH2 0x100 JUMPI PUSH1 0x0 DUP1 REVERT JUMPDEST DUP2 ADD SWAP1 DUP1 DUP1 CALLDATALOAD SWAP1 PUSH1 0x20 ADD SWAP1 SWAP3 SWAP2 SWAP1 POP POP POP PUSH2 0x35A JUMP JUMPDEST STOP JUMPDEST CALLVALUE DUP1 ISZERO PUSH2 0x124 JUMPI PUSH1 0x0 DUP1 REVERT JUMPDEST POP PUSH2 0x12D PUSH2 0x6DF JUMP JUMPDEST PUSH1 0x40 MLOAD DUP1 DUP3 PUSH20 0xFFFFFFFFFFFFFFFFFFFFFFFFFFFFFFFFFFFFFFFF AND PUSH20 0xFFFFFFFFFFFFFFFFFFFFFFFFFFFFFFFFFFFFFFFF AND DUP2 MSTORE PUSH1 0x20 ADD SWAP2 POP POP PUSH1 0x40 MLOAD DUP1 SWAP2 SUB SWAP1 RETURN JUMPDEST CALLVALUE DUP1 ISZERO PUSH2 0x17B JUMPI PUSH1 0x0 DUP1 REVERT JUMPDEST POP PUSH2 0x184 PUSH2 0x704 JUMP JUMPDEST PUSH1 0x40 MLOAD DUP1 DUP3 ISZERO ISZERO ISZERO ISZERO DUP2 MSTORE PUSH1 0x20 ADD SWAP2 POP POP PUSH1 0x40 MLOAD DUP1 SWAP2 SUB SWAP1 RETURN JUMPDEST PUSH2 0x1D7 PUSH1 0x4 DUP1 CALLDATASIZE SUB PUSH1 0x40 DUP2 LT ISZERO PUSH2 0x1B4 JUMPI PUSH1 0x0 DUP1 REVERT JUMPDEST DUP2 ADD SWAP1 DUP1 DUP1 CALLDATALOAD PUSH1 0xFF AND SWAP1 PUSH1 0x20 ADD SWAP1 SWAP3 SWAP2 SWAP1 DUP1 CALLDATALOAD SWAP1 PUSH1 0x20 ADD SWAP1 SWAP3 SWAP2 SWAP1 POP POP POP PUSH2 0x717 JUMP JUMPDEST PUSH1 0x40 MLOAD DUP1 DUP3 ISZERO ISZERO ISZERO ISZERO DUP2 MSTORE PUSH1 0x20 ADD SWAP2 POP POP PUSH1 0x40 MLOAD DUP1 SWAP2 SUB SWAP1 RETURN JUMPDEST CALLVALUE DUP1 ISZERO PUSH2 0x1FD JUMPI PUSH1 0x0 DUP1 REVERT JUMPDEST POP PUSH2 0x206 PUSH2 0x83A JUMP JUMPDEST PUSH1 0x40 MLOAD DUP1 DUP3 DUP2 MSTORE PUSH1 0x20 ADD SWAP2 POP POP PUSH1 0x40 MLOAD DUP1 SWAP2 SUB SWAP1 RETURN JUMPDEST CALLVALUE DUP1 ISZERO PUSH2 0x228 JUMPI PUSH1 0x0 DUP1 REVERT JUMPDEST POP PUSH2 0x262 PUSH1 0x4 DUP1 CALLDATASIZE SUB PUSH1 0x40 DUP2 LT ISZERO PUSH2 0x23F JUMPI PUSH1 0x0 DUP1 REVERT JUMPDEST DUP2 ADD SWAP1 DUP1 DUP1 CALLDATALOAD PUSH1 0xFF AND SWAP1 PUSH1 0x20 ADD SWAP1 SWAP3 SWAP2 SWAP1 DUP1 CALLDATALOAD SWAP1 PUSH1 0x20 ADD SWAP1 SWAP3 SWAP2 SWAP1 POP POP POP PUSH2 0x840 JUMP JUMPDEST PUSH1 0x40 MLOAD DUP1 DUP3 ISZERO ISZERO ISZERO ISZERO DUP2 MSTORE PUSH1 0x20 ADD SWAP2 POP POP PUSH1 0x40 MLOAD DUP1 SWAP2 SUB SWAP1 RETURN JUMPDEST CALLVALUE DUP1 ISZERO PUSH2 0x288 JUMPI PUSH1 0x0 DUP1 REVERT JUMPDEST POP PUSH2 0x2C2 PUSH1 0x4 DUP1 CALLDATASIZE SUB PUSH1 0x40 DUP2 LT ISZERO PUSH2 0x29F JUMPI PUSH1 0x0 DUP1 REVERT JUMPDEST DUP2 ADD SWAP1 DUP1 DUP1 CALLDATALOAD PUSH1 0xFF AND SWAP1 PUSH1 0x20 ADD SWAP1 SWAP3 SWAP2 SWAP1 DUP1 CALLDATALOAD SWAP1 PUSH1 0x20 ADD SWAP1 SWAP3 SWAP2 SWAP1 POP POP POP PUSH2 0x9B3 JUMP JUMPDEST PUSH1 0x40 MLOAD DUP1 DUP3 ISZERO ISZERO ISZERO ISZERO DUP2 MSTORE PUSH1 0x20 ADD SWAP2 POP POP PUSH1 0x40 MLOAD DUP1 SWAP2 SUB SWAP1 RETURN JUMPDEST PUSH1 0x0 DUP1 PUSH1 0x0 DUP1 PUSH1 0x3 PUSH1 0x0 DUP7 DUP2 MSTORE PUSH1 0x20 ADD SWAP1 DUP2 MSTORE PUSH1 0x20 ADD PUSH1 0x0 KECCAK256 PUSH1 0x2 ADD PUSH1 0x0 SWAP1 SLOAD SWAP1 PUSH2 0x100 EXP SWAP1 DIV PUSH1 0xFF AND PUSH1 0x3 PUSH1 0x0 DUP8 DUP2 MSTORE PUSH1 0x20 ADD SWAP1 DUP2 MSTORE PUSH1 0x20 ADD PUSH1 0x0 KECCAK256 PUSH1 0x5 ADD SLOAD PUSH1 0x3 PUSH1 0x0 DUP9 DUP2 MSTORE PUSH1 0x20 ADD SWAP1 DUP2 MSTORE PUSH1 0x20 ADD PUSH1 0x0 KECCAK256 PUSH1 0x6 ADD SLOAD PUSH1 0x3 PUSH1 0x0 DUP10 DUP2 MSTORE PUSH1 0x20 ADD SWAP1 DUP2 MSTORE PUSH1 0x20 ADD PUSH1 0x0 KECCAK256 PUSH1 0x7 ADD SLOAD SWAP4 POP SWAP4 POP SWAP4 POP SWAP4 POP SWAP2 SWAP4 POP SWAP2 SWAP4 JUMP JUMPDEST PUSH1 0x0 CALLER SWAP1 POP PUSH1 0x0 DUP1 SWAP1 SLOAD SWAP1 PUSH2 0x100 EXP SWAP1 DIV PUSH20 0xFFFFFFFFFFFFFFFFFFFFFFFFFFFFFFFFFFFFFFFF AND PUSH20 0xFFFFFFFFFFFFFFFFFFFFFFFFFFFFFFFFFFFFFFFF AND DUP2 PUSH20 0xFFFFFFFFFFFFFFFFFFFFFFFFFFFFFFFFFFFFFFFF AND EQ ISZERO PUSH2 0x422 JUMPI PUSH1 0x40 MLOAD PUSH32 0x8C379A000000000000000000000000000000000000000000000000000000000 DUP2 MSTORE PUSH1 0x4 ADD DUP1 DUP1 PUSH1 0x20 ADD DUP3 DUP2 SUB DUP3 MSTORE PUSH1 0x1A DUP2 MSTORE PUSH1 0x20 ADD DUP1 PUSH32 0x4D616E616765722063616E6E6F742062657420612076616C7565000000000000 DUP2 MSTORE POP PUSH1 0x20 ADD SWAP2 POP POP PUSH1 0x40 MLOAD DUP1 SWAP2 SUB SWAP1 REVERT JUMPDEST PUSH1 0x0 DUP1 SHL PUSH1 0x3 PUSH1 0x0 PUSH1 0x1 SLOAD DUP2 MSTORE PUSH1 0x20 ADD SWAP1 DUP2 MSTORE PUSH1 0x20 ADD PUSH1 0x0 KECCAK256 PUSH1 0x0 ADD PUSH1 0x0 DUP4 PUSH20 0xFFFFFFFFFFFFFFFFFFFFFFFFFFFFFFFFFFFFFFFF AND PUSH20 0xFFFFFFFFFFFFFFFFFFFFFFFFFFFFFFFFFFFFFFFF AND DUP2 MSTORE PUSH1 0x20 ADD SWAP1 DUP2 MSTORE PUSH1 0x20 ADD PUSH1 0x0 KECCAK256 PUSH1 0x0 ADD SLOAD EQ PUSH2 0x4F2 JUMPI PUSH1 0x40 MLOAD PUSH32 0x8C379A000000000000000000000000000000000000000000000000000000000 DUP2 MSTORE PUSH1 0x4 ADD DUP1 DUP1 PUSH1 0x20 ADD DUP3 DUP2 SUB DUP3 MSTORE PUSH1 0x19 DUP2 MSTORE PUSH1 0x20 ADD DUP1 PUSH32 0x506C6179657220616C726561647920626574206E756D62657200000000000000 DUP2 MSTORE POP PUSH1 0x20 ADD SWAP2 POP POP PUSH1 0x40 MLOAD DUP1 SWAP2 SUB SWAP1 REVERT JUMPDEST PUSH1 0x3 PUSH1 0x0 PUSH1 0x1 SLOAD DUP2 MSTORE PUSH1 0x20 ADD SWAP1 DUP2 MSTORE PUSH1 0x20 ADD PUSH1 0x0 KECCAK256 PUSH1 0x7 ADD SLOAD CALLVALUE GT PUSH2 0x57F JUMPI PUSH1 0x40 MLOAD PUSH32 0x8C379A000000000000000000000000000000000000000000000000000000000 DUP2 MSTORE PUSH1 0x4 ADD DUP1 DUP1 PUSH1 0x20 ADD DUP3 DUP2 SUB DUP3 MSTORE PUSH1 0x1C DUP2 MSTORE PUSH1 0x20 ADD DUP1 PUSH32 0x596F7520426574206C657373207468656E206D696E696D756D42657400000000 DUP2 MSTORE POP PUSH1 0x20 ADD SWAP2 POP POP PUSH1 0x40 MLOAD DUP1 SWAP2 SUB SWAP1 REVERT JUMPDEST DUP2 PUSH1 0x3 PUSH1 0x0 PUSH1 0x1 SLOAD DUP2 MSTORE PUSH1 0x20 ADD SWAP1 DUP2 MSTORE PUSH1 0x20 ADD PUSH1 0x0 KECCAK256 PUSH1 0x0 ADD PUSH1 0x0 DUP4 PUSH20 0xFFFFFFFFFFFFFFFFFFFFFFFFFFFFFFFFFFFFFFFF AND PUSH20 0xFFFFFFFFFFFFFFFFFFFFFFFFFFFFFFFFFFFFFFFF AND DUP2 MSTORE PUSH1 0x20 ADD SWAP1 DUP2 MSTORE PUSH1 0x20 ADD PUSH1 0x0 KECCAK256 PUSH1 0x0 ADD DUP2 SWAP1 SSTORE POP CALLVALUE PUSH1 0x3 PUSH1 0x0 PUSH1 0x1 SLOAD DUP2 MSTORE PUSH1 0x20 ADD SWAP1 DUP2 MSTORE PUSH1 0x20 ADD PUSH1 0x0 KECCAK256 PUSH1 0x0 ADD PUSH1 0x0 DUP4 PUSH20 0xFFFFFFFFFFFFFFFFFFFFFFFFFFFFFFFFFFFFFFFF AND PUSH20 0xFFFFFFFFFFFFFFFFFFFFFFFFFFFFFFFFFFFFFFFF AND DUP2 MSTORE PUSH1 0x20 ADD SWAP1 DUP2 MSTORE PUSH1 0x20 ADD PUSH1 0x0 KECCAK256 PUSH1 0x1 ADD DUP2 SWAP1 SSTORE POP PUSH1 0x3 PUSH1 0x0 PUSH1 0x1 SLOAD DUP2 MSTORE PUSH1 0x20 ADD SWAP1 DUP2 MSTORE PUSH1 0x20 ADD PUSH1 0x0 KECCAK256 PUSH1 0x1 ADD DUP2 SWAP1 DUP1 PUSH1 0x1 DUP2 SLOAD ADD DUP1 DUP3 SSTORE DUP1 SWAP2 POP POP SWAP1 PUSH1 0x1 DUP3 SUB SWAP1 PUSH1 0x0 MSTORE PUSH1 0x20 PUSH1 0x0 KECCAK256 ADD PUSH1 0x0 SWAP1 SWAP2 SWAP3 SWAP1 SWAP2 SWAP1 SWAP2 PUSH2 0x100 EXP DUP2 SLOAD DUP2 PUSH20 0xFFFFFFFFFFFFFFFFFFFFFFFFFFFFFFFFFFFFFFFF MUL NOT AND SWAP1 DUP4 PUSH20 0xFFFFFFFFFFFFFFFFFFFFFFFFFFFFFFFFFFFFFFFF AND MUL OR SWAP1 SSTORE POP POP CALLVALUE PUSH1 0x3 PUSH1 0x0 PUSH1 0x1 SLOAD DUP2 MSTORE PUSH1 0x20 ADD SWAP1 DUP2 MSTORE PUSH1 0x20 ADD PUSH1 0x0 KECCAK256 PUSH1 0x6 ADD PUSH1 0x0 DUP3 DUP3 SLOAD ADD SWAP3 POP POP DUP2 SWAP1 SSTORE POP POP POP JUMP JUMPDEST PUSH1 0x0 DUP1 SWAP1 SLOAD SWAP1 PUSH2 0x100 EXP SWAP1 DIV PUSH20 0xFFFFFFFFFFFFFFFFFFFFFFFFFFFFFFFFFFFFFFFF AND DUP2 JUMP JUMPDEST PUSH1 0x2 PUSH1 0x0 SWAP1 SLOAD SWAP1 PUSH2 0x100 EXP SWAP1 DIV PUSH1 0xFF AND DUP2 JUMP JUMPDEST PUSH1 0x0 PUSH2 0x723 DUP4 DUP4 PUSH2 0xB26 JUMP JUMPDEST ISZERO PUSH2 0x82F JUMPI PUSH1 0x0 PUSH1 0x3 PUSH1 0x0 DUP5 DUP2 MSTORE PUSH1 0x20 ADD SWAP1 DUP2 MSTORE PUSH1 0x20 ADD PUSH1 0x0 KECCAK256 PUSH1 0x4 ADD SLOAD PUSH1 0x3 PUSH1 0x0 DUP6 DUP2 MSTORE PUSH1 0x20 ADD SWAP1 DUP2 MSTORE PUSH1 0x20 ADD PUSH1 0x0 KECCAK256 PUSH1 0x6 ADD SLOAD PUSH1 0x3 PUSH1 0x0 DUP7 DUP2 MSTORE PUSH1 0x20 ADD SWAP1 DUP2 MSTORE PUSH1 0x20 ADD PUSH1 0x0 KECCAK256 PUSH1 0x0 ADD PUSH1 0x0 CALLER PUSH20 0xFFFFFFFFFFFFFFFFFFFFFFFFFFFFFFFFFFFFFFFF AND PUSH20 0xFFFFFFFFFFFFFFFFFFFFFFFFFFFFFFFFFFFFFFFF AND DUP2 MSTORE PUSH1 0x20 ADD SWAP1 DUP2 MSTORE PUSH1 0x20 ADD PUSH1 0x0 KECCAK256 PUSH1 0x1 ADD SLOAD MUL DUP2 PUSH2 0x7B7 JUMPI INVALID JUMPDEST DIV SWAP1 POP CALLER PUSH20 0xFFFFFFFFFFFFFFFFFFFFFFFFFFFFFFFFFFFFFFFF AND PUSH2 0x8FC DUP3 SWAP1 DUP2 ISZERO MUL SWAP1 PUSH1 0x40 MLOAD PUSH1 0x0 PUSH1 0x40 MLOAD DUP1 DUP4 SUB DUP2 DUP6 DUP9 DUP9 CALL SWAP4 POP POP POP POP ISZERO DUP1 ISZERO PUSH2 0x800 JUMPI RETURNDATASIZE PUSH1 0x0 DUP1 RETURNDATACOPY RETURNDATASIZE PUSH1 0x0 REVERT JUMPDEST POP DUP1 PUSH1 0x3 PUSH1 0x0 DUP6 DUP2 MSTORE PUSH1 0x20 ADD SWAP1 DUP2 MSTORE PUSH1 0x20 ADD PUSH1 0x0 KECCAK256 PUSH1 0x5 ADD PUSH1 0x0 DUP3 DUP3 SLOAD SUB SWAP3 POP POP DUP2 SWAP1 SSTORE POP PUSH1 0x1 SWAP2 POP POP PUSH2 0x834 JUMP JUMPDEST PUSH1 0x0 SWAP1 POP JUMPDEST SWAP3 SWAP2 POP POP JUMP JUMPDEST PUSH1 0x1 SLOAD DUP2 JUMP JUMPDEST PUSH1 0x0 DUP1 PUSH1 0x0 SWAP1 SLOAD SWAP1 PUSH2 0x100 EXP SWAP1 DIV PUSH20 0xFFFFFFFFFFFFFFFFFFFFFFFFFFFFFFFFFFFFFFFF AND PUSH20 0xFFFFFFFFFFFFFFFFFFFFFFFFFFFFFFFFFFFFFFFF AND CALLER PUSH20 0xFFFFFFFFFFFFFFFFFFFFFFFFFFFFFFFFFFFFFFFF AND EQ PUSH2 0x8E7 JUMPI PUSH1 0x40 MLOAD PUSH32 0x8C379A000000000000000000000000000000000000000000000000000000000 DUP2 MSTORE PUSH1 0x4 ADD DUP1 DUP1 PUSH1 0x20 ADD DUP3 DUP2 SUB DUP3 MSTORE PUSH1 0x23 DUP2 MSTORE PUSH1 0x20 ADD DUP1 PUSH2 0x1179 PUSH1 0x23 SWAP2 CODECOPY PUSH1 0x40 ADD SWAP2 POP POP PUSH1 0x40 MLOAD DUP1 SWAP2 SUB SWAP1 REVERT JUMPDEST PUSH1 0x2 PUSH1 0x0 SWAP1 SLOAD SWAP1 PUSH2 0x100 EXP SWAP1 DIV PUSH1 0xFF AND ISZERO PUSH2 0x96A JUMPI PUSH1 0x40 MLOAD PUSH32 0x8C379A000000000000000000000000000000000000000000000000000000000 DUP2 MSTORE PUSH1 0x4 ADD DUP1 DUP1 PUSH1 0x20 ADD DUP3 DUP2 SUB DUP3 MSTORE PUSH1 0x14 DUP2 MSTORE PUSH1 0x20 ADD DUP1 PUSH32 0x4974206973206E6F742073746172742047616D65000000000000000000000000 DUP2 MSTORE POP PUSH1 0x20 ADD SWAP2 POP POP PUSH1 0x40 MLOAD DUP1 SWAP2 SUB SWAP1 REVERT JUMPDEST PUSH1 0x1 PUSH1 0x2 PUSH1 0x0 PUSH2 0x100 EXP DUP2 SLOAD DUP2 PUSH1 0xFF MUL NOT AND SWAP1 DUP4 ISZERO ISZERO MUL OR SWAP1 SSTORE POP DUP2 PUSH1 0x3 PUSH1 0x0 DUP1 DUP2 MSTORE PUSH1 0x20 ADD SWAP1 DUP2 MSTORE PUSH1 0x20 ADD PUSH1 0x0 KECCAK256 PUSH1 0x7 ADD DUP2 SWAP1 SSTORE POP PUSH2 0x9A9 DUP4 PUSH2 0xE77 JUMP JUMPDEST PUSH1 0x1 SWAP1 POP SWAP3 SWAP2 POP POP JUMP JUMPDEST PUSH1 0x0 DUP1 PUSH1 0x0 SWAP1 SLOAD SWAP1 PUSH2 0x100 EXP SWAP1 DIV PUSH20 0xFFFFFFFFFFFFFFFFFFFFFFFFFFFFFFFFFFFFFFFF AND PUSH20 0xFFFFFFFFFFFFFFFFFFFFFFFFFFFFFFFFFFFFFFFF AND CALLER PUSH20 0xFFFFFFFFFFFFFFFFFFFFFFFFFFFFFFFFFFFFFFFF AND EQ PUSH2 0xA5A JUMPI PUSH1 0x40 MLOAD PUSH32 0x8C379A000000000000000000000000000000000000000000000000000000000 DUP2 MSTORE PUSH1 0x4 ADD DUP1 DUP1 PUSH1 0x20 ADD DUP3 DUP2 SUB DUP3 MSTORE PUSH1 0x23 DUP2 MSTORE PUSH1 0x20 ADD DUP1 PUSH2 0x1179 PUSH1 0x23 SWAP2 CODECOPY PUSH1 0x40 ADD SWAP2 POP POP PUSH1 0x40 MLOAD DUP1 SWAP2 SUB SWAP1 REVERT JUMPDEST PUSH1 0x2 PUSH1 0x0 SWAP1 SLOAD SWAP1 PUSH2 0x100 EXP SWAP1 DIV PUSH1 0xFF AND PUSH2 0xADC JUMPI PUSH1 0x40 MLOAD PUSH32 0x8C379A000000000000000000000000000000000000000000000000000000000 DUP2 MSTORE PUSH1 0x4 ADD DUP1 DUP1 PUSH1 0x20 ADD DUP3 DUP2 SUB DUP3 MSTORE PUSH1 0x16 DUP2 MSTORE PUSH1 0x20 ADD DUP1 PUSH32 0x5468652067616D6520646964206E6F7420737461727400000000000000000000 DUP2 MSTORE POP PUSH1 0x20 ADD SWAP2 POP POP PUSH1 0x40 MLOAD DUP1 SWAP2 SUB SWAP1 REVERT JUMPDEST PUSH2 0xAE4 PUSH2 0xF34 JUMP JUMPDEST PUSH1 0x1 PUSH1 0x0 DUP2 SLOAD DUP1 SWAP3 SWAP2 SWAP1 PUSH1 0x1 ADD SWAP2 SWAP1 POP SSTORE POP DUP2 PUSH1 0x3 PUSH1 0x0 PUSH1 0x1 SLOAD DUP2 MSTORE PUSH1 0x20 ADD SWAP1 DUP2 MSTORE PUSH1 0x20 ADD PUSH1 0x0 KECCAK256 PUSH1 0x7 ADD DUP2 SWAP1 SSTORE POP PUSH2 0xB1C DUP4 PUSH2 0xE77 JUMP JUMPDEST PUSH1 0x1 SWAP1 POP SWAP3 SWAP2 POP POP JUMP JUMPDEST PUSH1 0x0 DUP3 PUSH1 0xFF AND PUSH1 0x1 DUP2 LT ISZERO DUP1 ISZERO PUSH2 0xB3E JUMPI POP PUSH1 0xC DUP2 GT ISZERO JUMPDEST PUSH2 0xBB0 JUMPI PUSH1 0x40 MLOAD PUSH32 0x8C379A000000000000000000000000000000000000000000000000000000000 DUP2 MSTORE PUSH1 0x4 ADD DUP1 DUP1 PUSH1 0x20 ADD DUP3 DUP2 SUB DUP3 MSTORE PUSH1 0x1E DUP2 MSTORE PUSH1 0x20 ADD DUP1 PUSH32 0x546865206E756D626572206973206E6F742066726F6D203120746F2031320000 DUP2 MSTORE POP PUSH1 0x20 ADD SWAP2 POP POP PUSH1 0x40 MLOAD DUP1 SWAP2 SUB SWAP1 REVERT JUMPDEST PUSH1 0x3 PUSH1 0x0 DUP5 DUP2 MSTORE PUSH1 0x20 ADD SWAP1 DUP2 MSTORE PUSH1 0x20 ADD PUSH1 0x0 KECCAK256 PUSH1 0x0 ADD PUSH1 0x0 CALLER PUSH20 0xFFFFFFFFFFFFFFFFFFFFFFFFFFFFFFFFFFFFFFFF AND PUSH20 0xFFFFFFFFFFFFFFFFFFFFFFFFFFFFFFFFFFFFFFFF AND DUP2 MSTORE PUSH1 0x20 ADD SWAP1 DUP2 MSTORE PUSH1 0x20 ADD PUSH1 0x0 KECCAK256 PUSH1 0x2 ADD PUSH1 0x0 SWAP1 SLOAD SWAP1 PUSH2 0x100 EXP SWAP1 DIV PUSH1 0xFF AND ISZERO PUSH2 0xC87 JUMPI PUSH1 0x40 MLOAD PUSH32 0x8C379A000000000000000000000000000000000000000000000000000000000 DUP2 MSTORE PUSH1 0x4 ADD DUP1 DUP1 PUSH1 0x20 ADD DUP3 DUP2 SUB DUP3 MSTORE PUSH1 0x1E DUP2 MSTORE PUSH1 0x20 ADD DUP1 PUSH32 0x506C6179657220616C726561647920726563656976652061206D6F6E65790000 DUP2 MSTORE POP PUSH1 0x20 ADD SWAP2 POP POP PUSH1 0x40 MLOAD DUP1 SWAP2 SUB SWAP1 REVERT JUMPDEST PUSH1 0x0 DUP4 LT ISZERO DUP1 ISZERO PUSH2 0xC99 JUMPI POP PUSH1 0x1 SLOAD DUP4 LT JUMPDEST PUSH2 0xD0B JUMPI PUSH1 0x40 MLOAD PUSH32 0x8C379A000000000000000000000000000000000000000000000000000000000 DUP2 MSTORE PUSH1 0x4 ADD DUP1 DUP1 PUSH1 0x20 ADD DUP3 DUP2 SUB DUP3 MSTORE PUSH1 0x11 DUP2 MSTORE PUSH1 0x20 ADD DUP1 PUSH32 0x47616D65206973206E6F7420656E646564000000000000000000000000000000 DUP2 MSTORE POP PUSH1 0x20 ADD SWAP2 POP POP PUSH1 0x40 MLOAD DUP1 SWAP2 SUB SWAP1 REVERT JUMPDEST PUSH1 0x3 PUSH1 0x0 DUP5 DUP2 MSTORE PUSH1 0x20 ADD SWAP1 DUP2 MSTORE PUSH1 0x20 ADD PUSH1 0x0 KECCAK256 PUSH1 0x2 ADD PUSH1 0x0 SWAP1 SLOAD SWAP1 PUSH2 0x100 EXP SWAP1 DIV PUSH1 0xFF AND PUSH1 0xFF AND DUP5 PUSH1 0xFF AND EQ PUSH2 0xD8C JUMPI PUSH1 0x40 MLOAD PUSH32 0x8C379A000000000000000000000000000000000000000000000000000000000 DUP2 MSTORE PUSH1 0x4 ADD DUP1 DUP1 PUSH1 0x20 ADD DUP3 DUP2 SUB DUP3 MSTORE PUSH1 0x27 DUP2 MSTORE PUSH1 0x20 ADD DUP1 PUSH2 0x119C PUSH1 0x27 SWAP2 CODECOPY PUSH1 0x40 ADD SWAP2 POP POP PUSH1 0x40 MLOAD DUP1 SWAP2 SUB SWAP1 REVERT JUMPDEST PUSH1 0x0 DUP5 PUSH1 0x40 MLOAD PUSH1 0x20 ADD DUP1 DUP3 PUSH1 0xFF AND PUSH1 0xFF AND DUP2 MSTORE PUSH1 0x20 ADD SWAP2 POP POP PUSH1 0x40 MLOAD PUSH1 0x20 DUP2 DUP4 SUB SUB DUP2 MSTORE SWAP1 PUSH1 0x40 MSTORE DUP1 MLOAD SWAP1 PUSH1 0x20 ADD KECCAK256 SWAP1 POP PUSH1 0x3 PUSH1 0x0 DUP6 DUP2 MSTORE PUSH1 0x20 ADD SWAP1 DUP2 MSTORE PUSH1 0x20 ADD PUSH1 0x0 KECCAK256 PUSH1 0x0 ADD PUSH1 0x0 CALLER PUSH20 0xFFFFFFFFFFFFFFFFFFFFFFFFFFFFFFFFFFFFFFFF AND PUSH20 0xFFFFFFFFFFFFFFFFFFFFFFFFFFFFFFFFFFFFFFFF AND DUP2 MSTORE PUSH1 0x20 ADD SWAP1 DUP2 MSTORE PUSH1 0x20 ADD PUSH1 0x0 KECCAK256 PUSH1 0x0 ADD SLOAD DUP2 EQ PUSH2 0xE6B JUMPI PUSH1 0x40 MLOAD PUSH32 0x8C379A000000000000000000000000000000000000000000000000000000000 DUP2 MSTORE PUSH1 0x4 ADD DUP1 DUP1 PUSH1 0x20 ADD DUP3 DUP2 SUB DUP3 MSTORE PUSH1 0x22 DUP2 MSTORE PUSH1 0x20 ADD DUP1 PUSH2 0x11C3 PUSH1 0x22 SWAP2 CODECOPY PUSH1 0x40 ADD SWAP2 POP POP PUSH1 0x40 MLOAD DUP1 SWAP2 SUB SWAP1 REVERT JUMPDEST PUSH1 0x1 SWAP3 POP POP POP SWAP3 SWAP2 POP POP JUMP JUMPDEST DUP1 PUSH1 0xFF AND PUSH1 0x1 DUP2 LT ISZERO DUP1 ISZERO PUSH2 0xE8D JUMPI POP PUSH1 0xC DUP2 GT ISZERO JUMPDEST PUSH2 0xEFF JUMPI PUSH1 0x40 MLOAD PUSH32 0x8C379A000000000000000000000000000000000000000000000000000000000 DUP2 MSTORE PUSH1 0x4 ADD DUP1 DUP1 PUSH1 0x20 ADD DUP3 DUP2 SUB DUP3 MSTORE PUSH1 0x1E DUP2 MSTORE PUSH1 0x20 ADD DUP1 PUSH32 0x546865206E756D626572206973206E6F742066726F6D203120746F2031320000 DUP2 MSTORE POP PUSH1 0x20 ADD SWAP2 POP POP PUSH1 0x40 MLOAD DUP1 SWAP2 SUB SWAP1 REVERT JUMPDEST DUP2 PUSH1 0x3 PUSH1 0x0 PUSH1 0x1 SLOAD DUP2 MSTORE PUSH1 0x20 ADD SWAP1 DUP2 MSTORE PUSH1 0x20 ADD PUSH1 0x0 KECCAK256 PUSH1 0x2 ADD PUSH1 0x0 PUSH2 0x100 EXP DUP2 SLOAD DUP2 PUSH1 0xFF MUL NOT AND SWAP1 DUP4 PUSH1 0xFF AND MUL OR SWAP1 SSTORE POP POP POP JUMP JUMPDEST PUSH1 0x0 PUSH1 0x3 PUSH1 0x0 PUSH1 0x1 SLOAD DUP2 MSTORE PUSH1 0x20 ADD SWAP1 DUP2 MSTORE PUSH1 0x20 ADD PUSH1 0x0 KECCAK256 PUSH1 0x1 ADD SWAP1 POP PUSH1 0x0 DUP2 DUP1 SLOAD SWAP1 POP SWAP1 POP PUSH1 0x0 DUP1 SWAP1 POP JUMPDEST DUP2 DUP2 LT ISZERO PUSH2 0x113E JUMPI PUSH1 0x0 PUSH1 0x3 PUSH1 0x0 PUSH1 0x1 SLOAD DUP2 MSTORE PUSH1 0x20 ADD SWAP1 DUP2 MSTORE PUSH1 0x20 ADD PUSH1 0x0 KECCAK256 PUSH1 0x0 ADD PUSH1 0x0 DUP6 DUP5 DUP2 SLOAD DUP2 LT PUSH2 0xF8F JUMPI INVALID JUMPDEST SWAP1 PUSH1 0x0 MSTORE PUSH1 0x20 PUSH1 0x0 KECCAK256 ADD PUSH1 0x0 SWAP1 SLOAD SWAP1 PUSH2 0x100 EXP SWAP1 DIV PUSH20 0xFFFFFFFFFFFFFFFFFFFFFFFFFFFFFFFFFFFFFFFF AND PUSH20 0xFFFFFFFFFFFFFFFFFFFFFFFFFFFFFFFFFFFFFFFF AND PUSH20 0xFFFFFFFFFFFFFFFFFFFFFFFFFFFFFFFFFFFFFFFF AND DUP2 MSTORE PUSH1 0x20 ADD SWAP1 DUP2 MSTORE PUSH1 0x20 ADD PUSH1 0x0 KECCAK256 PUSH1 0x0 ADD SLOAD SWAP1 POP PUSH1 0x3 PUSH1 0x0 PUSH1 0x1 SLOAD DUP2 MSTORE PUSH1 0x20 ADD SWAP1 DUP2 MSTORE PUSH1 0x20 ADD PUSH1 0x0 KECCAK256 PUSH1 0x2 ADD PUSH1 0x0 SWAP1 SLOAD SWAP1 PUSH2 0x100 EXP SWAP1 DIV PUSH1 0xFF AND PUSH1 0x40 MLOAD PUSH1 0x20 ADD DUP1 DUP3 PUSH1 0xFF AND PUSH1 0xFF AND DUP2 MSTORE PUSH1 0x20 ADD SWAP2 POP POP PUSH1 0x40 MLOAD PUSH1 0x20 DUP2 DUP4 SUB SUB DUP2 MSTORE SWAP1 PUSH1 0x40 MSTORE DUP1 MLOAD SWAP1 PUSH1 0x20 ADD KECCAK256 DUP2 EQ ISZERO PUSH2 0x1130 JUMPI PUSH1 0x3 PUSH1 0x0 PUSH1 0x1 SLOAD DUP2 MSTORE PUSH1 0x20 ADD SWAP1 DUP2 MSTORE PUSH1 0x20 ADD PUSH1 0x0 KECCAK256 PUSH1 0x3 ADD PUSH1 0x0 DUP2 SLOAD DUP1 SWAP3 SWAP2 SWAP1 PUSH1 0x1 ADD SWAP2 SWAP1 POP SSTORE POP PUSH1 0x3 PUSH1 0x0 PUSH1 0x1 SLOAD DUP2 MSTORE PUSH1 0x20 ADD SWAP1 DUP2 MSTORE PUSH1 0x20 ADD PUSH1 0x0 KECCAK256 PUSH1 0x0 ADD PUSH1 0x0 DUP6 DUP5 DUP2 SLOAD DUP2 LT PUSH2 0x10A1 JUMPI INVALID JUMPDEST SWAP1 PUSH1 0x0 MSTORE PUSH1 0x20 PUSH1 0x0 KECCAK256 ADD PUSH1 0x0 SWAP1 SLOAD SWAP1 PUSH2 0x100 EXP SWAP1 DIV PUSH20 0xFFFFFFFFFFFFFFFFFFFFFFFFFFFFFFFFFFFFFFFF AND PUSH20 0xFFFFFFFFFFFFFFFFFFFFFFFFFFFFFFFFFFFFFFFF AND PUSH20 0xFFFFFFFFFFFFFFFFFFFFFFFFFFFFFFFFFFFFFFFF AND DUP2 MSTORE PUSH1 0x20 ADD SWAP1 DUP2 MSTORE PUSH1 0x20 ADD PUSH1 0x0 KECCAK256 PUSH1 0x1 ADD SLOAD PUSH1 0x3 PUSH1 0x0 PUSH1 0x1 SLOAD DUP2 MSTORE PUSH1 0x20 ADD SWAP1 DUP2 MSTORE PUSH1 0x20 ADD PUSH1 0x0 KECCAK256 PUSH1 0x4 ADD PUSH1 0x0 DUP3 DUP3 SLOAD ADD SWAP3 POP POP DUP2 SWAP1 SSTORE POP JUMPDEST POP DUP1 DUP1 PUSH1 0x1 ADD SWAP2 POP POP PUSH2 0xF5F JUMP JUMPDEST POP PUSH1 0x3 PUSH1 0x0 PUSH1 0x1 SLOAD DUP2 MSTORE PUSH1 0x20 ADD SWAP1 DUP2 MSTORE PUSH1 0x20 ADD PUSH1 0x0 KECCAK256 PUSH1 0x6 ADD SLOAD PUSH1 0x3 PUSH1 0x0 PUSH1 0x1 SLOAD DUP2 MSTORE PUSH1 0x20 ADD SWAP1 DUP2 MSTORE PUSH1 0x20 ADD PUSH1 0x0 KECCAK256 PUSH1 0x5 ADD DUP2 SWAP1 SSTORE POP POP POP JUMP INVALID 0x4f PUSH15 0x6C79206D616E616765722063616E20 PUSH4 0x616C6C20 PUSH21 0x6869732066756E6374696F6E5573657220696E7075 PUSH21 0x20646F6573206E6F74206D617463682077696E6E69 PUSH15 0x672076616C75655573657220696E70 PUSH22 0x7420646F6573206E6F74206D61746368206974732068 PUSH2 0x7368 LOG2 PUSH6 0x627A7A723158 KECCAK256 0x48 0xb0 0xab 0xe0 0xba 0xa9 0xeb PUSH22 0x5154EE0D84E72BEF632A9C611B3338DCEF9FA39BE67F LOG4 PUSH14 0x64736F6C634300050B0032000000 "},"gasEstimates":{"creation":{"codeDepositCost":"926600","executionCost":"26242","totalCost":"952842"},"external":{"gameId()":"427","gameStarted()":"520","getGameById(uint256)":"1584","manager()":"498","newGame(uint8,uint256)":"infinite","receiveMoney(uint8,uint256)":"infinite","setUserBetAndHash(bytes32)":"103802","startGame(uint8,uint256)":"infinite"},"internal":{"checkUserValue(uint8,uint256)":"infinite","setGame()":"infinite","setServerValue(uint8)":"infinite"}},"methodIdentifiers":{"gameId()":"d7c81b55","gameStarted()":"5e123ce4","getGameById(uint256)":"09660513","manager()":"481c6a75","newGame(uint8,uint256)":"f5e71f1a","receiveMoney(uint8,uint256)":"886dc4d3","setUserBetAndHash(bytes32)":"0d0aa44a","startGame(uint8,uint256)":"e849c38e"}},"userdoc":{"methods":{}}}